:100000000C946B020C94A3020C94A3020C94A30214
:100010000C94A3020C94A3020C94A3020C94A302CC
:100020000C94A3020C94A3020C94071E0C94491D7B
:100030000C9437210C94A3020C94A3020C94A302F9
:100040000C94A3020C94A3020C94A3020C94A3029C
:100050000C94A3020C94F6200C94A3020C94A3021B
:100060000C94A3020C94A3020C94A3020C94A3027C
:100070000C94A3020C94A3020C94A3020C94A3026C
:100080000C94A3020C94A3020C94A3020C94A3025C
:100090000C94A3020C94A3020C94A3020C94A3024C
:1000A0000C94A3020C94A3020C94A3022C082C0819
:1000B0005F085F08D008EC08510A510A3409C209E8
:1000C000D309D309671B8E1B311D8E1B311DDA1B13
:1000D000FD1B311DF21C011DF1002941F200000041
:1000E0000000000000000000F100F300F20000003A
:1000F0000000000000000000CA5CC45CC65C000098
:1001000000000000000000001E0F050001010101B9
:1001100001010101010202020202020202020303C2
:100120000303030303030404040404040405050592
:100130000505060606060607070707070808080854
:10014000090909090A0A0A0B0B0B0C0C0C0D0D0D01
:100150000E0E0E0F0F0F1010111111121213131497
:1001600014151516161717181819191A1A1B1B1C0F
:100170001D1D1E1E1F202021222223242425262669
:10018000272829292A2B2C2D2D2E2F30313232339E
:100190003435363738393A3B3C3D3E3F40414243A7
:1001A0004445464748494A4C4D4E4F50515354558B
:1001B0005658595A5B5D5E5F616264656668696B3B
:1001C0006C6D6F7072737577787A7B7D7E808283B9
:1001D0008587888A8C8E8F91939596989A9C9EA0FD
:1001E000A2A3A5A7A9ABADAFB1B3B5B7BABCBEC00A
:1001F000C2C4C6C9CBCDCFD1D4D6D8DBDDDFE2E4D3
:10020000E7E9EBEEF0F3F5F8FAFDFF05010904A1CB
:1002100001A1000501093009311581257F9502757D
:1002200008810205091901290415002501950475A5
:10023000018102950475018101C0C005010902A177
:100240000185020901A100050919012908150025E8
:1002500001950875018102050109300931158125D3
:100260007F95027508810609381581257F950175EE
:10027000088106050C0A38021581257F950175084D
:100280008106C0C005010980A101850319012AB7B3
:1002900000150126B700950175108100C0050C09F5
:1002A00001A101850419012AA002150126A00295C9
:1002B0000175108100C005010906A1018506050729
:1002C00019E029E715002501950875018102050748
:1002D000190029EF1500250195F075018102050827
:1002E0001901290595057501910295017503910183
:1002F000C005010906A101050719E029E715002538
:10030000019508750181029501750881010507199C
:100310000029FF150026FF009506750881000508D5
:100320001901290595057501910295017503910142
:10033000C009025400030100A0FA090400000103EF
:10034000010100092111010001224000070581037C
:100350000800010904010001030000000921110146
:10036000000122B6000705820320000109040200F3
:1003700001030000000921110100012230000705DE
:100380008303080001120100020000000841450338
:1003900000010001020001080341006E0075000029
:1003A000000C03610072006F0075006D0000000416
:1003B000030904C65CC45C0000CA5CC45C0000CADB
:1003C0005CC45CC65C0000F100F20029410000F151
:1003D00000F20000002223252628292A2C2D2F3068
:1003E00032333536383A3B3D3E4042434547494A31
:1003F0004C4E5051535557595A5C5E606264666862
:10040000696B6D6F71737577797B7D7F818385876C
:10041000898A8C8E90929496989A9C9E9FA1A3A56F
:10042000A7A8AAACAEAFB1B3B4B6B8B9BBBCBEBF97
:10043000C1C2C3C5C6C7C9CACBCCCDCED0D1D2D21A
:10044000D3D4D5D6D7D7D8D9D9DADADBDBDBDCDC25
:10045000DCDCDCDDDDDDDDDCDCDCDCDCDBDBDBDADD
:10046000DAD9D9D8D7D7D6D5D4D3D2D2D1D0CECD48
:10047000CCCBCAC9C7C6C5C3C2C1BFBEBCBBB9B855
:10048000B6B4B3B1AFAEACAAA8A7A5A3A19F9E9CDA
:100490009A98969492908E8C8A89878583817F7DA5
:1004A0007B79777573716F6D6B6968666462605E86
:1004B0005C5A5957555351504E4C4A49474543424F
:1004C000403E3D3B3A3836353332302F2D2C2A29E9
:1004D00028262523220011241FBECFEFDAE0DEBF3D
:1004E000CDBF04B603FE18C0809141039091420332
:1004F000A0914303B09144038730904BA740B04B89
:1005000059F4109241031092420310924303109247
:100510004403E0E0F8E3099511E0A0E0B1E0ECE984
:10052000F4E502C005900D92AA39B107D9F723E08E
:10053000AAE9B1E001C01D92A134B207E1F70E941F
:10054000E7100C944C2A0C940000A5E0B0E0EBEA14
:10055000F2E00C940A2AFC0186819781009709F544
:10056000CF0125E0DE01119601900D922A95E1F769
:10057000FC01228189819A81222359F0662349F066
:100580000E946924182F682F89819A810E94CB24A8
:1005900003C00E94AA24182F69817A81812F0E94AA
:1005A000E50B2596E3E00C94262A0E945D252FEFAB
:1005B00084E39CE0215080409040E1F700C00000BF
:1005C0009CE088E10FB6F894A895809360000FBE78
:1005D00090936000FFCFABE1B0E0E1EFF2E00C946C
:1005E000FB29498B5A8B6B8B7C8B8D8B6111109205
:1005F000BB029E01275F3F4F88E0F90111928A9567
:10060000E9F785E0FE017196D90101900D928A9576
:10061000E1F789859A854C855D85452B31F09F3FB3
:1006200031F491E08F3F19F403C091E001C090E0F4
:1006300090FDD1C161E0C9010E94A5026C01883F13
:10064000FCE59F0739F48B858823A1F081E0809336
:100650003501C1C1893F2CE5920731F48B85882390
:1006600049F00E942623B7C18A3F9C4519F48B8527
:10067000811111C002E111E0712CA12CB12C882450
:100680008394912C55245394CE0101969F8B8E8B8D
:1006900077E0472E38C0809135018823B9F2E1CF49
:1006A000FFEFEF16FF0609F444C1F8016481611100
:1006B00045C020913501822F81706B84F80135810E
:1006C0002681662009F4DCC0882309F4D9C03323CD
:1006D000C1F1940102C0220F331F9A95E2F7215015
:1006E0003109F801868190E02817390709F440C0E4
:1006F0007628FFEFAF1ABF0A095F1F4F25E0A21649
:10070000B10409F418C1F801208131816FEF8FEF36
:1007100090E0E92EF12CF701EE0FFF1FE20FF31F1F
:1007200045915491C416D50611F0E62EF82E452BAE
:1007300009F4B6CF9F5F6E2D8F2DEBCF20E030E018
:10074000BACFA4010E2C01C0440F0A94EAF7242B5F
:1007500026832091B9023091BA022233310508F084
:10076000B8CF22E330E03093BA022093B902B1CF80
:100770008091280390912903009729F00E941C2161
:10078000C39708F025C180912603B0912703982FC5
:10079000E0E0F0E08B1709F45FC0282F30E0F901AA
:1007A000EE0FFF1FE25EFC4FE080F1804E9CF001F7
:1007B0004F9CF00D1124EE5EFE4F40814A8F418127
:1007C0004B8FA0E060E070E0EA8DFB8DE70FF11D3C
:1007D000E70FF11D2590349021143104D1F0F80178
:1007E000F081F88FF801F181F98F60E0E88DF98DE3
:1007F000E60FF11DE60FF11D45915491411551058C
:1008000031F02416350609F4A1E06F5FEFCF7F5F6A
:10081000DBCFAA23D1F0671708F4D4C04E9CF001B7
:100820004F9CF00D1124EE5EFE4F309781F0548204
:10083000E017F10719F4909326035ACF891307C0E4
:10084000C9010196982F937002C0E0E0F0E02F5F9D
:100850003F4F822F83709ECF90932603E017F107BE
:1008600009F446CF90E0FC01EE0FFF1FE25EFC4F63
:10087000B182A0820196837099278093270338CF95
:10088000311112C0A40102C0440F551F9A95E2F71E
:100890004150510930E042175307E9F56623E1F171
:1008A000C5010E94862237C0822F90E09C01215012
:1008B0003109282339230E2C02C0959587950A9477
:1008C000E2F7232B31F580FF24C0F8018281938168
:1008D000892BD9F088E0EE89FF8911928A95E9F792
:1008E0008EEF89838A830E942B218160582F9D83FC
:1008F0008C83F801828193818F83988729813A8143
:100900004B816D817E810E947325F801158281E003
:1009100003C0817001C080E094010E2C01C0220F41
:100920000A94EAF72095F801968129232683682EF8
:10093000DFCE612CDDCE8B85882381F1772071F1AC
:100940000E942B2190932903809328038091BD025C
:10095000883008F04AC091E0980F9093BD0298E06B
:10096000FE013996DE01119601900D929A95E1F7FC
:100970004CE0849FC001112482549D4F28E0FE0169
:100980003196DC0101900D922A95E1F72FEF3FEFB0
:10099000FC0131872087D386C28627C09091260329
:1009A00080912703981719F00E94352308C00E94F0
:1009B000B42210922903109228030E941523772055
:1009C00051F013C00115110509F43FCF9093260390
:1009D000F80154828DCE29853A854B855C856D85DD
:1009E0007E858F8598890E9473256B96E2E10C9431
:1009F000172AA2E1B0E0EFEFF4E00C94032AFC0127
:100A00008081918123813481232B31F09F3F31F408
:100A100091E08F3F19F403C091E001C090E090FD98
:100A2000DCC57F0161E0CF010E94A5028C01843FFB
:100A30009C4559F1053F8CE5180790F4093D9CE56C
:100A40001907E9F00A3DECE51E0789F1083DFCE5D0
:100A50001F07B1F506E221EE41EE68ED7CE52CC002
:100A6000063F2CE51207E9F0B0F0073F9CE51907B7
:100A700039F507E225EE46EE67EF7CE51DC007E29B
:100A800025EE45EE69ED7CE517C006E221EE40EE6D
:100A900064EF7CE511C007E225EE44EE65EF7CE5EE
:100AA0000BC006E221EE42EE66EF7CE505C008E2EF
:100AB00021E045EE6AED7CE5C7010E940422C3C136
:100AC000F7018281882309F498C110922C03043025
:100AD000FDE51F0758F40B3F2CE51207C0F4C801D1
:100AE00082509C45449708F071C111C0063A8DE5CB
:100AF000180769F030F40236EDE51E0709F066C10B
:100B000006C0C8018E5A9D45039708F05FC10E9438
:100B1000960D90933903809338030231FCE51F074B
:100B200009F40CC108F04DC009308CE5180709F430
:100B3000D9C008F50530ECE51E0709F4C0C080F403
:100B400003302CE5120709F4B1C008F0B5C002303B
:100B50009CE5190709F02AC1809138038160A9C07A
:100B60000730ECE51E0709F4B5C008F0B7C0809166
:100B7000380380619EC00D302CE5120709F4C8C00F
:100B800058F40B309CE5190709F4B6C008F0BCC056
:100B9000809138038860ACC00F30FCE51F0709F472
:100BA000C5C008F4B8C000318CE5180709F4C2C00C
:100BB00001319CE5190709F0F9C0809138038F7B5A
:100BC00078C00115EDE51E0709F4C3C098F50B3F89
:100BD0002CE5120709F477C0C0F404319CE519072D
:100BE00009F4C6C008F4B0C00531FCE51F0709F0E0
:100BF000DDC08091380382FB222720F991E0922703
:100C000090FB82F990FB83F954C00D3F2CE512074D
:100C100009F485C008F45AC00E3F9CE5190709F491
:100C200081C00F3FECE51E0709F0C0C08091390379
:100C3000826060C00236FDE51F0709F4ABC070F4A6
:100C400002308DE5180709F49FC008F487C003300F
:100C5000EDE51E0709F0AAC060E097C00E3AFDE579
:100C60001F0701F160F4063A8DE5180709F09EC0F0
:100C700080913803982F909590FB80F91AC00F3A15
:100C80009DE51907E9F1003BEDE51E0709F08EC06F
:100C90008091390383FB222720F991E0922790FB72
:100CA00083F982C08091390388607EC080913803C7
:100CB0008260809338037AC08091380319C0809194
:100CC00038038860F6CF8091390314C080913903CE
:100CD00082606AC0809138038062EBCF80913803D4
:100CE0008064E7CF0E945D25809138038068E1CF62
:100CF0008460DFCF816058C0809138038E7FD9CF68
:100D000080913903877F50C0809138038D7FD1CF88
:100D1000809138031CC080913803877FCACF8091AF
:100D200039031AC0809139038D7F3EC0809138030A
:100D30008F7EBFCF809138038F7DBBCF0E945D2512
:100D4000809138038F77B5CF80913803877F8B7F71
:100D5000B0CF809139038D7F8E7F26C0809139037B
:100D6000982F909591708E7F892B90FB81F91CC0F4
:100D70000E945D258091380387FB222720F991E0AE
:100D8000922790FB87F995CF61E08EE090E00E947A
:100D900079270CC08091380384FB222720F991E049
:100DA000922790FB84F985CF8093390360913803B3
:100DB0001091390384E090E00E947927612F82E24C
:100DC00090E00E9479270E945D253DC00631FCE538
:100DD0001F0709F04AC0809128028A7A91E009F43D
:100DE00090E090939C01882311F065E301C069E2D3
:100DF0008DE991E00E9488210EC00631FCE51F07B5
:100E000069F480919C01882309F448C065E38DE969
:100E100091E00E9460210E941C0E15C08091280262
:100E200082720A3CFCE51F0709F4AAC0C8F10E3C17
:100E3000FCE51F0709F4B5C008F450C0073DFCE508
:100E40001F0708F057C080910702877009F4C5C3D7
:100E5000F7018281882309F4C0C38091390382FF9E
:100E6000BCC382E00E94710EB8C3C80189509D4581
:100E7000809708F054C30950E02FE695E695E69573
:100E8000F0E0ED54FD4F077081E090E0002E01C0CE
:100E9000880F0A94EAF79081892B38C369E2B7CFAB
:100EA000063C9CE5190709F45CC060F4043CFCE5D1
:100EB0001F0709F44CC008F04FC0033C8CE518072D
:100EC00009F174C0083C9CE5190709F44FC008F00B
:100ED00052C04AEE57E160EE77E160C00C3C9CE501
:100EE000190709F452C008F055C049EB57E16CEA04
:100EF00077E154C00E352DE5120709F057C00E9466
:100F0000751AA1CF8091930280FF1BC08E7F8093C2
:100F10009302609193027091940280919502909156
:100F200096020E944316109262028FEF90E7E2E071
:100F300081509040E040E1F700C000000E94171788
:100F400082CF81608093930261E086952CC04FE24E
:100F500058E169E378E122C049E358E16FE278E1C2
:100F60001DC040EE57E16AEE77E118C046EC57E14C
:100F700063ED77E113C043ED57E166EC77E10EC016
:100F80004CEA57E169EB77E109C046E556E168E6CE
:100F900076E104C048E656E166E576E10E94462423
:100FA00052CF61E081E00E94F4174DCFC801895013
:100FB0009D45809708F497C2F70186819781009735
:100FC000B9F4F701828100811181882349F0C801B9
:100FD0000E946924D82E682FC8010E94CB2404C027
:100FE000C8010E94AA24D82EB8018D2D0E94E50BBD
:100FF0000E94FA0B8C01F701D280A580A2949FE099
:10100000A922809107028770B9F0DD20A9F0812F15
:10101000807F803421F080E2800F883068F08091FA
:10102000390382FF09C082E00E94710E809107029D
:101030008770CC24C3948111C12CB12EB2948FE05F
:10104000B8228B2D90E08C30910508F02AC2FC016B
:10105000EA5AFF4F0C94F529812F807F1F70882357
:1010600011F01295107FDD20B9F0112309F407C2A9
:1010700080E2800F883010F0011106C090912802A4
:10108000192B1093280205C09091BB02192B1093C5
:10109000BB020E941C0EF3C1802F0E940126112367
:1010A00009F4FFC180E2800F883070F1002361F104
:1010B00010959091BB0219231093BB0228C0812F79
:1010C000807F1F70803211F01295107F002319F07D
:1010D0000130D9F149C08091390382FD1BC0DD2068
:1010E00069F0112339F090912802192B10932802EE
:1010F0000E941C0E80E00E943626D3C180E00E9430
:101100000126112309F4CDC1812F0E94150E0E94E2
:101110001C0EC7C1DD2081F080912902AA2051F068
:10112000F1E0AF1207C0182B181709F4BAC11093D9
:101130002902B7C1812B10C0AA2021F021E0A216FC
:1011400009F4AFC10E940F0E27C0DD2041F085E0F9
:101150008A1508F4A6C1812F0E94F725A2C194E048
:101160009A1508F49EC118C0DD2049F0AA2099F311
:10117000F701858180FF83C18F708583ECCFAA2022
:1011800059F0093309F08AC1FFEF27EE83E0F150EF
:1011900020408040E1F780C1812F0E94F02581C16D
:1011A000812F86958695837019F0813059F079C129
:1011B000DD2019F0C801937002C080E090E00E9429
:1011C000D32175C1DD2019F0C801937002C080E001
:1011D00090E00E94BD216BC1802FDD2019F00E949C
:1011E000F01902C00E9437198FE0800F8830C8F5CF
:1011F000082F81E090E09C01002E01C0220F0A948C
:10120000EAF786E0EEE4F2E0DE01179601900D9237
:101210008A95E1F786E0FE013796DE011D96019082
:101220000D928A95E1F79885DD2019F0892F822BA0
:1012300003C0822F809589238E8796E0FE013D961C
:10124000DE01119601900D929A95E1F78A8386E06E
:10125000FE013196AEE4B2E001900D928A95E1F77D
:1012600026C10E94181923C1812F837009F041C043
:10127000D1101BC1302F329536953770330F330F95
:10128000802F8F7090E0032E02C0880F991F0A9460
:10129000E2F704FF0BC04FE050E002C0440F551FBF
:1012A0003A95E2F79A012095309502C020E030E0AF
:1012B000169516951370123099F068F440912A0231
:1012C00050912B02113029F0822B932B84239523EC
:1012D00004C0842B952B822B932B0E941825E5C0EC
:1012E000822B932B20912A0230912B028227932765
:1012F000F4CFDD2019F0812F817001C086958823FD
:1013000009F4D3C0302F329536953770330F330F31
:10131000802F8F7090E0032E02C0880F991F0A94CF
:10132000E2F704FF0BC04FE050E002C0440F551F2E
:101330003A95E2F79A012095309502C020E030E01E
:10134000169516951370123079F0B8F4409130026A
:1013500050913102113029F0822B932B8423952355
:101360000EC0842B952B09C0822B932B2091300229
:10137000309131028227932702C0822B932B0E9447
:10138000ED2493C01F70DD2039F0812F0E940825C5
:10139000802F0E94F72589C0802F0E94F025812F81
:1013A0000E94F62482C0023F79F128F4003F41F008
:1013B000013F29F160C0033F71F1043FE1F05BC0E0
:1013C000DD20A1F094E09A1508F46BC01F7181E054
:1013D00090E0012E02C0880F991F0A94E2F7209135
:1013E0003002309131028227932723C0E5E0EA15CD
:1013F00008F457C0EBCF8091390382FD1DC0DD207A
:1014000029F0812F8F712AC0DD20D9F3812F8F71B0
:101410000E94F62446C0DD2051F01F7181E090E06B
:10142000012E02C0880F991F0A94E2F702C080E0E3
:1014300090E00E94ED2435C0DD2099F01F71812FCE
:101440000E9408258091390382FF07C0F8E01F9FA2
:10145000C0011124836080930702812F0E94082518
:1014600020C081E00E94710E21E02A15D0F482E0B4
:101470000E94710E16C0DD2021F0AA2011F2802FEB
:101480003ACEAA2019F2093349F48FEF97EEE3E040
:1014900081509040E040E1F700C00000802F0E94A2
:1014A000012688EF8B0D843010F40E94F721CC20A8
:1014B000A9F08091070280FD11C0F7011282859585
:1014C000859585950E940825C7010E94F9048091A1
:1014D00007028595859585950E94F62460E0C701F1
:1014E0000E94A5027AC00950E02FE695E695E695A0
:1014F000F0E0ED54FD4F077081E090E0002E01C058
:10150000880F0A94EAF780959081892380838091DF
:10151000B80282608093B8020E94CD2394CC0B3530
:101520002DE5120711F481E010C00C358DE5180788
:1015300078F00D35FDE51F0709F045C080913903AE
:1015400082FB882780F991E089270E948E0E34CD96
:1015500001159CE5190779F50E945D25FFEF24E34D
:101560008CE0F15020408040E1F700C0000081E0B5
:101570008093E00080E28093D8001092C900EFE1F0
:10158000FEE43197F1F700C0000087E090EBDC014A
:101590008093410390934203A0934303B093440389
:1015A0009CE088E10FB6F894A895809360000FBE88
:1015B00090936000FFCF0F3D1C4509F0FDCC0E94C9
:1015C000A70D0E94D5020D352DE5120710F480E01D
:1015D000BCCF083A1D45A9F3EFCC6296EAE00C9423
:1015E0001F2ACF93DF93D82FC92F892F90E0009720
:1015F00011F028E003C08D2F9C2F20E0AC0174E097
:10160000569547957A95E1F74115510511F02C5FF4
:10161000CA01AC0156954795569547954115510518
:1016200011F02E5FCA0196958795892B09F02F5FDF
:10163000213031F0223041F440E060E08FEF0DC006
:101640002093410240E007C080914102882339F095
:10165000109241024FEF6FEF80E00E9455178D2FDF
:101660009C2FDF91CF91089580E0089590913803E9
:1016700092FF0DC0282F2871283019F4877F8460CD
:1016800006C0282F2471243011F48B7F886093FFCB
:101690000DC0282F2871283119F4877E846106C077
:1016A000282F2471243111F48B7E88612091390315
:1016B00020FF0DC0382F3871383019F4877F8160D2
:1016C00006C0382F3171313011F48E7F886021FFD0
:1016D0000DC0282F2871283119F4877E816106C03A
:1016E000282F2171213111F48E7E886194FD877E2F
:1016F0000895209106029091C5012917B1F030E0BC
:10170000F90153E0EE0FFF1F5A95E1F7EA53FE4F40
:101710005181561306C05081581303C0528154138F
:1017200006C02F5F3F4F2770E8CF80E0089581E02B
:101730000895E8E6F1E060E771E030E041E02191F2
:101740002F3FA1F0A22FA295AF70B0E090968C91A0
:1017500090E02F7002C0959587952A95E2F780FD5D
:1017600002C0842F02C080E090E0382B440F6E1737
:101770007F0729F780912F02831759F030932F02AA
:1017800081E080932E020E942B2190932D02809362
:101790002C0280912E02811102C080E00895809178
:1017A0002C0290912D020E941C210597B0F380918C
:1017B0002F0290913602981721F08093360281E033
:1017C00001C080E010922E020895711110C068309F
:1017D00070F4E62FF0E098E0899FE00DF11D1124F0
:1017E000EE0FFF1FE852FF4F85919491089580E01E
:1017F00090E00895CF93DF938238910569F1B0F4BA
:101800008133910509F477C048F48932910509F4D0
:1018100069C08A32910509F473C092C0853391057D
:1018200009F45BC089339105B9F08AC0833E910504
:1018300091F138F4803E9105D1F0823E910531F16D
:101840007FC0863E9105D9F1873E9105E9F1843E3E
:10185000910509F075C028C02091380320FD5BC0B8
:1018600021FD59C02091390323FD61C069C08091D9
:10187000380380FD4AC08091390380FF4CC08091BD
:10188000380384FD4EC183EE90E04DC18091380352
:1018900082FF3EC0F4CF8091380382FD39C0809131
:1018A000390380FD38C0EBCF8091390381FF39C007
:1018B0008091380384FD35C187EE90E034C180917A
:1018C000380383FF2BC0F4CF8091380383FD26C0FB
:1018D0008091390381FD25C0EBCF8091380385FDD0
:1018E00026C022C08091380385FD1EC08091390337
:1018F00083FF1DC00AC08091380386FD1BC01DC038
:101900008091380386FD19C015C089E390E00BC1B2
:1019100082EE90E008C180EE90E005C186EE90E096
:1019200002C184EE90E0FFC085E390E0FCC089E254
:1019300090E0F9C08AE290E0F6C081E390E0F3C065
:10194000811531E5930708F061C0811520E5920704
:10195000B0F09C012370332741E050E002C0440FF7
:10196000551F2A95E2F7282F2695269580E2289F75
:1019700090011124CA01822B932B9D68D4C0883E0C
:10198000910568F5803E910508F0CDC0883A910533
:10199000B8F4853A910548F0855AE82FF0E0E95C03
:1019A000FE4F808190E09064BEC08130910509F4C3
:1019B000B5C008F4B6C08430910508F4B2C0B3C015
:1019C0008F3B910508F0ADC0885AE82FF0E0EE0F8C
:1019D000FF1FE65CFE4F808191819464A4C0811555
:1019E00030E2930758F4811521E0920708F09BC07C
:1019F0008D3E910508F495C0906595C0811530E441
:101A0000930708F48EC09F70906A8DC0811525E5FC
:101A1000920708F042C0811534E5930728F0982F0B
:101A20008827846F906A7FC0811523E59207B0F004
:101A30009C012370332741E050E002C0440F551F42
:101A40002A95E2F7282F2695269580E2289F900177
:101A50001124CA01822B932B9A6865C0811532E547
:101A6000930728F4982F8827816F906A5CC09C01A7
:101A70002370332741E050E002C0440F551F2A95E0
:101A8000E2F7282F2695269580E2289F90011124C1
:101A9000CA01822B932B9C6846C0EC01C11589E5D5
:101AA000D807B0F4C11528E5D20728F09C2F882765
:101AB000806F906A38C0C11536E5D30790F58C2F3A
:101AC0000E94360B8F7190E0982F882790622BC070
:101AD000C1158AE5D80790F48C2F8F700E94360BC1
:101AE00094E0D695C7959A95E1F7CF70D0E0DC2FBA
:101AF000CC27D0699E01282BC90115C0CE01905674
:101B00008115904270F48D2F8F710E94360B282F13
:101B10002F71CE0199279062922B05C081E090E051
:101B200002C080E090E0DF91CF910895CF9384E0F0
:101B300090E00E946527C82F82E290E00E9465270E
:101B40002C2F30E0A901582BCA01CF91089568EEDF
:101B50007EEF80E090E00E94972760E082E090E0D6
:101B60000E94792760E083E090E00E94792710923C
:101B70002B0210922A0260E084E090E00E94792714
:101B800064E082E290E00E94792760E085E090E0E6
:101B90000E94792760E086E090E00E9479276FEF4D
:101BA00087E090E00E94792740E050E0BA0188E0A9
:101BB00090E00E948B2760E08DE090E00E94792702
:101BC00040E050E0BA0188E190E00E948B2760E09D
:101BD00087E190E00E94792740E050E0BA018CE173
:101BE00090E00E948B2760E070E080E290E00E942D
:101BF000972740E050E0BA0188E190E00E948B27EF
:101C000040E050E0BA018FE090E00E948B2740E076
:101C100050E0BA0183E190E00E948B270895809103
:101C2000290281111092290208958095909128022D
:101C30008923809328020895909128028091BB0205
:101C4000982B90939D01809129028823D9F0892BAC
:101C500080939D0180911101882331F08091380398
:101C600087FF02C08EE101C086E0EFE9F1E090E07D
:101C7000815028F021912223D9F39F5FF9CF911150
:101C80000E940F0E40E250E068E072E08DE991E0C2
:101C90000E943F2A892B21F180E2EDE9F1E0A8E0E2
:101CA000B2E001900D928A95E1F7E0912F03F09157
:101CB00030033097A9F080911101882359F0809169
:101CC000380387FF07C080919D0180939E0186E0C5
:101CD00080939D010280F381E02D8DE991E00995CB
:101CE0000895209107028095822380930702982F00
:101CF000977099F430E0482F082E000C550B2417EC
:101D0000350759F09091390392FF07C08595859565
:101D100085950E94F624109207020895CF93C091F2
:101D20003903C2FB992790F9981791F080FBC2F90B
:101D3000C09339036091380384E090E00E947927D2
:101D40006C2F82E290E00E94792782E00E94710E5F
:101D5000CF910895809106029091C501891719F0DD
:101D60008F5F8770FBCF08951F93CF93DF93809190
:101D7000C20182958F7009F05AC08091BF018823FB
:101D800009F455C0809106021091C5016091BD0112
:101D90007091BE01C091C001D091C10191E06F3F2F
:101DA00009F090E0292F811709F441C0209721F014
:101DB0007F3F21F030E003C031E001C0322F90E0DE
:101DC00030FD32C0FC0133E0EE0FFF1F3A95E1F722
:101DD000DF01AA53BE4F11963C911197371324C0CF
:101DE0003C91361321C012963C91129731111CC0C0
:101DF00013964D915C9114974C1B5D0B443B510520
:101E000098F48091C2018F7080618093C201E55384
:101E1000FE4F80818F70806180838DEB91E00E9406
:101E2000F9040E94AA0E03C001968770BCCFDF910F
:101E3000CF911F910895A5E1B0E0E1E2FFE00C949D
:101E4000012A8C0185E0F801DE01519601900D9286
:101E50008A95E1F7D8011296EC909091BD012091FE
:101E6000BE014091C0015091C1014115510531F0B1
:101E70002F3F31F481E09F3F19F403C081E001C09E
:101E800080E080FD85C1F801D080C180A380B4804E
:101E90008DEB882E81E0982EF090BF01B501641B78
:101EA000750BFF2009F426C18091C201382F307FC5
:101EB000643B710508F0E0C0311192C02C111BC0C9
:101EC0009D1119C04091C3015091C40126813781F1
:101ED0004217530781F4FE2CE1100DC08F70806112
:101EE0008093C201C4010E94F9048091C201D8010B
:101EF00015968C9367C1A114B10439F0BFEFCB12D2
:101F000006C081E0DB1203C003C081E001C080E0B5
:101F100080FD03C081E08E2502C080E090E080FF5C
:101F200010C04E2D6C2D8D2D0E94790B882349F009
:101F30008DEB91E00E94F904EDEBF1E088E0DF0128
:101F4000A3C0A114B10439F0BFEFCB1206C081E0E9
:101F5000DB1203C003C081E001C080E080FD03C04C
:101F600081E08E2502C080E090E0E82FE170BE2E77
:101F700080FF2CC04E2D6C2D8D2D0E94790BF82EDC
:101F8000811124C0D98ACA8A89899A890E949D248C
:101F9000292F22952F70223018F0243090F405C09C
:101FA0009F7059F0811109C00DC19F7031F0D801A7
:101FB00015969C91907F09F405C1805E883008F4E5
:101FC00001C1C8010E94F904FB2CFCC0FE2CEE20CC
:101FD00009F4F8C08091C20181608093C20157C0AA
:101FE0002C110FC09D110DC04091C3015091C4012F
:101FF000F801268137814217530719F4EE2009F4BE
:10200000A6C0C8010E941F25882381F1EE2071F12E
:102010002091C201822F82958F7090E00297A4F0E8
:102020008091BD019091BE019A8789871B86BD86EC
:10203000AC862E878091C3019091C401988B8F87C5
:10204000CE0109960E94F90488E0F801ADEBB1E0F9
:1020500001900D928A95E1F70E94B40E0AC02C15EA
:10206000C1F0C8010E941F25811126C0C8010E942D
:10207000F904FF24F394A6C03111F1CF8DEB91E068
:102080000E94F90488E0D4011D928A95E9F7F12CA9
:1020900099C09D11E6CF4091C3015091C401F80150
:1020A0002681378142175307E1F6E110DACF8583A5
:1020B000C8010E94F90466C0EE20C1F22091C2015D
:1020C000822F82958F7090E002970CF4BDCF8091A3
:1020D000BD019091BE019A8389831B82BD82AC822F
:1020E0002E838091C3019091C40198878F83CE0184
:1020F0000196A8CF643B710508F044C0FE2CEE2089
:1021000009F4B4CF2C1130C09D112EC02091C30111
:102110003091C401F801868197812817390721F58C
:102120009091C20190FD17C0892F82958F70282F42
:1021300030E02115310579F095832F30310541F0DC
:102140008F5F982F9295907F85818F70892B8583E3
:10215000C8010E94F90488E0F801ADEBB1E00190FC
:102160000D928A95E1F72EC0C8010E941F258111AA
:102170006BCF8091C20181608093C201C8010E942F
:10218000F90420C088E0D4011D928A95E9F71AC0AD
:10219000EE2009F46BCFC8010E941F25F82E88237A
:1021A00009F464CF88E0F801ADEBB1E001900D9245
:1021B0008A95E1F78091BD019091BE010E949D2416
:1021C0000E94B40E8F2D6596ECE00C941D2AA7E1B9
:1021D000B0E0EDEEF0E10C94FB2985B7806885BF97
:1021E00085B7806885BF84B7877F84BF0FB6F894B2
:1021F000A8958091600088618093600010926000D3
:102200000FBE90E080E80FB6F89480936100909341
:1022100061000FBE84E39BE090939B0180939A0141
:102220000E948D1D0E94AC1D8091E200846080930D
:10223000E2007894809189028823A1F01091E9004E
:102240001F709091EC00892F817090FD80E8182B11
:102250001092E9008091E80083FD0E94861A1F70A9
:102260001093E90082E084BD93E095BD9AEF97BD9D
:1022700080936E00A8E6B1E041E050E08D918F3F81
:1022800029F421E0A037B207C9F715C0E82FE2957D
:10229000EF70F0E021A18F70BA0102C0660F771FC6
:1022A0008A95E2F7CB01962F9095922391A392A164
:1022B000892B82A3E6CF1092360210922F0280E083
:1022C00090E00E947327883E9E4F11F00E94A70D58
:1022D00082E090E00E946527809337020E94960D6D
:1022E000909339038093380383E090E00E94652740
:1022F00090E00E94182580913002909131020E9456
:10230000F10A80913202811136C080E090E00E9493
:102310007327883E9E4F21F00E94A70D0E947A16D7
:1023200088E090E00E946D2760939302709394027E
:1023300080939502909396026E7F71F40E947A16B4
:1023400088E090E00E946D2760939302709394025E
:1023500080939502909396020E9429161092620231
:102360008091930280FF04C060E086950E94F4177C
:1023700081E0809332020E94381584E091E09093CE
:10238000300380932F0380918902853009F08DC03E
:10239000FF24F39400E112E180918902853009F075
:1023A00069C080918902843009F442C010926202AF
:1023B00080915A02811116C0F0925A0280919302C4
:1023C000982F9170909333028E7F80939302FFEF4A
:1023D00020E732E0F15020403040E1F700C000003B
:1023E0000E9417170E9444181092330348E150E0EE
:1023F00060E40FB6F894A895409360000FBE609318
:10240000600083B7817F846083BF83B7816083BFAF
:102410007894889583B78E7F83BF0FB6F894A8957C
:1024200080916000886180936000109260000FBE10
:1024300080918802882309F4AFCF0E94990B809184
:102440003602882309F4A8CF09BD19BD09B400FEDE
:10245000FDCF8091D8008F7D8093D8008091E000DF
:1024600082608093E0008091E00081FDFCCF0E94BB
:102470005D2592CF0E945D250E94F72110925A029D
:1024800080913302882351F0809193028160809380
:10249000930260E086950E94F41705C08091630264
:1024A00081110E9417170E9413160E94990BE09049
:1024B0003602F0903802FE2401F50E942B218C0197
:1024C00080913402909135020817190709F43FC032
:1024D0008FEF8F83888719860E942B218160782F48
:1024E0009B878A874F81588569858B850E94EB027F
:1024F00010933502009334022AC010E001E08F2DC2
:102500008023A1F01C871D8691E08E2D802309F485
:1025100090E09E870E942B218160782F988B8F8777
:102520004C855D856E8588890E94EB021F5F000FD8
:10253000183029F7E09238028FB7F89440913403AD
:102540005091350360913603709137038FBF8091AE
:102550003501882341F18091280390912903009748
:1025600011F10E941C212091B9023091BA02281762
:102570003907C8F49091260380912703981759F0E2
:102580000E9435231092BA021092B90210922903C8
:102590001092280308C00E94B422109229031092BE
:1025A00028030E94152380916202882309F444C005
:1025B00090916102809193028695891B80935D02C0
:1025C000923079F463E00E94B329E92FF0E0E85FEC
:1025D000FE4FE4910E2F10E028E7E22E2FE1F22EBD
:1025E00006C000ED17E092EEE92E9EE1F92E8091F3
:1025F0005E02882361F010925E020E942B2190936C
:102600005C0280935B021092600210925F020E9453
:102610002B21E0915B02F0915C028E1B9F0B8F3FA0
:102620009F4750F40E0F1F1F10935C0200935B0234
:102630008BE592E0F701099586E0E2E4F2E0DE0145
:10264000119601900D928A95E1F710924402109232
:10265000450210924602109247021B81111104C0DC
:102660008C81882309F452C080913F0290914002EE
:102670000E941C219C0190913B02992309F4EEC118
:102680002531310508F442C09F3F19F09F5F9093B8
:102690003B02112361F00E94D019111614F09FEF34
:1026A00001C091E0899F802D1124809344021C81F8
:1026B000112361F00E94D019111614F09FEF01C090
:1026C00091E0899F802D112480934502309144022E
:1026D0003323E1F0209145022223C1F045EB34037E
:1026E000C0011124992319F09093440203C081E0A2
:1026F0008093440255EB2503C0011124992319F05E
:102700009093450203C081E0809345021D81111121
:1027100004C08E81882309F452C080913D029091BB
:102720003E020E941C219C0190913A02992309F4D7
:102730009AC12135310508F442C09F3F19F09F5FCF
:1027400090933A02112361F00E94AE19111614F011
:102750009FEF01C091E0899F802D11248093460254
:102760001E81112361F00E94AE19111614F09FEF23
:1027700001C091E0899F802D112480934702309100
:1027800046023323E1F0209147022223C1F065EB9A
:102790003603C0011124992319F09093460203C017
:1027A00081E08093460275EB2703C0011124992331
:1027B00019F09093470203C081E08093470246E0FE
:1027C00050E0BE016F5F7F4F82E492E00E943F2A9B
:1027D000892BA9F48091440281110FC08091450298
:1027E00081110BC080914602811107C081E0909158
:1027F0004702911103C080E001C081E080FD0E948A
:10280000181986E0FE013196A2E4B2E001900D9223
:102810008A95E1F70E94441880E7E82E81E0F82EBF
:1028200083EB92E09B8B8A8BF701D180FFEFDF1661
:1028300009F4EEC08D2D0E9427249F8B8E8B0D2DC9
:1028400002950F7010E0F80122A18D2D8F7041E0EC
:1028500050E002C0440F551F8A95E2F7CA01742E5A
:102860007094922F972192A391A1892B81A355E374
:102870005A95F1F70000F701F081F98BFF3FD9F08D
:102880008F2F0E9427249D8B8C8BE989E295EF7016
:10289000F0E021A189898F7041E050E002C0440F2F
:1028A000551F8A95E2F7CA01922F982B91A392A106
:1028B000892B82A302C01D8A1C8AF701C280FFEF08
:1028C000CF16D9F08C2D0E9427241C01EC2DE29507
:1028D000EF70F0E021A18C2D8F7041E050E002C03C
:1028E000440F551F8A95E2F7CA01922F982B91A3A6
:1028F00092A18095892382A302C0212C312C55E31B
:102900005A95F1F70000F80181A1872181A382A1E6
:10291000782272A2F5E3FA95F1F700008D2D0E945E
:1029200004272C01F701858196814C01A12CB12C43
:10293000052C000C66087708481859086A087B08B7
:10294000A1E8BFEFA30192010E94DA27238134811D
:10295000890120E030E0A9019801281939094A09C4
:102960005B090E94AD271216130614061506A4F47F
:10297000AFE7B0E0A30192010E94CC27F7012781C5
:102980003085890120E030E0A90198012819390932
:102990004A095B090E94AD27DA01C90121383F4F7E
:1029A0004F4F5F4F24F481E89FEFAFEFBFEF8038C8
:1029B0009105A105B10524F08FE790E0A0E0B0E01B
:1029C000EA89FB8941815281052E000C660B770B49
:1029D00084179507A607B70739F092838183809102
:1029E000B80282608093B802F989FF3F29F06C89B0
:1029F0007D898F2F0E9403242FEFC21621F0B10191
:102A00008C2D0E9403246E897F898D2D0E940324C2
:102A100039E0E30EF11C4A895B894E5F5F4F5B8BA7
:102A20004A8B52E8E51651E0F50609F0FDCE0E940A
:102A3000CD230E94F72190913902891709F4A3CC84
:102A4000809339028FB7F894409134035091350345
:102A500060913603709137038FBF95CC2B303105D1
:102A600008F014CE53CE2B30310508F068CEA7CE37
:102A700086EF0E940427909359028093580285EFB5
:102A80000E94042790935702809356020895A0E075
:102A9000B0E0EDE4F5E10C94052A8B010E940427D7
:102AA0000817190709F474C08017910728F4B801B2
:102AB000681B790BCFEF0AC0BC01601B710B8FEF55
:102AC00093E09C01201B310B8901C1E0072E000C13
:102AD000880B990B0E94BA286B017C01B801012E6A
:102AE000000C880B990B0E94BA289B01AC01C7010E
:102AF000B6010E94102820E030E048EC52E40E9429
:102B000046290E94822877FD43C0653671052CF066
:102B100034E6C302E00111240AC02C2FCC0F330B82
:102B2000269FE001279FD00D369FD00D11242097BE
:102B300079F1BE010D2E000C880B990B0E94BA286A
:102B400020E030E048EC52E40E94102820E030E021
:102B500040EA50E40E9446296B017C01CE01D7FF78
:102B600003C09195819591096EE170E00E94E12981
:102B7000072E000C880B990B0E94BA289B01AC0110
:102B8000C701B6010E9446290E948228862F01C0F3
:102B900080E0CDB7DEB7E8E00C94212AACE0B0E0ED
:102BA000E4EDF5E10C94092A4F838B879C87152F60
:102BB00080915402909155020E941C210B97C0F005
:102BC0000E942B21909355028093540260915802E9
:102BD0007091590245E086EF0E944715082F6091D9
:102BE00056027091570245E085EF0E94471502C0DA
:102BF00080E000E01E7F188709878A8786E0FE0153
:102C00003796DE01119601900D928A95E1F72981A0
:102C10003A814B815C816D817E8180E090E02C96D1
:102C2000E4E00C94252A60919302669570E041E0FF
:102C300050E080E191E00E94322A892B19F481E072
:102C4000809362020E942B2190935C0280935B022E
:102C5000089580919302282F269530E021153105A3
:102C600019F48170826005C02830310524F081702C
:102C70008E608093930280919602853B18F084EBDE
:102C8000809396020895CF92DF92EF92FF926B01AC
:102C90007C010E942916B701A60188E090E00E94FD
:102CA0008B27FF90EF90DF90CF900895809197024F
:102CB000882319F08150809397026091930270915C
:102CC000940280919502909196020E944316089575
:102CD00080919702833018F48F5F80939702609100
:102CE00093027091940280919502909196020E94B5
:102CF00043160895E3E9F2E083E0808311828FEFC9
:102D0000828384EB838314826081718182819381C9
:102D10000E9443160895A0E0B0E0E1E9F6E10C94CA
:102D2000032AE82EF62EE901E42FF0E0611106C037
:102D3000E55FFE4FE4914E2F2E2F71C0062F10E05D
:102D4000E55FFE4F4491F42FC42ED12C26E0829FE4
:102D5000C00111242FEF30E0B9010E94CD295BEAB8
:102D60005603C001579F900D11248E0D911D8E0D9D
:102D7000911D582F550F580FD901A01BB10BAC9DB9
:102D8000C001AD9D900DBC9D900D1124E92FF59EC5
:102D9000D0011124AB2FBB277901EA1AFB0AEC9C66
:102DA000D001ED9CB00DFC9CB00D11245901A51A69
:102DB000B108A09E7001A19EF00CB09EF00C1124F1
:102DC000EF2CFF242E193F092C9D80012D9D100D05
:102DD0003C9D100D1124212F6230710591F048F4B3
:102DE00061157105E1F061307105B9F4242F4B2FA5
:102DF00016C06430710569F040F06630710579F0F5
:102E00000CC0242F492FE12F0AC0492FEF2F2B2F61
:102E100006C0292FE42F412F02C0292FEB2F498311
:102E20002883EA83CDB7DEB7EAE00C941F2A8091AD
:102E3000930280FF0AC0539A8BB1877F9BB1986041
:102E40002FB7F894E8E9F2E013C0109299021092BB
:102E5000980210929A0210929C0210929B02109279
:102E60009D0210929F0210929E021092A002E3CF48
:102E700032E0E13AF30789F0319148E09BB9000074
:102E800000C037FF8BB9330F000000C000C000C086
:102E90008BB900C04A9591F7EBCF2FBF8FE594E037
:102EA0000197F1F700C0000008959091930290FF00
:102EB00014C0809399026093980240939A02809381
:102EC0009C0260939B0240939D0280939F026093BB
:102ED0009E024093A0020E9417170895A3E0B0E05D
:102EE000E4E7F7E10C94072A9091930290FF30C039
:102EF000E22E142F062FF82EE92FE695F0E0EE577C
:102F0000FE4F8081809361029E7F923079F4453B31
:102F100008F044EB9E012F5F3F4F602F8F2D0E94E2
:102F20008B164B8169818A810E945517F092940219
:102F30000093950210939602EE2051F06091930257
:102F40007091940280919502909196020E9443168E
:102F50002396E6E00C94232AE3E9F2E043812CE394
:102F6000421B08F440E021E0628181810E946E17DB
:102F70000895E3E9F2E043812CE3420F08F44FEFB8
:102F800021E0628181810E946E170895E3E9F2E0F9
:102F900062812AE0621B08F460E021E043818181C4
:102FA0000E946E170895E3E9F2E062812AE0620F61
:102FB00008F46FEF21E0438181810E946E1708952C
:102FC000E3E9F2E0818121E04381628185500E9442
:102FD0006E170895E3E9F2E0818121E04381628187
:102FE0008B5F0E946E1708959091930290FF36C0F8
:102FF0009170811102C0926006C0883010F09E600E
:1030000002C0880F982B90939302662351F0609131
:1030100093027091940280919502909196020E9481
:10302000431660919302669570E041E050E080E1C4
:1030300091E00E94322A892B19F01092620202C09C
:103040000E94131681E080935E0220E04091960278
:1030500060919502809194020E946E17089580916C
:1030600093028695815009F487E061E00E94F4178D
:1030700008958091930286958F5F883008F081E0F3
:1030800061E00E94F4170895A6E3B0E0EAE4F8E1F5
:103090000C940B2A40914E0250914F0260915002C5
:1030A0007091510280915202909153020E94CE156C
:1030B00020934E0230934F0240935002509351029E
:1030C000609352027093530286E0EEE4F2E0DE0178
:1030D000599601900D928A95E1F780915002819561
:1030E0008B8F96E0FE017996DE011D9601900D9280
:1030F0009A95E1F78F8796E0FE013D96DE015396A3
:1031000001900D929A95E1F78D8B96E0FE017396F2
:10311000AEE4B2E001900D929A95E1F796E0EEE40C
:10312000F2E0DE019B9601900D929A95E1F796E010
:10313000FE01BB96DE01179601900D929A95E1F77C
:103140002EA59FA538A940914102442359F06AE079
:103150000E94BF29382F822F66EF0E94BF29982F27
:1031600020E080E089872A879B873C8746E0FE0134
:103170003796DE01119601900D924A95E1F78B8307
:103180002C839D833E8346E0FE013196DE015F96EF
:1031900001900D924A95E1F789A32AA39BA33CA332
:1031A00046E0FE017F96DE01959601900D924A95CC
:1031B000E1F78FA328A799A73AA786E0FE01B59665
:1031C000AEE4B2E001900D928A95E1F786E0E2E488
:1031D000F2E0DE01D19601900D928A95E1F790918F
:1031E0004F028AA9892B80934F0246E050E068E4A1
:1031F00072E08EE492E00E943F2A892B21F08EE457
:1032000092E00E94E9211092500210925102109215
:1032100052021092530286E0EEE4F2E0A8E4B2E03B
:1032200001900D928A95E1F7E696E2E00C94272A48
:103230000E942B2120914402211104C020914502BB
:10324000222321F09093400280933F022091460276
:10325000211104C020914702222321F090933E02C5
:1032600080933D0282E492E00E94E92108958D3E20
:1032700039F49091450297FF35C01092450259C02C
:103280008E3E29F4909145021916BCF32BC0909103
:1032900044028F3E29F497FF25C01092440249C092
:1032A000803F19F41916CCF31DC090914602893F56
:1032B00029F41916BCF4109246023BC08A3F19F457
:1032C00097FF10C0F8CF8B3F39F49091470297FFDA
:1032D00009C0109247022DC08C3F21F49091470203
:1032E0001916BCF39FE0980F983080F421E030E08D
:1032F000A90102C0440F551F9A95E2F7CA018095B3
:103300009091430289238093430213C08D3F21F49F
:1033100080913C028E7F0BC08E3F21F480913C0255
:103320008D7F05C08F3F29F480913C028B7F809375
:103330003C0280914402811106C0809145028111B6
:1033400002C010923B0280914602811106C080911A
:103350004702811102C010923A02089580913C0206
:1033600080FD16C081FD16C082FD18C080913A0212
:10337000882391F0883290F428E0829FC0011124C4
:1033800068E270E00E94E129862F672B29F007C0D0
:1033900082E0089584E0089581E0089588E008952A
:1033A00080913C0280FD14C081FD14C082FD16C0D6
:1033B00080913B02882381F08E3180F420E5829F4A
:1033C000C00111246EE170E00E94E129862F08956A
:1033D00084E1089588E2089588E0089580E50895DD
:1033E0008D3E21F40E94D019819504C08E3E29F4AF
:1033F0000E94D0198093450208958F3E21F40E94C7
:10340000D019819504C0803F29F40E94D01980937F
:1034100044020895893F19F40E94AE1905C08A3FFD
:1034200031F40E94AE1981958093460208958B3F36
:1034300021F40E94AE19819504C08C3F29F40E94AA
:10344000AE198093470208959FE0980F983078F462
:1034500021E030E0A90102C0440F551F9A95E2F720
:10346000CA0190914302892B8093430208958D3FB6
:1034700021F480913C0281600BC08E3F21F4809149
:103480003C02826005C08F3F29F480913C02846039
:1034900080933C020895EF92FF920F931F93CF9376
:1034A000DF937C018B010E941120811119C0E7017B
:1034B00001151105A1F08091E80085FD0AC08091F9
:1034C000E8008E778093E8000E941120882381F322
:1034D00007C089918093F10001501109E9CF80E084
:1034E000CDB7DEB7E6E00C94232A8091930280FFEB
:1034F00008C0869582588F77853018F40E94391855
:10350000089561E082E00E94F4170895AAE2B0E015
:10351000ECE8FAE10C940A2AEBE8F2E083E992E0A5
:103520002091F10021938E179F07D1F780918C0293
:10353000833009F461C030F4813071F0823009F4D5
:103540009BC0B2C08A3009F487C08B3009F46CC0CC
:10355000893009F0A9C020C080918B02813A09F01E
:10356000A3C08091E800877F8093E80080918F025C
:1035700090919002892B21F460E287E692E003C0EB
:1035800060E080E090E070E00E9498208091E80088
:103590008B778093E80088C080918B02813209F09C
:1035A00083C080918F0290919002029708F07CC0B6
:1035B0008091E800877F8093E8008091E80082FD99
:1035C00005C0809189028111F8CF6EC02091F3006F
:1035D0008091F20090E0922B029731F48091F100FB
:1035E000813011F0863021F48091F10080936602E1
:1035F0008091E8008B7754C080918B02813A09F06A
:1036000053C080918F0290919002892B09F04CC099
:103610008091E800877F8093E8008091E80080FF38
:10362000FCCF8091110137C080918B028132E1F58E
:1036300080918F0290919002892BB1F58091E800E2
:10364000877F8093E8000E94442080918D028093C0
:1036500011010E945D2528C080918B02813221F5E5
:103660008091E800877F8093E8000E944420809149
:103670008E028093650218C080918B02813AA1F47A
:103680008091E800877F8093E8008091E80080FFC8
:10369000FCCF809165028093F1008091E8008E77E5
:1036A0008093E8000E9444208091E80083FFD9C104
:1036B00080918B0290918C02492F50E04A30510545
:1036C00008F0CFC1FA01EE59FF4F0C94F52980386C
:1036D00021F0823809F0C5C108C08091870290911D
:1036E0008802992389F082600FC080918F028F70C9
:1036F000873008F0B6C18093E9008091EB0085FB2C
:10370000882780F91092E9009091E800977F9093C4
:10371000E8008093F1001092F1006FC1282F2D7FF7
:1037200009F09FC1882319F0823061F09AC180911D
:103730008D02813009F095C1933009F080E08093CB
:1037400088022EC080918D0281112AC080918F0243
:103750008F702FEF280F263008F083C18093E90087
:103760002091EB0020FF1CC0933021F48091EB00EE
:10377000806214C09091EB0090619093EB0021E087
:1037800030E0A90102C0440F551F8A95E2F740932B
:10379000EA001092EA008091EB0088608093EB00D1
:1037A0001092E9008091E800877F8093E8000E94F2
:1037B000442057C1811155C110918D021F7780910E
:1037C000E3008078812B8093E3008091E800877F7D
:1037D0008093E8000E9444208091E80080FFFCCFA5
:1037E0008091E30080688093E300111102C082E0C1
:1037F00001C083E08093890234C18058823008F090
:1038000030C120918D0230918E022C3D53E035075E
:1038100079F583E08A838AE289834FB7F894DE01E1
:10382000139620E03EE051E2E32FF0E05093570082
:10383000E49120FF03C0E295EF703F5FEF708E2FA1
:1038400090E0EA3010F0C79601C0C0968D939D932A
:103850002F5F243149F74FBF8091E800877F809325
:10386000E8006AE270E0CE0101960E949820B4C0A0
:1038700080918F0290919002432F5527433051053C
:10388000A9F068F44130510509F4FAC042305105FD
:1038900009F0E7C084E590E0E1E3F3E04BC041329A
:1038A000510529F14232510589F1DBC0C90199273F
:1038B00081309105A1F058F0029709F0D2C0E7E9F4
:1038C000F3E0E4918E2F90E0E7E9F3E030C0EFEA17
:1038D000F3E0E4918E2F90E0EFEAF3E028C0E1EA14
:1038E000F3E0E4918E2F90E0E1EAF3E020C0833032
:1038F000910508F0B6C0880F991FFC01ED56FE4FE8
:103900000190F081E02D89E090E014C083309105B2
:1039100008F0A7C0FC01EE0FFF1FE357FE4F019018
:10392000F081E02DDC01A657BE4F8C9190E000970E
:1039300009F497C02091E800277F2093E8002091A8
:103940009102309192022817390708F4C90140E02A
:10395000009789F120918902222309F43DC0253086
:10396000D9F12091E80023FD37C02091E80022FD25
:103970002FC02091E80020FFEBCF4091F300209171
:10398000F20030E0342B009759F02830310540F434
:1039900044914093F100319601972F5F3F4FF3CF51
:1039A00041E02830310509F040E02091E8002E7711
:1039B0002093E800CDCF4111CDCF0AC0809189027C
:1039C000882351F0853041F08091E80083FD04C0E8
:1039D0008091E80082FFF2CF8091E8008B7780939E
:1039E000E8003FC08038E9F58091E800877F809348
:1039F000E80080918A028093F1008091E8008E7740
:103A0000D4CE81112EC080918D0290918E02992783
:103A100002973CF58091E800877F8093E800109141
:103A20008D0210938A020E944420111106C08091D9
:103A3000E30087FD02C081E001C084E08093890239
:103A400042E061EC81E00E94632042E261EC82E0AE
:103A50000E94632042E061EC83E00E946320809139
:103A600089028091E80083FF10C08091E800877F81
:103A70008093E8008091EB0080628093EB0005C0AA
:103A800082E190E0E5E8F3E055CFAA96E3E00C94FC
:103A9000262A1F920F920FB60F9211242F933F9355
:103AA0004F935F936F937F938F939F93AF93BF9346
:103AB000CF93DF93EF93FF93C091E900CF70809194
:103AC000EC00D82FD17080FDD0E81092E9008091F1
:103AD000F000877F8093F00078940E94861A1092FD
:103AE000E9008091F00088608093F000CD2BCF70CA
:103AF000C093E900FF91EF91DF91CF91BF91AF911A
:103B00009F918F917F916F915F914F913F912F91F5
:103B10000F900FBE0F901F901895E8EDF0E0808198
:103B20008E7F80831092E2001092DA001092E10002
:103B3000A0EEB0E08C9181608C9380818F77808340
:103B400019BCA7EDB0E08C918E7F8C9380818F7E25
:103B50008083109264020895A0E0B0E0E2EBFDE102
:103B60000C94052AC8EDD0E088818F7E8883E7ED2C
:103B7000F0E080818160808384E082BF81E0809377
:103B8000640288818E7F888302EE10E0F801108243
:103B90001092DA0081EEC82ED12CF60110828881B5
:103BA0008F77888388818068888388818F7D8883E8
:103BB00019BC1092890210928A0210928802109207
:103BC000870290EEE92EF12CF70180818B7F8083B4
:103BD00088818160888342E060E080E00E94632009
:103BE000F60180818E7F8083F801808181608083EF
:103BF000808188608083F70180818E7F80838881C7
:103C000080618883CDB7DEB7E8E00C94212A1F924B
:103C10000F920FB60F9211242F933F934F935F9300
:103C20006F937F938F939F93AF93BF93EF93FF9384
:103C30008091E10082FF09C08091E20082FF05C00F
:103C40008091E1008B7F8093E1008091DA0080FF1A
:103C50002AC08091D80080FF26C08091DA008E7F34
:103C60008093DA008091D90080FF18C080E189BD7F
:103C700082E189BD09B400FEFDCF81E08093890215
:103C80008091640281110FC00E948D1D0E94AC1DA5
:103C90008091E20084608093E20005C019BC10921C
:103CA0008902109264028091E10080FF17C0809128
:103CB000E20080FF13C08091E2008E7F8093E200DB
:103CC0008091E20080618093E2008091D800806260
:103CD0008093D80019BC85E0809389028091E1002F
:103CE00084FF30C08091E20084FF2CC080E189BD58
:103CF00082E189BD09B400FEFDCF8091D8008F7D9F
:103D00008093D8008091E1008F7E8093E1008091C4
:103D1000E2008F7E8093E2008091E20081608093D8
:103D2000E20080918A02882311F084E007C080912C
:103D3000E30087FD02C081E001C083E08093890237
:103D4000809189028091E10083FF27C08091E20089
:103D500083FF23C08091E100877F8093E10082E0B0
:103D60008093890210928A028091E1008E7F809375
:103D7000E1008091E2008E7F8093E2008091E2007A
:103D800080618093E20042E060E080E00E94632076
:103D90008091F00088608093F000FF91EF91BF91D7
:103DA000AF919F918F917F916F915F914F913F91D3
:103DB0002F910F900FBE0F901F901895089580912E
:103DC00066020895089580933A0370933C036093CC
:103DD0003B0380918902843001F582E08093E90001
:103DE0008FEF9091E800815095FD06C095ED9A9572
:103DF000F1F700008111F5CF8091E80085FF0DC03B
:103E000040E050E063E070E08AE393E00E944B1AE8
:103E10008091E8008E778093E8000895BC0184E0EB
:103E20000E94E31E0895BC0183E00E94E31E0895F2
:103E300022E02093E9002FEF3091E800215035FD7A
:103E400006C035ED3A95F1F700002111F5CF20912C
:103E5000E80025FF0BC040E050E066E070E00E9403
:103E60004B1A8091E8008E778093E8000895CF93F5
:103E7000DF9320911101222339F02091380327FF8D
:103E800003C060E222E002C068E021E02093E90084
:103E90002FEF3091E800215035FD06C035ED3A9501
:103EA000F1F700002111F5CF2091E80025FF1DC09A
:103EB000EC0180911101811105C040E050E068E003
:103EC00070E003C070E040E050E0CE010E944B1A69
:103ED0008091E8008E778093E80080E2FE01A7E6FB
:103EE000B2E001900D928A95E1F7DF91CF910895AC
:103EF000A0E0B0E0EEE7FFE10C94022AFC01A28012
:103F0000948081E08483E5EDF3E0B490E4E5F4E0AF
:103F1000E491C1EAD2E0F8E9EF2EF2E0FF2ECC24E2
:103F2000CA94D12CEB190E2F10E022E02A1530F0A4
:103F3000809194028883809195028983911003C0B7
:103F40001B821A8255C08B818823F9F081508B83A4
:103F50002FEF829FC00111246C8170E00E94CD2957
:103F6000FB01FF27EB52FC4F8491E82FEB192FEF59
:103F7000E29FC0011124B8010E94CD2980919602D0
:103F8000689FB00111247A8333C00E945527209185
:103F900096022695215830E0A901440F551F322F73
:103FA0002227240F351F232F33278217930704F569
:103FB00082E08A1588F40E945527B6010E94E12903
:103FC00088830E945527209195022695622F70E0E4
:103FD0000E94E129280F29831A8280919602843158
:103FE00020F0893C18F088EC01C084E18C838B833D
:103FF0004A81453B08F044EB9701698188810E9422
:104000008B16259623E0E20EF11C82E0C03BD80718
:1040100009F08BCF0E941717CDB7DEB7EBE00C94F9
:104020001E2A2091E4003091E50095E64091EC00D5
:10403000842F817040FF23C08091E80080FD1DC067
:1040400080918902882399F0853099F08091EB0066
:1040500085FD11C04091E4005091E500241735071B
:1040600029F3915011F09A01E1CF84E0089582E0A4
:10407000089583E0089581E0089580E008954091D7
:10408000E80042FFDDCF089580918B0287FF11C0C9
:104090008091E80082FD05C0809189028111F8CFEE
:1040A00011C08091E8008B770BC080918902882332
:1040B00049F08091E80080FFF8CF8091E8008E778A
:1040C0008093E8000895982F973068F59093E90061
:1040D000981739F07091EC002091ED005091F000AC
:1040E00003C0242F762F50E021FD02C09F5FECCF4C
:1040F0003091EB003E7F3093EB003091ED003D7F3F
:104100003093ED003091EB0031603093EB00709311
:10411000EC002093ED005093F0002091EE0027FD7D
:10412000E5CF80E008958F708093E90081E00895E5
:1041300020919102309192022617370748F06115BD
:10414000710539F42091E8002E772093E80001C032
:10415000B901FC0120E06115710579F180918902B6
:104160008823F1F18530F1F18091E80083FD3CC0B6
:104170008091E80082FD2EC08091E80080FFEBCFA7
:104180002091F3008091F20090E0922B611571056F
:1041900051F08830910538F421912093F10061505D
:1041A00071090196F3CF21E0089709F020E0809192
:1041B000E8008E778093E800CECF2111CFCF0AC0E0
:1041C00080918902882361F0853061F08091E80058
:1041D00083FD0AC08091E80082FFF2CF80E008955D
:1041E00082E0089583E0089581E0089578941F9215
:1041F0000F920FB60F9211248F939F93AF93BF939B
:104200008091340390913503A0913603B091370328
:104210000196A11DB11D8093340390933503A093A3
:104220003603B0933703BF91AF919F918F910F9059
:104230000FBE0F901F9018959C014FB7F894809176
:10424000340390913503A0913603B09137034FBFEB
:10425000821B930B08952FB7F894809134039091AB
:104260003503A0913603B09137032FBF08951F92F5
:104270000F920FB60F9211248F939F93AF93BF931A
:1042800080913303811113C08091340390913503E1
:10429000A0913603B09137034196A11DB11D8093C3
:1042A000340390933503A0933603B0933703BF9143
:1042B000AF919F918F910F900FBE0F901F90189507
:1042C000209111012223C9F02091380327FF15C046
:1042D000262F2695269526952E31C8F4FC01E20F4F
:1042E000F11D677081E090E001C0880F6A95EAF7E0
:1042F00080959281892382830895FC01069622810C
:10430000621301C012823196E817F907C1F70895C8
:10431000209111012223C1F02091380327FF14C0FE
:10432000262F2695269526952E3130F5FC01E20F95
:10433000F11D677081E090E001C0880F6A95EAF78F
:104340009281892B82830895FC0132962FEF30E011
:104350004191641789F02F3F19F4411101C0232FB7
:104360003F5F3630A9F72F3F39F0FC01E20FF11D16
:1043700027FDFA95628308950895209131033091C5
:1043800032032817390771F0909332038093310379
:10439000E0912F03F0913003309721F00084F185F4
:1043A000E02D0995089520912D0330912E032817B3
:1043B000390771F090932E0380932D03E0912F0322
:1043C000F0913003309721F00680F781E02D0995B8
:1043D0000895E0912F03F0913003309739F022E0F7
:1043E000DC012C930480F581E02D09950895E0917E
:1043F0002F03F0913003309729F00190F081E02DE8
:104400000995089580E00895EF92FF920F93CF935E
:10441000DF93C42FD22FFC0182818823B1F0409317
:104420002C030E942B2190932B0380932A0380E27C
:104430008C0F883008F064C0C77081E001C0880F1D
:10444000CA95EAF70E94F7255BC080912C034813B8
:104450004BC080912A0390912B030E941C21843B26
:10446000910508F041C0CD17C9F080E28C0F88306B
:1044700040F4C77081E001C0880FCA95EAF70E9436
:10448000F02580E28D0F883048F481E09D2F9770F1
:1044900001C0880F9A95EAF70E94F725093319F0B1
:1044A000E12CF12C03C080E5E82EF12C802F0E9436
:1044B0003626E114F10451F08FE99FE00197F1F7FE
:1044C00000C0000091E0E91AF108F3CF802F0E94AC
:1044D000012680E28D0F883098F4D77081E001C00A
:1044E000880FDA95EAF70AC080E28C0F883040F432
:1044F000C77081E001C0880FCA95EAF70E94F025D5
:10450000DF91CF910F91FF90EF900895BC01409102
:10451000260380912703942F981729F1292F30E043
:10452000F901EE0FFF1FE25EFC4F0190F081E02DDC
:10453000E617F70799F487E0869FF001879FF00D53
:104540001124EE5EFE4F81E0848394130CC02F5F34
:104550003F4F237033272093260308952F5F3F4F4B
:10456000922F9370D9CF08950F931F93CF93DF931A
:104570008091BD02882309F453C0C091BC021CE0A5
:104580008091BD02C81708F047C001E00C0F0093EE
:10459000BC02D0E01C9FF0011D9FF00D1124E254DD
:1045A000FD4F9081818123813481232B31F08F3F16
:1045B00031F481E09F3F19F403C081E001C080E045
:1045C00080FD28C01C9FD0011D9FB00D1124A25456
:1045D000BD4F16968D919C911797892B31F41896A3
:1045E0008D919C911997019651F4208131814281DE
:1045F000538164817581868197810E9473251C9FF8
:10460000F0011D9FF00D1124E254FD4F148213821E
:104610001092BB02C02FB4CF1092BD021092BC0208
:10462000DF91CF911F910F9108951092BA021092CD
:10463000B902E2E1F1E08581811102C014821682A3
:10464000379681E0E533F807B1F708951092290312
:10465000109228031092350180912703809326033E
:104660000E9415230E94B4220895A0E0B0E0EBE37D
:10467000F3E20C94FB29C0912603E7E0FE2E01E053
:1046800010E0FCE02F2EAEEFEA2E80912703C81732
:1046900009F47AC0D0E0FE01EE0FFF1FE25EFC4F8E
:1046A00080819181F89EF001F99EF00D1124EE5E5B
:1046B000FE4F2481211165C06090BD02AEEBB2E0D7
:1046C00020E030E0712C5F01261508F058C01A96E2
:1046D0004D905C901B97F501808091804FEF5FEFCC
:1046E000312CC32CD12CF601EE0FFF1FE80DF91D64
:1046F000659174914616570609F4A601672B11F0CF
:104700003394EFCF4F3FFFEF5F07A9F1B80102C02D
:10471000660F771F4A95E2F7762AA801032C02C09C
:10472000440F551F0A94E2F741505109672D70E07C
:1047300046175707E1F4229EF001239EF00D112445
:10474000E254FD4FF89ED001F99EB00D1124AE5EEB
:10475000BE4F12962D913C91139737832683E082AA
:10476000E1829187808771E015967C9308C014964A
:104770001C921E9213972F5F3F4F1C96A5CF0E944D
:1047800086222196C37081CF0E94B4220E941523F5
:10479000CDB7DEB7E2E10C94172A8091B80281FF11
:1047A00031C09091B6028091B3022091B40220935F
:1047B000B0029093B1028093B20283E08093E9004B
:1047C0008FEF9091E800815095FD06C095ED9A9588
:1047D000F1F700008111F5CF8091E80085FF0DC051
:1047E00040E050E063E070E080EB92E00E944B1A02
:1047F0008091E8008E778093E8008091B8028D7FE9
:104800008093B8020895E82FE295EF70F0E092A14E
:104810008F7021E030E0082E01C0220F0A94EAF7E1
:10482000209561FB442740F9082E01C0440F0A94EB
:10483000EAF79223492B42A391A16170772701C027
:10484000660F8A95EAF72923622B61A30895E82F62
:10485000E295EF70F0E022A1482F4F7091A130E077
:10486000042E02C0359527950A94E2F7217033276C
:10487000220F331F892F90E002C0959587954A95A6
:10488000E2F781709927822B932B0895882311F0EA
:10489000FA0101C0FB010995089580E090E00E94B3
:1048A000D32180E090E00E94BD211092BB020E94C3
:1048B0001C0EE2E4F2E086E0DF011D928A95E9F742
:1048C00010923B0210923A0210923C020E94181978
:1048D0000895A0E0B0E0EFE6F4E20C94042A7C0135
:1048E000009130021091310280912A0290912B02A6
:1048F000082B192BCFE0D0E0CC24C394D12CC601D7
:104900000C2E02C0880F991F0A94E2F7802391238E
:10491000892B21F4219798F7B12C09C0BC2EB7013F
:104920008C2F0E94E50B0E94FA0B019799F38B2DB7
:10493000CDB7DEB7E9E00C94202ACF93DF93EC01EA
:104940000E946924BE010E94E50B0E94FA0BDF91D0
:10495000CF91089591111DC08830D8F4EDE3F3E0B4
:1049600040E050E0219130E0082E02C036952795B6
:104970000A94E2F721703327042E01C0220F0A9413
:10498000EAF7922B4F5F5F4F4430510559F7892F5B
:10499000089580E0089591111FC08830E8F421E067
:1049A00001C0220F8A95EAF7EDE3F3E040E050E022
:1049B00070E03081CB01042E02C0969587950A9451
:1049C000E2F78170819583278223832781934F5F4C
:1049D0005F4F4430510569F708950E94F10A9093A2
:1049E0003102809330020E944D24089521E030E08E
:1049F00002C0220F331F8A95E2F7209530958091EF
:104A0000300290913102822393230E94ED24089575
:104A100021E030E002C0220F331F8A95E2F7809137
:104A2000300290913102822B932B0E94ED24089545
:104A300090932B0280932A020E944D240895CF93D5
:104A4000FC019081818123813481232B31F08F3FC0
:104A500031F481E09F3F19F403C081E001C080E0A0
:104A6000C82FC17080FD23C086819781009719F0FF
:104A70000E94FA0B04C0808191810E949D2492952E
:104A80009F70963079F010F4925001C09A50923095
:104A900088F4803F71F018F4883E60F40AC0843FC7
:104AA00049F407C0883E28F0813F21F402C0C0E0ED
:104AB00001C0C1E08C2FCF910895109228028091FF
:104AC0001101882331F08091380387FF02C08EE105
:104AD00001C086E0EFE9F1E0DF011D928A95E9F778
:104AE0000E944D240895A0E1B0E0E9E7F5E20C94BE
:104AF0000B2A29873A874B875C876D877E878F874C
:104B0000988BCE0109960E941B0F811151C088E03D
:104B1000FE013996DE01119601900D928A95E1F71A
:104B200079856A854C855D854115510531F06F3F6A
:104B300031F481E07F3F19F403C081E001C080E0DF
:104B400080FD36C0A091C501B0E0CD01019687700F
:104B500099272091060230E08217930781F179832B
:104B60006A835D834C8393E0AA0FBB1F9A95E1F79C
:104B7000AA53BE4F98E0FE01319601900D929A958E
:104B8000E1F78093C5010E94AA0E12C028E0829F1F
:104B9000C00111248A539E4F0E941B0F8823E1F00D
:104BA0008091060290E00196877099278093060213
:104BB000809106029091C5018913E8CF0DC00E9433
:104BC0005D251092C50110920602EDEBF1E088E040
:104BD000DF011D928A95E9F76096E2E00C94272A9E
:104BE000882321F00E94150E0E941C0E0895882330
:104BF00039F090912802892B809328020E941C0E84
:104C00000895882391F19CEF980F913A30F4682F22
:104C10008DE991E00E9460210DC090E2980F9830DC
:104C200060F4877091E001C0990F8A95EAF7892FA7
:104C30000E94150E0E941C0E08959BE5980F93305C
:104C400028F480E090E00E94D321089598E5980F21
:104C5000973128F480E090E00E94BD2108958D3EB8
:104C600020F00E9437190E9418190895CF938823C5
:104C700009F471C0C82F8CEF8C0F813AC0F5809178
:104C800011018823E1F08091380387FF18C0EC2FD1
:104C9000E695E695E695F0E0E356FE4F8281282FF3
:104CA00030E04C2F477081E090E002C0880F991FE0
:104CB0004A95E2F782239323892B61F412C0EFE92E
:104CC000F1E085EA91E02191C21721F08E179F074C
:104CD000D1F707C06C2F8DE991E00E9460210E94FE
:104CE0001C0E6C2F8DE991E00E94882110C080E29B
:104CF0008C0F883078F4C77081E090E001C0880F95
:104D0000CA95EAF790912802892B809328020E9485
:104D10001C0E21C0EBE5EC0FE33040F4F0E0E95C61
:104D2000FE4F808190E00E94D32115C0E8E5EC0F92
:104D3000E73150F4F0E0EE0FFF1FE65CFE4F80819C
:104D400091810E94BD2107C0CD3E28F08C2F0E948A
:104D5000F0190E941819CF910895873941F178F41C
:104D6000863349F130F4843321F1853331F584E21F
:104D700008958439D1F0863901F581E20895843FA0
:104D800071F030F4803FD9F0813FB9F481E00895AB
:104D9000863F49F030F0873F81F487E0089584E052
:104DA000089585E0089586E0089580E2089582E2FE
:104DB000089583E2089585E208958FE1089580E0E3
:104DC000089596E890937A00982F90729068909347
:104DD0007B008F7190913601892B80937C008091AC
:104DE0007A00806480937A0080917A0086FDFCCFFF
:104DF000809178002091790090917A009F7790932C
:104E00007A0090E0922B08950E94AD260E94E12640
:104E100008958F929F92AF92BF92CF92DF92EF92BE
:104E2000FF92CF93DF93EC01688179818A819B8126
:104E3000611571058105910521F464E279ED8BE539
:104E400097E02DE133EF41E050E00E94AD274901AA
:104E50005A019B01AC01A7EAB1E40E94CC276B0187
:104E60007C01ACEEB4EFA50194010E94DA27DC01CD
:104E7000CB018C0D9D1DAE1DBF1DB7FF03C001975B
:104E8000A109B04888839983AA83BB839F77DF9168
:104E9000CF91FF90EF90DF90CF90BF90AF909F9019
:104EA0008F9008950E940927089580E091E00E9464
:104EB00009270895A0E0B0E08093000190930101DC
:104EC000A0930201B09303010895F999FECF92BD1A
:104ED00081BDF89A992780B50895A6E1B0E044E035
:104EE00050E00C949F27A8E1B0E042E050E00C9421
:104EF0009F27262FF999FECF92BD81BDF89A019781
:104F000000B4021639F01FBA20BD0FB6F894FA9A11
:104F1000F99A0FBE08950396272F0E947A270E94C0
:104F20007927252F0E947A27242F0C947A2701961F
:104F3000272F0E947A270C947927DC01CB01FC01F2
:104F4000F999FECF06C0F2BDE1BDF89A319600B4E2
:104F50000D9241505040B8F70895052E97FB1EF46E
:104F600000940E94C42757FD07D00E94DF2707FC4A
:104F700003D04EF40C94C42750954095309521955C
:104F80003F4F4F4F5F4F0895909580957095619575
:104F90007F4F8F4F9F4F08950E940128A59F900D2E
:104FA000B49F900DA49F800D911D11240895B7FF0B
:104FB0000C94CC270E94CC27821B930B0895A1E26E
:104FC0001A2EAA1BBB1BFD010DC0AA1FBB1FEE1F83
:104FD000FF1FA217B307E407F50720F0A21BB30BCE
:104FE000E40BF50B661F771F881F991F1A9469F74A
:104FF00060957095809590959B01AC01BD01CF01A6
:105000000895A29FB001B39FC001A39F700D811DA1
:105010001124911DB29F700D811D1124911D0895C1
:105020000E9424280C940C290E94052958F00E9403
:10503000FE2840F029F45F3F29F00C94F528511127
:105040000C9440290C94FB280E941D2968F3992395
:10505000B1F3552391F3951B550BBB27AA27621774
:105060007307840738F09F5F5F4F220F331F441F81
:10507000AA1FA9F335D00E2E3AF0E0E832D09150B5
:105080005040E695001CCAF72BD0FE2F29D0660FA2
:10509000771F881FBB1F261737074807AB07B0E8E5
:1050A00009F0BB0B802DBF01FF2793585F4F3AF0EB
:1050B0009E3F510578F00C94F5280C9440295F3FF1
:1050C000E4F3983ED4F3869577956795B795F79571
:1050D0009F5FC9F7880F911D9695879597F9089559
:1050E000E1E0660F771F881FBB1F621773078407F5
:1050F000BA0720F0621B730B840BBA0BEE1F88F704
:10510000E09508950E9489286894B1110C94402973
:1051100008950E94252988F09F5798F0B92F992764
:10512000B751B0F0E1F0660F771F881F991F1AF092
:10513000BA95C9F714C0B13091F00E943F29B1E08F
:1051400008950C943F29672F782F8827B85F39F08E
:10515000B93FCCF3869577956795B395D9F73EF42B
:1051600090958095709561957F4F8F4F9F4F0895D3
:10517000E89409C097FB3EF49095809570956195F1
:105180007F4F8F4F9F4F9923A9F0F92F96E9BB27A7
:105190009395F695879577956795B795F111F8CF23
:1051A000FAF4BB0F11F460FF1BC06F5F7F4F8F4F8E
:1051B0009F4F16C0882311F096E911C0772321F084
:1051C0009EE8872F762F05C0662371F096E8862F1C
:1051D00070E060E02AF09A95660F771F881FDAF773
:1051E000880F9695879597F9089597F99F6780E8B6
:1051F00070E060E008959FEF80EC089500240A9429
:105200001616170618060906089500240A941216A1
:105210001306140605060895092E0394000C11F4D4
:10522000882352F0BB0F40F4BF2B11F460FF04C081
:105230006F5F7F4F8F4F9F4F089557FD9058440FDA
:10524000551F59F05F3F71F04795880F97FB991FE5
:1052500061F09F3F79F087950895121613061406A2
:10526000551FF2CF4695F1DF08C01616170618062F
:10527000991FF1CF86957105610508940895E8940A
:10528000BB2766277727CB0197F908950E945929F4
:105290000C940C290E94FE2838F00E94052920F069
:1052A000952311F00C94F5280C94FB2811240C94F0
:1052B00040290E941D2970F3959FC1F3950F50E07E
:1052C000551F629FF001729FBB27F00DB11D639FB8
:1052D000AA27F00DB11DAA1F649F6627B00DA11D5E
:1052E000661F829F2227B00DA11D621F739FB00D04
:1052F000A11D621F839FA00D611D221F749F332774
:10530000A00D611D231F849F600D211D822F762F0C
:105310006A2F11249F5750409AF0F1F088234AF0E9
:10532000EE0FFF1FBB1F661F771F881F9150504055
:10533000A9F79E3F510580F00C94F5280C94402964
:105340005F3FE4F3983ED4F3869577956795B795DC
:10535000F795E7959F5FC1F7FE2B880F911D9695F6
:10536000879597F90895991B79E004C0991F9617BE
:1053700008F0961B881F7A95C9F78095089587FBDA
:10538000082E062687FD819567FD61950E94B32949
:105390000EF4919507FC81950895AA1BBB1B51E162
:1053A00007C0AA1FBB1FA617B70710F0A61BB70B95
:1053B000881F991F5A95A9F780959095BC01CD013A
:1053C000089597FB072E16F4009407D077FD09D0B7
:1053D0000E94CD2907FC05D03EF4909581959F4F02
:1053E0000895709561957F4F0895EE0FFF1F05900A
:1053F000F491E02D09942F923F924F925F926F9219
:105400007F928F929F92AF92BF92CF92DF92EF9254
:10541000FF920F931F93CF93DF93CDB7DEB7CA1BD5
:10542000DB0B0FB6F894DEBF0FBECDBF09942A8800
:10543000398848885F846E847D848C849B84AA84A8
:10544000B984C884DF80EE80FD800C811B81AA8135
:10545000B981CE0FD11D0FB6F894DEBF0FBECDBF00
:10546000ED010895FC014150504030F001900616C6
:10547000D1F73197CF010895882799270895FB0127
:10548000DC0104C08D910190801921F441505040FD
:0C549000C8F7881B990B0895F894FFCF13
:10549C0001000000DF1E371F181F131F0E1FDE1E1A
:1054AC000101CF03F300000000C70302500000000D
:1054BC00BF030050000000B903CB5C000000B30335
:1054CC00C75C0000000140818283E200E900EA0031
:1054DC00B500B600B700CD008301CC008A01920163
:1054EC0094012102230224022502260227022A0209
:1054FC00B300B4006F007000949091F700000000AE
:10550C00000000000000000000000000000000008F
:10551C000000000102020202020240B630F1023B1E
:0A552C00020B0243035C0375030049
:00000001FF
