:100000000C9489020C94D0020C94D0020C94D0026F
:100010000C94D0020C94D0020C94D0020C94D00218
:100020000C94D0020C94D0020C9436110C947210E3
:100030000C9420190C94D0020C94D0020C94D00291
:100040000C94D0020C94D0020C94D0020C94D002E8
:100050000C94D0020C94DF180C94D0020C94D002B3
:100060000C94D0020C94D0020C94D0020C94D002C8
:100070000C94D0020C94D0020C94D0020C94D002B8
:100080000C94D0020C94D0020C94D0020C94D002A8
:100090000C94D0020C94D0020C94D0020C94D00298
:1000A0000C94D0020C94D0020C94D0021F061F06B0
:1000B00052065206C306DF06AA08AA082607040845
:1000C000150815088A0EB10E5410B10E5410FD0E0D
:1000D000200F541015102410B612B612C912C912EE
:1000E000BF12C912C912C912B612B612C412C9126D
:1000F000C912C412010155FFFFFF000000000003F8
:1001000000FFFFFF000000000003BFFFFFFF000033
:1001100000000801FE00F40000001E0F05050109A3
:1001200004A101A1000501093009311581257F9540
:100130000275088102050919012908150025019594
:100140000875018102C0C005010902A101850209EB
:1001500001A1000509190129081500250195087557
:100160000181020501093009311581257F9502754C
:1001700008810609381581257F95017508810605D6
:100180000C0A38021581257F950175088106C0C0CB
:1001900005010980A101850319012AB7001501266F
:1001A000B700950175108100C0050C0901A10185FA
:1001B0000419012AA002150126A0029501751081DB
:1001C00000C005010906A1018506050719E029E718
:1001D000150025019508750181020507190029EF11
:1001E0001500250195F07501810205081901290501
:1001F000950575019102950175039101C0050109ED
:1002000006A101050719E029E715002501950875E4
:100210000181029501750881010507190029FF1563
:100220000026FF00950675088100050819012905BB
:10023000950575019102950175039101C00902545C
:1002400000030100A0FA09040000010301010009F4
:1002500021110100012240000705810308000A095D
:10026000040100010300000009211101000122B670
:10027000000705820320000A0904020001030000B0
:1002800000092111010001222A000705830308004B
:100290000A120100020000000841450300010001AC
:1002A000020001080341006E00750000000C0361AC
:1002B0000072006F0075006D00000004030904C6A1
:1002C0005CC45C0000CA5CC45C0000CA5CC45CC660
:1002D0005C0000F100F20029410000F100F2000092
:1002E000002223252628292A2C2D2F30323335367B
:1002F000383A3B3D3E4042434547494A4C4E5051B7
:10030000535557595A5C5E6062646668696B6D6FDD
:1003100071737577797B7D7F81838587898A8C8EE0
:1003200090929496989A9C9E9FA1A3A5A7A8AAACE8
:10033000AEAFB1B3B4B6B8B9BBBCBEBFC1C2C3C522
:10034000C6C7C9CACBCCCDCED0D1D2D2D3D4D5D6C4
:10035000D7D7D8D9D9DADADBDBDBDCDCDCDCDCDDF7
:10036000DDDDDDDCDCDCDCDCDBDBDBDADAD9D9D8DB
:10037000D7D7D6D5D4D3D2D2D1D0CECDCCCBCAC973
:10038000C7C6C5C3C2C1BFBEBCBBB9B8B6B4B3B1A2
:10039000AFAEACAAA8A7A5A3A19F9E9C9A9896943D
:1003A00092908E8C8A89878583817F7D7B79777512
:1003B00073716F6D6B6968666462605E5C5A5957F1
:1003C000555351504E4C4A4947454342403E3D3BB0
:1003D0003A3836353332302F2D2C2A29282625233A
:1003E00022000101010101010101010202020202D8
:1003F00002020202030303030303030304040404CD
:100400000404040505050505060606060607070794
:10041000070708080808090909090A0A0A0B0B0B4B
:100420000C0C0C0D0D0D0E0E0E0F0F0F10101111E8
:10043000111212131314141515161617171818196C
:10044000191A1A1B1B1C1D1D1E1E1F2020212222D3
:10045000232424252626272829292A2B2C2D2D2E16
:100460002F30313232333435363738393A3B3C3D30
:100470003E3F404142434445464748494A4C4D4E21
:100480004F50515354555658595A5B5D5E5F6162E7
:1004900064656668696B6C6D6F7072737577787A76
:1004A0007B7D7E8082838587888A8C8E8F919395D1
:1004B00096989A9C9EA0A2A3A5A7A9ABADAFB1B3F5
:1004C000B5B7BABCBEC0C2C4C6C9CBCDCFD1D4D6D5
:1004D000D8DBDDDFE2E4E7E9EBEEF0F3F5F8FAFD77
:1004E000FF00000000000000000000F1002941F2C0
:1004F00000F900FB000000FC00FA00F1000000F22F
:100500000000000000000000000000CA5CC45CC6DF
:100510005C0011241FBECFEFDAE0DEBFCDBF04B612
:1005200003FE27C08091220390912303A09124030E
:10053000B09125038730904BA740B04BD1F4109277
:10054000220310922303109224031092250314BE59
:1005500084B7877F84BF0FB6F894A8958091600018
:10056000886180936000109260000FBEE0E0F8E3C5
:10057000099511E0A0E0B1E0E4E8F8E502C00590DB
:100580000D92AA39B107D9F723E0AAE9B1E001C079
:100590001D92A232B207E1F70E9415090C94402C7B
:1005A0000C9400008F929F92AF92BF92CF92DF92F5
:1005B000EF92FF920F931F93CF93DF93CDB7DEB7E8
:1005C00062970FB6F894DEBF0FBECDBFFC018081ED
:1005D000918123813481232B31F09F3F31F491E0CD
:1005E0008F3F19F403C091E001C090E090FD0AC66E
:1005F0007F0161E0CF010E9482258C01843F2CE5C0
:10060000920751F190F4093D8CE51807E1F00A3D9D
:100610009CE5190799F1083DECE51E07A9F506E2EE
:1006200021EE41EE68ED7CE513C0863FFCE59F07B7
:10063000F9F0C0F0873F9C4539F507E225EE46EE1C
:1006400067EF7CE505C007E225EE45EE69ED7CE548
:10065000C7010E94EC19B3C506E221EE40EE64EF3B
:100660007CE5F6CF07E225EE44EE65EF7CE5F0CFC2
:1006700006E221EE42EE66EF7CE5EACF08E221E0F9
:1006800045EE6AED7CE5E4CFF7012281222309F4EF
:1006900045C110927A020430FDE51F0758F40B3F64
:1006A0003CE5130760F4C80182509C45449708F06C
:1006B0001FC105C002368DE5180709F019C10E9457
:1006C0009023909387028093860200319CE519075E
:1006D00009F4CAC008F041C00830FCE51F0709F45E
:1006E000A4C0F0F404303CE5130709F48CC068F4AE
:1006F00002309CE5190709F482C003301C4509F05B
:10070000E7C0809186028260E1C00630FCE51F07E9
:1007100009F483C008F085C0809186028860D6C045
:100720000C303CE5130709F490C068F40A309CE5EE
:10073000190709F47EC008F084C00E9468158091F2
:1007400086028068C3C00E30FCE51F0709F481C033
:1007500008F086C08091860294C00D3F3CE51307E7
:1007600009F47BC038F504319CE5190709F49AC0F7
:1007700058F40231FCE51F0709F47AC008F07EC086
:10078000809186028F7BA2C00B3F3CE51307F1F1FD
:1007900008F03FC005311C4509F09AC080918602DF
:1007A00082FB222720F991E0922790FB82F990FBAF
:1007B00083F98CC00130EDE51E0709F467C050F4E1
:1007C000809187020F3F2CE51207C1F108F05BC052
:1007D0008D7F65C003308DE5180709F471C008F4FA
:1007E0006DC002361D4509F073C08091860284FBFE
:1007F000222720F991E0922790FB84F967C080912D
:100800008602816063C08091860216C08091870253
:1008100016C080918702826042C08091860280610A
:1008200055C080918602806251C0809186028064AA
:100830004DC0809186028860846048C0826081607B
:100840002EC0809186028E7F41C0809186028D7F6E
:100850003DC080918602877F39C08091870214C095
:10086000809186028F7E32C0809186028F7D2EC05D
:100870000E946815809186028F7728C08091860239
:10088000877F8B7F23C08D7F8E7F09C080918702F9
:10089000982F909591708E7F892B90FB81F9809392
:1008A000870216C00E9468158091860287FB222766
:1008B00020F991E0922790FB87F908C061E001C020
:1008C00060E08EE090E00E94B22902C08093860230
:1008D000609186021091870284E090E00E94B22924
:1008E000612F82E290E00E94B2290E94681567C4DD
:1008F000809111030631FCE51F0709F58A7A91E022
:1009000009F490E090939C01811102C069E201C05A
:1009100065E384EA92E00E9471190EC00631FCE59D
:100920001F0709F0A4C080919C01811169C469E28C
:1009300084EA92E00E9449190E94192440C48272FC
:100940000A3CFCE51F0709F47CC0F0F4063C9CE57A
:10095000190709F467C060F4043CFCE51F0709F4BB
:1009600057C008F05AC0033C8CE5180761F17FC0FE
:10097000083C9CE5190709F45AC008F05DC04CED2D
:100980005EE163ED7EE16BC00E3CFCE51F0709F400
:1009900069C060F40C3C9CE5190709F457C008F0E5
:1009A0005AC04FEA5EE163EA7EE159C0073DFCE5CB
:1009B0001F0708F404C40E353DE5130709F057C0BE
:1009C0000E94950DFCC38091DD0180FF1BC08E7FCE
:1009D0008093DD016091DD017091DE018091DF0186
:1009E0009091E0010E94A11C1092A2028FEF90E76B
:1009F000E2E081509040E040E1F700C000000E943A
:100A00007B1DDDC381608093DD0161E086952CC094
:100A100043E45FE16CE47FE122C04CE45FE163E426
:100A20007FE11DC043ED5EE16CED7EE118C04BEB54
:100A30005EE167EC7EE113C047EC5EE16BEB7EE1CB
:100A40000EC043EA5EE16FEA7EE109C043EB5CE180
:100A500064EC7CE104C044EC5CE163EB7CE10E946B
:100A60006B1CADC361E081E00E94E51EA8C3C80114
:100A700089509D4580329105F8F443E0969587951D
:100A80004A95E1F7A80147705527FC01EE51FE4F4A
:100A900081E090E001C0880F4A95EAF7222319F01F
:100AA0009081892B03C080959081892380838091D8
:100AB000E70182608093E7018091E70181FF07C031
:100AC0000E94680D8091E7018D7F8093E701F70117
:100AD0008281882309F456C00B35FDE51F0709F410
:100AE0004CC058F401153CE51307C1F00F3D1C45FF
:100AF00009F048C00E94A12362C30C359DE5190787
:100B000009F43DC00D351D4509F03CC080918702B8
:100B100082FB882780F991E0892732C00E946815FE
:100B2000FFEF04E31CE0F15000401040E1F700C08B
:100B3000000081E08093E00080E28093D800109272
:100B4000C9008FE19EE40197F1F700C0000087E043
:100B500090EBDC018093220390932303A093240362
:100B6000B09325039CE088E10FB6F894A895809394
:100B700060000FBE90936000FFCF81E001C080E075
:100B80000E947C24F70186819781009721F5F70167
:100B9000828100811181882349F0C8010E942A12B4
:100BA000D82E682FC8010E94E11404C0C8010E9419
:100BB000B514D82EE12FF0E0ED0DF11D23E0EE0F7E
:100BC000FF1F2A95E1F7E00FF11DEE0FFF1FEF5118
:100BD000FB4F859194910E94F6218C01F701D28000
:100BE000A580A2949FE0A92280910E038770B9F09E
:100BF000DD20A9F0812F807F803421F080E2800FFA
:100C0000883068F08091870282FD09C082E00E94EE
:100C10005F2480910E038770CC24C3948111C12C72
:100C2000B12EB2948FE0B8228B2D90E08C309105DC
:100C300008F090C2FC01EA5AFF4F0C94202C812F3F
:100C4000807F1F70882311F01295107FDD20B9F08E
:100C5000112309F46CC280E2800F883010F001117A
:100C600006C090911103192B1093110305C09091A8
:100C70001003192B109310030E94192458C2802FBF
:100C80000E941416112309F465C280E2800F883097
:100C900070F1002361F110959091100319231093C6
:100CA000100328C0812F807F1F70803211F01295B1
:100CB000107F002319F00130D9F149C080918702DB
:100CC00082FF1BC0DD2069F0112339F090911103E0
:100CD000192B109311030E94192480E00E944616DC
:100CE00039C280E00E941416112309F433C2812F07
:100CF0000E9412240E9419242DC2DD2081F08091CF
:100D00001203AA2051F0F1E0AF1207C0182B1817F8
:100D100009F420C2109312031DC2812B10C0AA2017
:100D200021F001E0A01609F415C20E940C2427C08E
:100D3000DD2041F025E02A1508F40CC2812F0E9425
:100D40000A1608C234E03A1508F404C218C0DD20BF
:100D500049F0AA2099F3F701858180FFE8C18F70DF
:100D60008583ECCFAA2059F0093309F0F0C1FFEFD9
:100D700017EE23E0F15010402040E1F7E6C1812F4B
:100D80000E940316E7C1812F86958695837019F01E
:100D9000813059F0DFC1DD2019F0C801937002C025
:100DA00080E090E00E94BC19DDC1DD2019F0C8018F
:100DB000937002C080E090E00E94A619D3C1802FFA
:100DC000DD2019F00E942D2002C00E94741F8FE0C8
:100DD000800F8830C0F5082F81E090E09C0101C0B1
:100DE000220F0A95EAF786E0EDE9F1E0DE011796B9
:100DF00001900D928A95E1F786E0FE013796DE01BB
:100E00001D9601900D928A95E1F79885DD2019F0E5
:100E1000892F822B03C0822F809589238E8796E0AD
:100E2000FE013D96DE01119601900D929A95E1F733
:100E30008A8386E0FE013196ADE9B1E001900D9222
:100E40008A95E1F78FC10E94561F8CC1812F837054
:100E500009F069C0D11082C1902F92959695977034
:100E6000990F990F802F8F70882E912CA12CB12C67
:100E7000092E04C0880C991CAA1CBB1C0A94D2F72A
:100E800004FF12C04FE050E060E070E004C0440F87
:100E9000551F661F771F9A95D2F7DB01CA0180950F
:100EA0009095A095B09503C080E090E0DC01169588
:100EB0001695412F4370423019F1C8F40091130385
:100EC000109114032091150330911603413059F00D
:100ED00088299929AA29BB29BC01CD016023712346
:100EE000822393230AC0802A912AA22AB32ABC0112
:100EF000CD01682979298A299B290E945E152EC176
:100F000088299929AA29BB29009113031091140358
:100F10002091150330911603BC01CD016027712784
:100F200082279327EACFDD2019F0812F817001C03D
:100F30008695882309F412C1902F92959695977003
:100F4000990F990F802F8F70882E912CA12CB12C86
:100F5000092E04C0880C991CAA1CBB1C0A94D2F749
:100F600004FF12C04FE050E060E070E004C0440FA6
:100F7000551F661F771F9A95D2F7DB01CA0180952E
:100F80009095A095B09503C080E090E0DC011695A7
:100F90001695412F43704230D9F068F50091A301B6
:100FA0001091A4012091A5013091A601413059F082
:100FB00088299929AA29BB29BC01CD016023712365
:100FC000822393231EC0802A912AA22AB32A13C007
:100FD00088299929AA29BB290091A3011091A4016C
:100FE0002091A5013091A601BC01CD016027712798
:100FF0008227932706C0BC01CD01682979298A2957
:101000009B290E940C15AAC01F70DD2039F0812F8A
:101010000E943D15802F0E940A16A0C0802F0E94BA
:101020000316812F0E94181599C0023FF1F128F490
:10103000003F41F0013FA1F175C0033FE9F1043FDA
:1010400059F170C0DD2019F134E03A1508F482C07E
:101050001F7181E090E0A0E0B0E0AC01BD0104C0F0
:10106000440F551F661F771F1A95D2F78091A30171
:101070009091A401A091A501B091A6018A019B01C4
:10108000082719272A273B27C901B80129C025E0CD
:101090002A1508F45FC0DCCF8091870282FF23C04D
:1010A000DD2029F0812F8F7130C0DD20D9F3812F11
:1010B0008F710E9418154EC0DD2079F01F7181E0FC
:1010C00090E0A0E0B0E0BC01CD0104C0660F771F46
:1010D000881F991F1A95D2F703C060E070E0CB011A
:1010E0000E940C1537C0DD2099F01F71812F0E94DE
:1010F0003D158091870282FD07C038E0139FC00133
:101100001124836080930E03812F0E943D1522C01D
:1011100081E00E945F2481E08A15E0F482E00E9471
:101120005F2418C0DD2029F0AA2009F4BBCF802F4E
:10113000D5CDAA2009F4BBCF093349F49FEFE7EEE0
:10114000F3E09150E040F040E1F700C00000802F54
:101150000E94141688EF8B0D843020F40E94E01951
:101160000E942C25CC20A9F080910E0380FD11C097
:10117000F70112828595859585950E943D15C701D9
:101180000E94D20280910E038595859585950E94D7
:10119000181560E0C70162960FB6F894DEBF0FBE67
:1011A000CDBFDF91CF911F910F91FF90EF90DF9016
:1011B000CF90BF90AF909F908F900C94822580919C
:1011C0000E038770F9F0F70182818823D9F08091AE
:1011D000870282FD17C082E062960FB6F894DEBFE8
:1011E0000FBECDBFDF91CF911F910F91FF90EF9078
:1011F000DF90CF90BF90AF909F908F900C945F2422
:1012000065E396CB62960FB6F894DEBF0FBECDBFF6
:10121000DF91CF911F910F91FF90EF90DF90CF90D2
:10122000BF90AF909F908F900895CF93DF93CDB7ED
:10123000DEB767970FB6F894DEBF0FBECDBF84B799
:10124000877F84BF0FB6F894A8958091600088616D
:1012500080936000109260000FBE90E080E80FB6AF
:10126000F89480936100909361000FBE85B7806809
:1012700085BF85B7806885BF88E890E290939B0121
:1012800080939A010E94B6100E94D5108091E200CE
:1012900084608093E20078948091D3018823A1F048
:1012A0001091E9001F709091EC00892F817090FDE2
:1012B00080E8182B1092E9008091E80083FD0E94DD
:1012C000A40D1F701093E90082E084BD93E095BDEA
:1012D0009AEF97BD80936E00A8E3B1E041E050E043
:1012E0008D918F3F29F421E0A034B207C9F715C0D2
:1012F000E82FE295EF70F0E021A18F70BA0102C0F3
:10130000660F771F8A95E2F7CB01962F909592236F
:1013100091A392A1892B82A3E6CF1092AA011092E9
:10132000A70180E090E00E94AC29893E9E4F11F019
:101330000E94A12382E090E00E949E298093AC014C
:101340000E949023909387028093860283E090E02E
:101350000E949E29682F70E080E090E00E945E1558
:101360006091A3017091A4018091A5019091A601C3
:101370000E94FB278091A801811136C080E090E097
:101380000E94AC29893E9E4F21F00E94A1230E9419
:10139000D51C88E090E00E94A6296093DD0170933F
:1013A000DE018093DF019093E0016E7F71F40E9473
:1013B000D51C88E090E00E94A6296093DD0170931F
:1013C000DE018093DF019093E0010E94871C109260
:1013D000A2028091DD0180FF04C060E086950E943A
:1013E000E51E81E08093A80182E191E090939A024A
:1013F0008093990284E091E090937E0280937D0235
:101400008091D301853009F092C0FF24F39400E16C
:1014100012E18091D301853009F06CC08091D30135
:10142000843009F445C080E00E942C251092A2026D
:1014300080919802811116C0F09298028091DD018E
:10144000982F91709093A9018E7F8093DD01FFEF1B
:1014500020E732E0F15020403040E1F700C00000CA
:101460000E947B1D0E94A3281092810248E150E057
:1014700060E40FB6F894A895409360000FBE6093A7
:10148000600083B7817F846083BF83B7816083BF3F
:101490007894889583B78E7F83BF0FB6F894A8950C
:1014A00080916000886180936000109260000FBEA0
:1014B0008091D201882309F4ACCF0E94CD20809185
:1014C000AA01882309F4A5CF09BD19BD09B400FEFE
:1014D000FDCF8091D8008F7D8093D8008091E0006F
:1014E00082608093E0008091E00081FDFCCF0E944B
:1014F00068158FCF0E9468150E94E0190E942C2564
:10150000109298028091A901882351F08091DD0109
:1015100081608093DD0160E086950E94E51E05C034
:101520008091A30281110E947B1D0E94711C0E9468
:10153000CD20882359F08FB7F894409182025091C2
:10154000830260918402709185028FBF2091AA016D
:101550009091AD01922711F180E011E0392F3123F4
:10156000C9F08F831886212381E009F480E0898700
:101570000E9414198160782F9B878A874F81588534
:1015800069858B850E94C6258091AD01182710932F
:10159000AD0114C08F5F110F883001F78FEF8C877A
:1015A0008D871E860E9414198160782F988B8F87F3
:1015B0004C855D856E8588890E94C6258091A20232
:1015C000882309F444C09091A1028091DD018695A1
:1015D000891B80939D02923079F463E00E94EC2B8A
:1015E000E92FF0E0E65EFE4FE4910E2F10E026E5D5
:1015F000E22E27E1F22E06C000ED17E092ECE92E74
:1016000096E1F92E80919E02882361F010929E024D
:101610000E94141990939C0280939B021092A00246
:1016200010929F020E941419E0919B02F0919C027B
:101630008E1B9F0B8F3F9F4750F40E0F1F1F109361
:101640009C0200939B028BE992E0F701099586E0EA
:10165000E2E9F2E0DE01119601900D928A95E1F740
:10166000E0909402F09095020091960210919702FA
:101670001092940210929502109296021092970284
:10168000E11003C0FF2009F451C0809190029091B5
:1016900091020E9405199C0190918C02992309F4F2
:1016A000E1C12333310508F441C09F3F19F09F5F2A
:1016B00090938C02EE2061F00E940D201E1414F015
:1016C0009FEF01C091E0899F802D112480939402A7
:1016D000FF2061F00E940D201F1414F09FEF01C045
:1016E00091E0899F802D112480939502309194027E
:1016F0003323E1F0209195022223C1F045EB34031E
:10170000C0011124992319F09093940203C081E041
:101710008093940255EB2503C0011124992319F0FD
:101720009093950203C081E080939502011103C05C
:10173000112309F451C080918E0290918F020E9472
:1017400005199C0190918B02992309F490C12536CB
:10175000310508F441C09F3F19F09F5F90938B02C1
:10176000002361F00E94EB1F101614F09FEF01C0E0
:1017700091E0899F802D112480939602112361F0BE
:101780000E94EB1F111614F09FEF01C091E0899F9A
:10179000802D112480939702309196023323E1F03B
:1017A000209197022223C1F065EB3603C00111247A
:1017B000992319F09093960203C081E080939602DA
:1017C00075EB2703C0011124992319F09093970218
:1017D00003C081E0809397028091940281110BC035
:1017E00080919502811107C080919602811103C0FA
:1017F0008091970281110E94561FEB82FC820D831B
:101800001E8386E0FE013196A2E9B2E001900D92BE
:101810008A95E1F70E94A32880E4E82E81E0F82E63
:1018200082EE91E09B8B8A8BF701D180FFEFDF1670
:1018300009F4F0C08D2D0E944C1C9F8B8E8B0D2DBA
:1018400002950F7010E0F80122A18D2D8F7041E0FC
:1018500050E002C0440F551F8A95E2F7CA01742E6A
:101860007094922F972192A391A1892B81A355E384
:101870005A95F1F70000F701F081F98BFF3FD9F09D
:101880008F2F0E944C1C9D8B8C8BE989E295EF7009
:10189000F0E021A189898F7041E050E002C0440F3F
:1018A000551F8A95E2F7CA01922F982B91A392A116
:1018B000892B82A302C01D8A1C8AF701C280FFEF18
:1018C000CF16D9F08C2D0E944C1C1C01EC2DE295FA
:1018D000EF70F0E021A18C2D8F7041E050E002C04C
:1018E000440F551F8A95E2F7CA01922F982B91A3B6
:1018F00092A18095892382A302C0212C312C55E32B
:101900005A95F1F70000F80181A1872181A382A1F6
:10191000782272A2F5E3FA95F1F700008D2D0E946E
:10192000F41B0E94D31B2C01F701858196814C0189
:10193000A12CB12C052C000C660877084818590812
:101940006A087B08A1E8BFEFA30192010E94132A55
:1019500023813481890120E030E0A9019801281910
:1019600039094A095B090E94E62912161306140672
:101970001506A4F4AFE7B0E0A30192010E94052A86
:10198000F70127813085890120E030E0A901980125
:10199000281939094A095B090E94E629DA01C901B7
:1019A00021383F4F4F4F5F4F24F481E89FEFAFEF57
:1019B000BFEF80389105A105B10524F08FE790E0D5
:1019C000A0E0B0E0EA89FB8941815281052E000C3C
:1019D000660B770B84179507A607B70739F0928334
:1019E00081838091E70182608093E701F989FF3F5D
:1019F00029F06C897D898F2F0E94281C2FEFC21639
:101A000021F0B1018C2D0E94281C6E897F898D2DBB
:101A10000E94281C39E0E30EF11C4A895B894E5F65
:101A20005F4F5B8B4A8B62E571E06E157F0509F0B5
:101A3000FBCE8091E70181FF07C00E94680D809175
:101A4000E7018D7F8093E7010E94E0199091AB013F
:101A5000891709F4D5CC0E94E0198093AB010E944C
:101A60002C25CECC2D32314008F021CE5FCE2D3248
:101A7000314008F072CEB0CEEF92FF920F931F93D9
:101A8000CF93DF937C018B010E94FA17811119C05B
:101A9000E70101151105A1F08091E80085FD0AC05C
:101AA0008091E8008E778093E8000E94FA178823DF
:101AB00081F307C089918093F10001501109E9CFAA
:101AC00080E0DF91CF911F910F91FF90EF900895EB
:101AD0009091E5018091E2012091E3012093E801DA
:101AE0009093E9018093EA0183E08093E9008FEF0E
:101AF0009091E800815095FD06C095ED9A95F1F71B
:101B000000008111F5CF8091E80085FF0DC040E015
:101B100050E063E070E088EE91E00E943C0D80911F
:101B2000E8008E778093E80008958091DD0180FFC2
:101B300007C0869582588F77853010F40C944C1F1F
:101B400061E082E00C94E51E1F93CF93DF93CDB745
:101B5000DEB7AA970FB6F894DEBF0FBECDBFE5ED96
:101B6000F1E08DED91E02091F10021938E179F0718
:101B7000D1F78091D601833009F461C030F481300F
:101B800071F0823009F49BC0B2C08A3009F487C07A
:101B90008B3009F46CC0893009F0A9C020C0809155
:101BA000D501813A09F0A3C08091E800877F809336
:101BB000E8008091D9019091DA01892B21F460E24B
:101BC00081EB91E003C060E080E090E070E00E9473
:101BD00081188091E8008B778093E80088C080911D
:101BE000D501813209F083C08091D9019091DA0149
:101BF000029708F07CC08091E800877F8093E8001E
:101C00008091E80082FD05C08091D3018111F8CF59
:101C10006EC02091F3008091F20090E0922B029729
:101C200031F48091F100813011F0863021F48091FF
:101C3000F1008093B0018091E8008B7754C08091CF
:101C4000D501813A09F053C08091D9019091DA0110
:101C5000892B09F04CC08091E800877F8093E800D1
:101C60008091E80080FFFCCF8091100137C0809107
:101C7000D5018132E1F58091D9019091DA01892B6A
:101C8000B1F58091E800877F8093E8000E942D18CD
:101C90008091D701809310010E94681528C080911F
:101CA000D501813221F58091E800877F8093E8009B
:101CB0000E942D188091D8018093AF0118C08091A7
:101CC000D501813AA1F48091E800877F8093E800F4
:101CD0008091E80080FFFCCF8091AF018093F100FC
:101CE0008091E8008E778093E8000E942D18809103
:101CF000E80083FFD9C18091D5019091D601492F89
:101D000050E04A30510508F0CFC1FA01EE59FF4FBB
:101D10000C94202C803821F0823809F0C5C108C00D
:101D20008091D1019091D201992389F082600FC0F6
:101D30008091D9018F70873008F0B6C18093E90097
:101D40008091EB0085FB882780F91092E900909143
:101D5000E800977F9093E8008093F1001092F100E3
:101D60006FC1282F2D7F09F09FC1882319F0823081
:101D700061F09AC18091D701813009F095C193300B
:101D800009F080E08093D2012EC08091D7018111AB
:101D90002AC08091D9018F702FEF280F263008F0CC
:101DA00083C18093E9002091EB0020FF1CC0933099
:101DB00021F48091EB00806214C09091EB0090615F
:101DC0009093EB0021E030E0A90102C0440F551FC1
:101DD0008A95E2F74093EA001092EA008091EB00C6
:101DE00088608093EB001092E9008091E800877F83
:101DF0008093E8000E942D1857C1811155C11091A0
:101E0000D7011F778091E3008078812B8093E300D6
:101E10008091E800877F8093E8000E942D188091D0
:101E2000E80080FFFCCF8091E30080688093E300AE
:101E3000111102C082E001C083E08093D30134C15C
:101E40008058823008F030C12091D7013091D801FC
:101E50002C3D53E0350779F583E08A838AE2898354
:101E60004FB7F894DE01139620E03EE051E2E32FF5
:101E7000F0E050935700E49120FF03C0E295EF702B
:101E80003F5FEF708E2F90E0EA3010F0C79601C0F0
:101E9000C0968D939D932F5F243149F74FBF80915A
:101EA000E800877F8093E8006AE270E0CE01019647
:101EB0000E948118B4C08091D9019091DA01432F1A
:101EC000552743305105A9F068F44130510509F414
:101ED000FAC04230510509F0E7C084E590E0EDE337
:101EE000F2E04BC04132510529F14232510589F1EE
:101EF000DBC0C901992781309105A1F058F0029704
:101F000009F0D2C0E3EAF2E0E4918E2F90E0E3EA38
:101F1000F2E030C0EBEBF2E0E4918E2F90E0EBEBDF
:101F2000F2E028C0EDEAF2E0E4918E2F90E0EDEAD5
:101F3000F2E020C08330910508F0B6C0880F991FE9
:101F4000FC01E55AFE4F0190F081E02D89E090E020
:101F500014C08330910508F0A7C0FC01EE0FFF1FED
:101F6000EB5AFE4F0190F081E02DDC01AE5ABE4FDE
:101F70008C9190E0009709F497C02091E800277FAA
:101F80002093E8002091DB013091DC01281739070C
:101F900008F4C90140E0009789F12091D301222380
:101FA00009F43DC02530D9F12091E80023FD37C068
:101FB0002091E80022FD2FC02091E80020FFEBCF08
:101FC0004091F3002091F20030E0342B009759F05B
:101FD0002830310540F444914093F1003196019747
:101FE0002F5F3F4FF3CF41E02830310509F040E04B
:101FF0002091E8002E772093E800CDCF4111CDCF7E
:102000000AC08091D301882351F0853041F080913E
:10201000E80083FD04C08091E80082FFF2CF809148
:10202000E8008B778093E8003FC08038E9F5809125
:10203000E800877F8093E8008091D4018093F100CD
:102040008091E8008E77D4CE81112EC08091D70187
:102050009091D801992702973CF58091E800877FFD
:102060008093E8001091D7011093D4010E942D189D
:10207000111106C08091E30087FD02C081E001C01C
:1020800084E08093D30142E061EC81E00E944C182F
:1020900042E261EC82E00E944C1842E061EC83E095
:1020A0000E944C188091D3018091E80083FF10C0FA
:1020B0008091E800877F8093E8008091EB00806248
:1020C0008093EB0005C082E190E0E1E9F2E055CFBA
:1020D000AA960FB6F894DEBF0FBECDBFDF91CF91A9
:1020E0001F9108951F920F920FB60F9211242F93F4
:1020F0003F934F935F936F937F938F939F93AF9390
:10210000BF93CF93DF93EF93FF93C091E900CF701C
:102110008091EC00D82FD17080FDD0E81092E900BA
:102120008091F000877F8093F00078940E94A40D46
:102130001092E9008091F00088608093F000CD2B30
:10214000CF70C093E900FF91EF91DF91CF91BF91E4
:10215000AF919F918F917F916F915F914F913F913F
:102160002F910F900FBE0F901F901895E8EDF0E0A3
:1021700080818E7F80831092E2001092DA001092AC
:10218000E100A0EEB0E08C9181608C9380818F772C
:10219000808319BCA7EDB0E08C918E7F8C938081F9
:1021A0008F7E80831092AE010895CF92DF92EF92DE
:1021B000FF920F931F93CF93DF93C8EDD0E08881F8
:1021C0008F7E8883E7EDF0E080818160808384E00A
:1021D00082BF81E08093AE0188818E7F888302EE8A
:1021E00010E0F80110821092DA0081EEC82ED12C96
:1021F000F601108288818F77888388818068888340
:1022000088818F7D888319BC1092D3011092D401EC
:102210001092D2011092D10190EEE92EF12CF7012B
:1022200080818B7F808388818160888342E060E049
:1022300080E00E944C18F60180818E7F8083F80137
:10224000808181608083808188608083F7018081C4
:102250008E7F8083888180618883DF91CF911F91F9
:102260000F91FF90EF90DF90CF9008951F920F9203
:102270000FB60F9211242F933F934F935F936F9359
:102280007F938F939F93AF93BF93EF93FF9380912F
:10229000E10082FF09C08091E20082FF05C08091C9
:1022A000E1008B7F8093E1008091DA0080FF2AC0FB
:1022B0008091D80080FF26C08091DA008E7F8093C5
:1022C000DA008091D90080FF18C080E189BD82E1E9
:1022D00089BD09B400FEFDCF81E08093D3018091D8
:1022E000AE0181110FC00E94B6100E94D5108091DE
:1022F000E20084608093E20005C019BC1092D30113
:102300001092AE018091E10080FF17C08091E20041
:1023100080FF13C08091E2008E7F8093E200809165
:10232000E20080618093E2008091D8008062809317
:10233000D80019BC85E08093D3018091E10084FF2F
:1023400030C08091E20084FF2CC080E189BD82E131
:1023500089BD09B400FEFDCF8091D8008F7D8093A8
:10236000D8008091E1008F7E8093E1008091E200AF
:102370008F7E8093E2008091E20081608093E20092
:102380008091D401882311F084E007C08091E3009C
:1023900087FD02C081E001C083E08093D30180917A
:1023A000D3018091E10083FF27C08091E20083FF89
:1023B00023C08091E100877F8093E10082E08093D9
:1023C000D3011092D4018091E1008E7F8093E100CF
:1023D0008091E2008E7F8093E2008091E200806134
:1023E0008093E20042E060E080E00E944C1880911F
:1023F000F00088608093F000FF91EF91BF91AF9162
:102400009F918F917F916F915F914F913F912F910C
:102410000F900FBE0F901F90189580E090E00E94E3
:10242000BC1980E090E00E94A6191092100310924F
:102430000F030E941924E2E9F2E086E0DF011D9219
:102440008A95E9F710928C0210928B0210928D02FD
:102450000C94561F8F929F92AF92BF92EF92FF9271
:102460000F931F93CF93DF938090A3019090A401CB
:10247000A090A501B090A6014091130350911403C0
:102480006091150370911603842A952AA62AB72A0B
:10249000CFE1D0E0E92EF12C082F10E0D501C401E6
:1024A0000C2E04C0B695A795979587950A94D2F7F8
:1024B00080FD04C0219790F780E015C0FE01EE0D6D
:1024C000FF1D83E0EE0FFF1F8A95E1F7E00FF11F7C
:1024D000EE0FFF1FEF51FB4F859194910E94F62163
:1024E000019741F38C2FDF91CF911F910F91FF90B6
:1024F000EF90BF90AF909F908F900895CF93DF9310
:10250000D82FC92F0E942A12EC2FF0E0E80FF11DFE
:1025100083E0EE0FFF1F8A95E1F7ED0FF11DEE0F3F
:10252000FF1FEF51FB4F859194910E94F621DF919F
:10253000CF910895FC0186819781009719F00E9440
:10254000F62104C0808191810E947E12292F2F7074
:10255000E92FE295EF704E2F50E0FA013297EE30FE
:10256000F105B8F4E459FF4F0C94202C803F99F00A
:1025700018F4883E70F40FC0843F59F40CC0883EB4
:1025800050F0813F31F407C0822F8695869586955D
:10259000089580E0089581E008958F929F92AF9210
:1025A000BF92CF92DF92EF92FF920F931F93CF9340
:1025B000DF93CDB7DEB765970FB6F894DEBF0FBED9
:1025C000CDBF8C0185E0F801DE01519601900D929E
:1025D0008A95E1F7D8011296EC909091C40220916F
:1025E000C5024091C7025091C8024115510531F012
:1025F0002F3F31F481E09F3F19F403C081E001C017
:1026000080E080FD84C1F801D080C180A380B480C7
:1026100084EC882E82E0982EF090C602B501641BEF
:10262000750BFF2009F425C18091C902382F307F36
:10263000643B710508F0DFC0311191C02C111BC043
:102640009D1119C04091CA025091CB022681378159
:102650004217530781F4FE2CE1100DC08F7080618A
:102660008093C902C4010E94D2028091C902D8019C
:1026700015968C9366C1A114B10439F0BFEFCB124B
:1026800006C081E0DB1203C003C081E001C080E02E
:1026900080FD03C081E08E2502C080E090E080FFD5
:1026A00010C04E2D6C2D8D2D0E949924882349F049
:1026B00084EC92E00E94D202E4ECF2E088E0DF01D8
:1026C000A2C0AB2839F0BFEFCB1206C081E0DB120D
:1026D00003C003C081E001C080E080FD03C081E051
:1026E0008E2502C080E090E0E82FE170BE2E80FFD2
:1026F0002CC04E2D6C2D8D2D0E949924F82E811109
:1027000024C0D98ACA8A89899A890E947E12292F6F
:1027100022952F70223018F0243090F405C09F705D
:1027200059F0811109C00DC19F7031F0D801159683
:102730009C91907F09F405C1805E883008F401C146
:10274000C8010E94D202FB2CFCC0FE2CEE2009F432
:10275000F8C08091C90281608093C90257C02C11D2
:102760000FC09D110DC04091CA025091CB02F801DB
:10277000268137814217530719F4EE2009F4A6C0C9
:10278000C8010E949A12882381F1EE2071F12091F4
:10279000C902822F82958F7090E00297A4F08091F9
:1027A000C4029091C5029A8789871B86BD86AC8634
:1027B0002E878091CA029091CB02988B8F87CE0191
:1027C00009960E94D20288E0F801A4ECB2E00190E0
:1027D0000D928A95E1F70E94C3240AC02C15C1F01E
:1027E000C8010E949A12811126C0C8010E94D2021B
:1027F000FF24F394A6C03111F1CF84EC92E00E9443
:10280000D20288E0D4011D928A95E9F7F12C99C093
:102810009D11E6CF4091CA025091CB02F80126816A
:10282000378142175307E1F6E110DACF8583C801FB
:102830000E94D20266C0EE20C1F22091C902822F0E
:1028400082958F7090E002970CF4BDCF8091C40206
:102850009091C5029A8389831B82BD82AC822E83AC
:102860008091CA029091CB0298878F83CE01019606
:10287000A8CF643B710508F044C0FE2CEE2009F49B
:10288000B4CF2C1130C09D112EC02091CA023091BE
:10289000CB02F801868197812817390721F590919D
:1028A000C90290FD17C0892F82958F70282F30E0C4
:1028B0002115310579F095832F30310541F08F5F77
:1028C000982F9295907F85818F70892B8583C80181
:1028D0000E94D20288E0F801A4ECB2E001900D92CF
:1028E0008A95E1F72EC0C8010E949A1281116BCF20
:1028F0008091C90281608093C902C8010E94D202FE
:1029000020C088E0D4011D928A95E9F71AC0EE2014
:1029100009F46BCFC8010E949A12F82E882309F49B
:1029200064CF88E0F801A4ECB2E001900D928A95A2
:10293000E1F78091C4029091C5020E947E120E942C
:10294000C3248F2D65960FB6F894DEBF0FBECDBFA2
:10295000DF91CF911F910F91FF90EF90DF90CF907B
:10296000BF90AF909F908F90089528E0929F800D28
:102970001124682F669566956695982F977085E067
:10298000689FB001112440E050E080E0FB01E40FBB
:10299000F51FE551FE4F208130E0092E02C036952B
:1029A00027950A94E2F721703327042E01C0220FE5
:1029B0000A94EAF7822B4F5F5F4F4530510531F79C
:1029C000089528E0929F800D1124E82FE695E69562
:1029D000E695877051E001C0550F8A95EAF785E0CA
:1029E000E89FF0011124E551FE4F20E030E070E057
:1029F0004081CB01022E02C0969587950A94E2F79A
:102A00008170819584278523842781932F5F3F4F91
:102A10002530310569F708950E94FB276093A301D3
:102A20007093A4018093A5019093A6010C940D12BC
:102A30000F931F9341E050E060E070E004C0440F4A
:102A4000551F661F771F8A95D2F740955095609560
:102A500070958091A3019091A401A091A501B091DE
:102A6000A6018A019B01082319232A233B23C901BC
:102A7000B8011F910F910C940C150F931F9341E017
:102A800050E060E070E004C0440F551F661F771FE0
:102A90008A95D2F78091A3019091A401A091A501FC
:102AA000B091A6018A019B01082B192B2A2B3B2BE5
:102AB000C901B8011F910F910C940C156093130379
:102AC0007093140380931503909316030C940D12C6
:102AD0001092110380911001882331F080918602B9
:102AE00087FF02C08EE101C086E0E6EAF2E0DF0186
:102AF0001D928A95E9F70C940D12CF93DF93CDB711
:102B0000DEB760970FB6F894DEBF0FBECDBF298742
:102B10003A874B875C876D877E878F87988BCE013E
:102B200009960E94CD12811151C088E0FE013996AC
:102B3000DE01119601900D928A95E1F779856A85FB
:102B40004C855D854115510531F06F3F31F481E0D1
:102B50007F3F19F403C081E001C080E080FD36C0F2
:102B6000A091CC02B0E0CD01019687709927209109
:102B70000D0330E08217930781F179836A835D83C7
:102B80004C8393E0AA0FBB1F9A95E1F7A353BD4F67
:102B900098E0FE01319601900D929A95E1F78093AD
:102BA000CC020E94B92412C028E0829FC0011124E7
:102BB00083539D4F0E94CD128823E1F080910D0335
:102BC00090E001968770992780930D0380910D0303
:102BD0009091CC028913E8CF0DC00E946815109225
:102BE000CC0210920D03E4ECF2E088E0DF011D92CC
:102BF0008A95E9F760960FB6F894DEBF0FBECDBF99
:102C0000DF91CF910895882321F00E9412240C9423
:102C100019240895882339F090911103892B80930A
:102C200011030C9419240895882379F19CEF980FCF
:102C3000913A30F4682F84EA92E00E9449190DC05D
:102C400090E2980F983058F4877091E001C0990F86
:102C50008A95EAF7892F0E9412240C9419249BE587
:102C6000980F933020F480E090E00C94BC1998E524
:102C7000980F973120F480E090E00C94A6198D3ED7
:102C800020F00E94741F0C94561F0895CF93882340
:102C900009F472C0C82F8CEF8C0F813AC0F5809177
:102CA00010018823E1F08091860287FF18C0EC2F85
:102CB000E695E695E695F0E0EC55FD4F8281282FEC
:102CC00030E04C2F477081E090E002C0880F991FE0
:102CD0004A95E2F782239323892B61F412C0E6EA36
:102CE000F2E08CEA92E02191C21721F08E179F0743
:102CF000D1F707C06C2F84EA92E00E9449190E9424
:102D000019246C2F84EA92E00E94711910C080E2AD
:102D10008C0F883078F4C77081E090E001C0880F94
:102D2000CA95EAF790911103892B80931103CF91F3
:102D30000C941924EBE5EC0FE33040F4F0E0E75994
:102D4000FE4F808190E0CF910C94BC19E8E5EC0F28
:102D5000E73150F4F0E0EE0FFF1FE459FE4F8081A1
:102D60009181CF910C94A619CD3E30F08C2F0E940A
:102D70002D20CF910C94561FCF91089508958091E6
:102D8000B001089508958093880270938A02609339
:102D900089028091D301843001F582E08093E900BB
:102DA0008FEF9091E800815095FD06C095ED9A95C2
:102DB000F1F700008111F5CF8091E80085FF0DC08B
:102DC00040E050E063E070E088E892E00E943C0D53
:102DD0008091E8008E778093E8000895BC0184E03C
:102DE0000C94C316BC0183E00C94C31622E020931C
:102DF000E9002FEF3091E800215035FD06C035ED98
:102E00003A95F1F700002111F5CF2091E80025FF58
:102E10000BC040E050E066E070E00E943C0D809105
:102E2000E8008E778093E8000895CF93DF93209198
:102E30001001222339F02091860227FF03C060E2AF
:102E400022E002C068E021E02093E9002FEF3091FA
:102E5000E800215035FD06C035ED3A95F1F7000048
:102E60002111F5CF2091E80025FF1DC0EC018091D4
:102E70001001811105C040E050E068E070E003C03F
:102E800070E040E050E0CE010E943C0D8091E800EF
:102E90008E778093E80080E2FE01A1EBB1E0019023
:102EA0000D928A95E1F7DF91CF9108959F92AF92AD
:102EB000BF92CF92DF92EF92FF920F931F93CF9327
:102EC000DF93FC01A280948081E08483E1EEF2E054
:102ED000B490E0E6F3E0E491C9EFD1E0F0EFEF2E3B
:102EE000F1E0FF2ECC24CA94D12CEB190E2F10E068
:102EF00022E02A1530F08091DE0188838091DF0185
:102F00008983911003C01B821A8255C08B8188234C
:102F1000F9F081508B832FEF829FC00111246C81C7
:102F200070E00E94F82BFB01FF27EF51FD4F8491C9
:102F3000E82FEB192FEFE29FC0011124B8010E9486
:102F4000F82B8091E001689FB00111247A8333C08F
:102F50000E9485292091E0012695215830E0A901A1
:102F6000440F551F322F2227240F351F232F3327BD
:102F70008217930704F582E08A1588F40E94852958
:102F8000B6010E940C2C88830E9485292091DF01C4
:102F90002695622F70E00E940C2C280F29831A823C
:102FA0008091E001843120F0893C18F088EC01C068
:102FB00084E18C838B834A81453B08F044EB970185
:102FC000698188810E94E51C259623E0E20EF11CB0
:102FD00082E0C830D80709F08BCFDF91CF911F91E5
:102FE0000F91FF90EF90DF90CF90BF90AF909F90A8
:102FF0000C947B1D2091E4003091E50095E6409112
:10300000EC00842F817040FF23C08091E80080FD98
:103010001DC08091D301882399F0853099F080916B
:10302000EB0085FD11C04091E4005091E5002417AC
:10303000350729F3915011F09A01E1CF84E008950A
:1030400082E0089583E0089581E0089580E0089586
:103050004091E80042FFDDCF08958091D50187FFC0
:1030600011C08091E80082FD05C08091D3018111DB
:10307000F8CF11C08091E8008B770BC08091D3010D
:10308000882349F08091E80080FFF8CF8091E80024
:103090008E778093E8000895982F973068F5909385
:1030A000E900981739F07091EC002091ED005091F3
:1030B000F00003C0242F762F50E021FD02C09F5F57
:1030C000ECCF3091EB003E7F3093EB003091ED0080
:1030D0003D7F3093ED003091EB0031603093EB0099
:1030E0007093EC002093ED005093F0002091EE00DF
:1030F00027FDE5CF80E008958F708093E90081E09F
:1031000008952091DB013091DC012617370748F044
:103110006115710539F42091E8002E772093E800BD
:1031200001C0B901FC0120E06115710579F18091C0
:10313000D3018823F1F18530F1F18091E80083FD1E
:103140003CC08091E80082FD2EC08091E80080FFA5
:10315000EBCF2091F3008091F20090E0922B61156B
:10316000710551F08830910538F421912093F100D8
:10317000615071090196F3CF21E0089709F020E032
:103180008091E8008E778093E800CECF2111CFCFD9
:103190000AC08091D301882361F0853061F080916D
:1031A000E80083FD0AC08091E80082FFF2CF80E052
:1031B000089582E0089583E0089581E00895789469
:1031C0001F920F920FB60F9211248F939F93AF937C
:1031D000BF938091820290918302A0918402B0916A
:1031E00085020196A11DB11D8093820290938302F6
:1031F000A0938402B0938502BF91AF919F918F916C
:103200000F900FBE0F901F9018959C014FB7F89428
:103210008091820290918302A0918402B0918502F4
:103220004FBF821B930B08952FB7F89480918202B1
:1032300090918302A0918402B09185022FBF0895DE
:103240001F920F920FB60F9211248F939F93AF93FB
:10325000BF9380918102811113C08091820290916D
:103260008302A0918402B09185024196A11DB11DF7
:103270008093820290938302A0938402B09385028C
:10328000BF91AF919F918F910F900FBE0F901F90A4
:103290001895209110012223C9F02091860227FF62
:1032A00015C0262F2695269526952E31C8F4FC01AB
:1032B000E20FF11D677081E090E001C0880F6A9510
:1032C000EAF780959281892382830895FC0106960E
:1032D0002281621301C012823196E817F907C1F703
:1032E0000895209110012223C1F02091860227FF2A
:1032F00014C0262F2695269526952E3130F5FC01F3
:10330000E20FF11D677081E090E001C0880F6A95BF
:10331000EAF79281892B82830895FC0132962FEF80
:1033200030E04191641789F02F3F19F4411101C039
:10333000232F3F5F3630A9F72F3F39F0FC01E20F12
:10334000F11D27FDFA9562830895089520917F026B
:10335000309180022817390771F090938002809392
:103360007F02E0917D02F0917E02309721F000848F
:10337000F185E02D0994089520917B0230917C0223
:103380002817390771F090937C0280937B02E091BB
:103390007D02F0917E02309721F00680F781E02DCA
:1033A00009940895E0917D02F0917E02309739F002
:1033B00022E0DC012C930480F581E02D099408952E
:1033C000E0917D02F0917E02309721F00190F08132
:1033D000E02D099480E00895EF92FF920F93CF9330
:1033E000DF93C42FD22FFC0182818823D1F0409338
:1033F0007A020E941419909379028093780280E2F5
:103400008C0F883008F06DC0C77081E001C0880F54
:10341000CA95EAF7DF91CF910F91FF90EF900C944E
:103420000A1680917A0248134BC0809178029091DD
:1034300079020E940519843B910508F041C0CD171F
:10344000C9F080E28C0F883040F4C77081E001C081
:10345000880FCA95EAF70E94031680E28D0F883024
:1034600048F481E09D2F977001C0880F9A95EAF784
:103470000E940A16093319F0E12CF12C03C080E5F3
:10348000E82EF12C802F0E944616E114F10451F031
:103490008FE99FE00197F1F700C0000091E0E91A81
:1034A000F108F3CF802F0E94141680E28D0F883030
:1034B000C0F4D77081E001C0880FDA95EAF70AC03E
:1034C00080E28C0F883068F4C77081E001C0880FFB
:1034D000CA95EAF7DF91CF910F91FF90EF900C948E
:1034E0000316DF91CF910F91FF90EF900895BC01EB
:1034F0004091740280917502942F981729F1292F19
:1035000030E0F901EE0FFF1FE459FD4F0190F0810B
:10351000E02DE617F70799F487E0869FF001879F73
:10352000F00D1124EF5EFE4F81E0848394130CC0F4
:103530002F5F3F4F237033272093740208952F5F2E
:103540003F4F922F9370D9CF08950F931F93CF932E
:10355000DF9380910B02882309F451C0C0910A02C5
:103560001CE080910B02C81708F045C001E00C0F69
:1035700000930A02D0E01C9FF0011D9FF00D112462
:10358000E45FFD4F9081818123813481232B31F0D1
:103590008F3F31F481E09F3F19F403C081E001C007
:1035A00080E080FD26C01C9FD0011D9FB00D11241E
:1035B000A45FBD4F16968D919C911797892B31F47E
:1035C00018968D919C911997019651F42081318123
:1035D0004281538164817581868197810E947D1526
:1035E0001C9FF0011D9FF00D1124E45FFD4F14821C
:1035F0001382C02FB6CF10920B0210920A02DF91F5
:10360000CF911F910F910895109209021092080214
:10361000E1E1F1E08581811102C0148216823796C2
:1036200081E0E433F807B1F7089510927702109221
:1036300076021092340180917502809374020E9488
:10364000041B0C94A51A2F923F924F925F926F9297
:103650007F928F929F92AF92BF92CF92DF92EF9222
:10366000FF920F931F93CF93DF93C0917402E7E013
:10367000FE2E01E010E0FCE02F2EAEEFEA2E80914E
:103680007502C81709F479C0D0E0FE01EE0FFF1FE4
:10369000E459FD4F80819181F89EF001F99EF00D73
:1036A0001124EF5EFE4F2481211164C060900B0253
:1036B000ACE0B2E020E030E0712C5F01261508F0AC
:1036C00057C01A964D905C901B97F50180809180B1
:1036D0004FEF5FEF312CC32CD12CF601EE0FFF1F03
:1036E000E80DF91D659174914616570609F4A60177
:1036F000672B11F03394EFCF4F3FFFEF5F07A1F13E
:10370000B80102C0660F771F4A95E2F7762AA80132
:1037100002C0440F551F3A94E2F741505109672DFA
:1037200070E046175707E1F4229EF001239EF00D4A
:103730001124E45FFD4FF89ED001F99EB00D1124D5
:10374000AF5EBE4F12962D913C911397378326831F
:10375000E082E1829187808771E015967C9308C0B2
:1037600014961C921E9213972F5F3F4F1C96A6CF64
:103770000E94771A2196C37082CF0E94A51ADF910A
:10378000CF911F910F91FF90EF90DF90CF90BF905E
:10379000AF909F908F907F906F905F904F903F90F1
:1037A0002F900C94041B96E890937A00982F9072B7
:1037B000906890937B008F71806480937C008091EF
:1037C0007A00806480937A0080917A0086FDFCCF35
:1037D000809178002091790090917A009F77909362
:1037E0007A0090E0922B0895873941F178F486337E
:1037F00049F130F4843321F1853331F584E20895C1
:103800008439D1F0863901F581E20895843F71F061
:1038100030F4803FD9F0813FB9F481E00895863FCC
:1038200049F030F0873F81F487E0089584E00895FF
:1038300085E0089586E0089580E2089582E2089583
:1038400083E2089585E208958FE1089580E0089568
:10385000E82FE295EF70F0E092A18F7021E030E068
:10386000082E01C0220F0A94EAF7209561FB442735
:1038700040F9082E01C0440F0A94EAF79223492B1D
:1038800042A391A16170772701C0660F8A95EAF77C
:103890002923622B61A30895E82FE295EF70F0E0F1
:1038A00022A1482F4F7091A130E0042E02C035951F
:1038B00027950A94E2F721703327220F331F892FAF
:1038C00090E002C0959587954A95E2F78170992717
:1038D000822B932B0895882311F0FA0101C0FB017C
:1038E00009946091DD01669570E041E050E085E368
:1038F00091E00E94262C892B19F481E08093A2028A
:103900000E94141990939C0280939B0208958091C9
:10391000DD01282F269530E02115310519F481703D
:10392000826005C02830310524F081708E6080935C
:10393000DD018091E001853B18F084EB8093E0018C
:103940000895CF92DF92EF92FF926B017C010E946B
:10395000871CB701A60188E090E0FF90EF90DF9010
:10396000CF900C94C4298091E101882319F08150F3
:103970008093E1016091DD017091DE018091DF01B2
:103980009091E0010C94A11C8091E101833018F426
:103990008F5F8093E1016091DD017091DE01809184
:1039A000DF019091E0010C94A11CEDEDF1E083E0CA
:1039B000808311828FEF828384EB83831482608102
:1039C0007181828193810C94A11CAF92BF92CF929E
:1039D000DF92EF92FF920F931F93CF93DF93E82E26
:1039E000F62EE901E42FF0E0611106C0EF51FC4F23
:1039F000E4914E2F2E2F71C0062F10E0EF51FC4F97
:103A00004491F42FC42ED12C26E0829FC0011124B2
:103A10002FEF30E0B9010E94F82B5BEA5603C0019A
:103A2000579F900D11248E0D911D8E0D911D582FB5
:103A3000550F580FD901A01BB10BAC9DC001AD9D16
:103A4000900DBC9D900D1124E92FF59ED0011124FD
:103A5000AB2FBB277901EA1AFB0AEC9CD001ED9C45
:103A6000B00DFC9CB00D11245901A51AB108A09EFF
:103A70007001A19EF00CB09EF00C1124EF2CFF24DD
:103A80002E193F092C9D80012D9D100D3C9D100D80
:103A90001124212F6230710591F048F461157105F0
:103AA000E1F061307105B9F4242F4B2F16C064305A
:103AB000710569F040F06630710579F00CC0242F73
:103AC000492FE12F0AC0492FEF2F2B2F06C0292F96
:103AD000E42F412F02C0292FEB2F49832883EA834B
:103AE000DF91CF911F910F91FF90EF90DF90CF90DA
:103AF000BF90AF9008956F927F928F929F92AF92F6
:103B0000BF92CF92DF92EF92FF920F931F93CF93CA
:103B1000DF9300D000D01F92CDB7DEB78091DD01DA
:103B200080FF08C08090990290909A0281149104BD
:103B3000A1F42DC01092F1011092F0011092F20147
:103B40001092F4011092F3011092F5011092F70116
:103B50001092F6011092F801E5CF80919802811140
:103B600016C0A12CB12C66246394712C2091A30261
:103B7000C3010A2C01C0880F0A94EAF7822309F4D2
:103B800048C0F401C590D490C114D10459F5539A9A
:103B90008BB1877F9BB198602FB7F894E0EFF1E08D
:103BA00044C010E08A819801280F311DC9012430DA
:103BB000310514F083E090E07C01EE0CFF1C8E0DCB
:103BC0009F1D9C0120513E4F7901C801880F991F0C
:103BD000080F191F00511E4F0E151F0570F035E01C
:103BE000C30ED11C45E050E0B601CE0101960E9403
:103BF000952909810F3FA9F60CC04D81453B08F07E
:103C000044EB98016C818B810E94E51C0D5F1F4F76
:103C1000E3CF82E0880E911C9FEFA91AB90A23E036
:103C2000A216B10409F0A2CFB2CF31E0E93FF30709
:103C300089F0319148E09BB9000000C037FF8BB993
:103C4000330F000000C000C000C08BB900C04A950F
:103C500091F7EBCF2FBF8FE594E00197F1F700C00C
:103C600000000F900F900F900F900F90DF91CF9169
:103C70001F910F91FF90EF90DF90CF90BF90AF908A
:103C80009F908F907F906F900895EF92FF920F9387
:103C90001F93CF93DF9300D01F92CDB7DEB79091E3
:103CA000DD0190FF46C0E22E142F062FF82EE92FDB
:103CB000E695F0E0EF59FE4F80818093A1029E7F50
:103CC000923029F5453B08F044EB9E012F5F3F4FB2
:103CD000602F8F2D0E94E51C8091DD0180FF17C0B1
:103CE0008B8199812A812093F1019093F001809337
:103CF000F2012093F4019093F3018093F501209356
:103D0000F7019093F6018093F8010E947B1DF092D9
:103D1000DE010093DF011093E001EE2051F060918D
:103D2000DD017091DE018091DF019091E0010E9440
:103D3000A11C0F900F900F90DF91CF911F910F91C9
:103D4000FF90EF900895EDEDF1E043812CE3421BED
:103D500008F440E021E0628181810C94451EEDED84
:103D6000F1E043812CE3420F08F44FEF21E0628140
:103D700081810C94451EEDEDF1E062812AE0621B29
:103D800008F460E021E0438181810C94451EEDED53
:103D9000F1E062812AE0620F08F46FEF21E04381D5
:103DA00081810C94451EEDEDF1E0818121E043819C
:103DB000628185500C94451EEDEDF1E0818121E09A
:103DC000438162818B5F0C94451E9091DD0190FFD1
:103DD00036C09170811102C0926006C0883010F028
:103DE0009E6002C0880F982B9093DD01662351F0EE
:103DF0006091DD017091DE018091DF019091E00121
:103E00000E94A11C6091DD01669570E041E050E0E8
:103E100085E391E00E94262C892B19F01092A202D2
:103E200002C00E94711C81E080939E0220E04091BC
:103E3000E0016091DF018091DE010C94451E089540
:103E400021E030E0A90102C0440F551F8A95E2F736
:103E5000CA012091A302662311F0822B02C0809533
:103E600082238093A3028091A202811106C08091D7
:103E7000DD0160E086950E94E51E8091DD0180FFF6
:103E80000C947B1D08958091DD018695815009F485
:103E900087E061E00C94E51E8091DD0186958F5FDF
:103EA000883008F081E061E00C94E51E0E9414194E
:103EB00020919402211104C020919502222321F027
:103EC000909391028093900220919602211104C058
:103ED00020919702222321F090938F0280938E02EB
:103EE00082E992E00C94D2198D3E39F490919502BA
:103EF00097FF35C01092950259C08E3E29F49091DB
:103F000095021916BCF32BC0909194028F3E29F4B0
:103F100097FF25C01092940249C0803F19F41916EA
:103F2000CCF31DC090919602893F29F41916BCF478
:103F3000109296023BC08A3F19F497FF10C0F8CF49
:103F40008B3F39F49091970297FF09C01092970226
:103F50002DC08C3F21F4909197021916BCF39FE07D
:103F6000980F983080F421E030E0A90102C0440F9E
:103F7000551F9A95E2F7CA01809590919302892383
:103F80008093930213C08D3F21F480918D028E7F28
:103F90000BC08E3F21F480918D028D7F05C08F3F35
:103FA00029F480918D028B7F80938D028091940201
:103FB000811106C080919502811102C010928C027D
:103FC00080919602811106C080919702811102C0F2
:103FD00010928B02089580918D0280FD16C081FDA4
:103FE00016C082FD18C080918B02882391F0883220
:103FF00090F428E0829FC001112468E270E00E94E2
:104000000C2C862F672B29F007C082E0089584E0EE
:10401000089581E0089588E0089580918D0280FDE3
:1040200014C081FD14C082FD16C080918C028823CB
:1040300081F0843180F422E3829FC001112464E185
:1040400070E00E940C2C862F08958CE0089589E181
:10405000089585E0089582E308958D3E21F40E943D
:104060000D20819504C08E3E29F40E940D2080937E
:10407000950208958F3E21F40E940D20819504C081
:10408000803F29F40E940D20809394020895893F77
:1040900019F40E94EB1F05C08A3F31F40E94EB1F08
:1040A00081958093960208958B3F21F40E94EB1F27
:1040B000819504C08C3F29F40E94EB1F80939702E6
:1040C00008959FE0980F983078F421E030E0A9013E
:1040D00002C0440F551F9A95E2F7CA0190919302CE
:1040E000892B8093930208958D3F21F480918D0256
:1040F00081600BC08E3F21F480918D02826005C0EB
:104100008F3F29F480918D02846080938D02089501
:1041100080E008959091860292FF0DC0282F2871AB
:10412000283019F4877F846006C0282F247124303A
:1041300011F48B7F886093FF0DC0282F28712831E0
:1041400019F4877E846106C0282F2471243111F46C
:104150008B7E88612091870220FF0DC0382F387137
:10416000383019F4877F816006C0382F31713130C3
:1041700011F48E7F886021FF0DC0282F287128310F
:1041800019F4877E816106C0282F2171213111F435
:104190008E7E886194FD877E0895EF92FF920F9343
:1041A0001F93CF93DF93E8E3F1E060E471E080E0F8
:1041B00041E091919F3FA1F0A92FA295AF70B0E08F
:1041C00090962C9130E09F7002C0359527959A9576
:1041D000E2F720FD02C0242F02C020E030E0822B55
:1041E000440F6E177F0729F79091A701C1E098133C
:1041F00001C0C0E0981759F08093A70181E0809337
:1042000019030E9414199093180380931703809147
:104210001903882371F080911703909118030E946D
:104220000519059730F08091A7018093AA0110929B
:10423000190380913401882341F180917602909195
:104240007702009711F10E94051920910802309120
:10425000090228173907C8F49091740280917502F9
:10426000981759F00E94231B10920902109208021D
:10427000109277021092760208C00E94A51A10923E
:104280007702109276020E94041B6091A301709144
:10429000A4018091A5019091A6010E943225D82FFA
:1042A000882309F49BC086EF0E942F28082F85EFF2
:1042B0000E942F28011109C0811107C086E990E0F2
:1042C000909337018093360189C080911A039091B1
:1042D0001B030E94051920913601309137012817E0
:1042E000390708F07BC00E94141990931B03809338
:1042F0001A0386EF0E942F28F82E85EF0E942F28A0
:10430000082FEF2D0F2C000CFF0BBF01F7FF04C08F
:10431000662777276E1B7F0B202F002E000C330B98
:10432000A90137FF04C044275527421B530B80E4E3
:1043300096E046175707C4F40E94F82B84E18F15C6
:104340003CF490E1D99FF0011124E951FB4F24C0C6
:10435000F195E195F109759714F180E1D89FF0018D
:104360001124ED51FB4F18C0BA010E94F82B053102
:104370003CF090E1D99FF0011124EF51FB4F0CC0AC
:10438000319521953109253131054CF080E1D89FD7
:10439000F0011124E751FB4F85919491182F7093F0
:1043A000370160933601193319F0E12CF12C03C069
:1043B00080E5E82EF12C812F0E944616E114F104CD
:1043C00051F08FE99FE00197F1F700C0000091E004
:1043D000E91AF108F3CF812F0E9414168C2FDF9178
:1043E000CF911F910F91FF90EF900895CF93DF939E
:1043F0008238910569F1B0F48133910509F46FC0F9
:1044000048F48932910509F465C08A32910509F4AE
:104410006BC08AC08533910509F457C08933910573
:10442000B9F082C0833E910571F138F4803E910568
:10443000B1F0823E910511F177C0863E9105B9F148
:10444000873E9105C9F1843E910509F06DC024C0F5
:104450002091860220FD53C021FD51C065C080918E
:10446000860280FD46C08091870280FF48C080910F
:10447000860284FD50C183EE90E04FC18091860298
:1044800082FF3AC0F4CF8091860282FD35C08091D0
:10449000870280FD34C0EBCF8091870281FF35C059
:1044A0008091860284FD37C187EE90E036C180910D
:1044B000860283FF27C0F4CF8091860283FD22C04D
:1044C0008091870281FD21C0EBCF8091860285FD1E
:1044D0001FC021C08091860285FD1DC019C080913A
:1044E000860286FD1BC01DC08091860286FD19C014
:1044F00015C089E390E011C182EE90E00EC180EE1C
:1045000090E00BC186EE90E008C184EE90E005C11A
:1045100089E290E002C185E390E0FFC08AE290E08A
:10452000FCC081E390E0F9C0811531E5930708F004
:1045300069C0811540E59407F0F09C0174E0369560
:1045400027957A95E1F7922F9370482F437021E0D9
:1045500030E002C0220F331F4A95E2F73C68392B46
:10456000982F9F709695969540E2949FC0011124D4
:10457000822B932BD2C0883E910568F5803E910531
:1045800008F0CBC0883A9105B8F4853A910548F017
:10459000855AE82FF0E0E759FE4F808190E0906463
:1045A000BCC08130910509F4B3C008F4B4C08430B4
:1045B000910508F4B0C0B1C08F3B910508F0ABC0C5
:1045C000885AE82FF0E0EE0FFF1FE459FE4F80817C
:1045D00091819464A2C0811520E2920758F481155C
:1045E00031E0930708F099C08D3E910508F493C01F
:1045F000906593C0811540E4940708F48CC09F70C7
:10460000906A8BC0811525E5920708F042C081159C
:1046100034E5930728F0982F8827846F906A7DC02F
:10462000811543E59407B0F09C012370332741E0E6
:1046300050E002C0440F551F2A95E2F7282F269517
:10464000269580E2289F90011124CA01822B932B8A
:104650009A6863C0811522E5920728F4982F88276D
:10466000816F906A5AC09C012370332741E050E06B
:1046700002C0440F551F2A95E2F7282F269526954C
:1046800080E2289F90011124CA01822B932B9C6801
:1046900044C0EC01811539E59307A8F481159845CC
:1046A00028F09C2F8827806F906A37C0C11586E557
:1046B000D80788F58C2F0E948A208F7190E0982F60
:1046C000882790622AC081152AE5920790F48C2FE2
:1046D0008F700E948A2094E0D695C7959A95E1F74D
:1046E000CF70D0E0DC2FCC27D0699E01282BC901E8
:1046F00014C090568115904270F48D2F8F710E94D6
:104700008A20282F2F71CE0199279062922B05C005
:1047100081E090E002C080E090E0DF91CF910895C9
:10472000CF9384E090E00E949E29C82F82E290E01F
:104730000E949E292C2F30E0A901582BCA01CF914D
:10474000089569EE7EEF80E090E00E94D02960E05D
:1047500082E090E00E94B22960E083E090E00E9455
:10476000B2291092130310921403109215031092A1
:10477000160360E084E090E00E94B22960E082E2EB
:1047800090E00E94B22960E085E090E00E94B229AA
:1047900060E086E090E00E94B2296FEF87E090E051
:1047A0000E94B22940E050E0BA0188E090E00E9407
:1047B000C42960E08DE090E00E94B22940E050E022
:1047C000BA0188E190E00E94C42960E087E190E0AE
:1047D0000E94B22940E050E0BA018CE190E00E94D2
:1047E000C42960E070E080E290E00E94D02940E0BF
:1047F00050E0BA0188E190E00E94C42940E050E016
:10480000BA018FE090E00E94C42940E050E0BA0174
:1048100083E190E00C94C4298091120381111092DD
:1048200012030895809590911103892380931103B9
:1048300008959091110380911003892B20910F030B
:10484000982F922B9093A402809112038823D9F081
:10485000892B8093A40280911001882331F08091EC
:10486000860287FF02C08EE101C086E0E6EAF2E040
:1048700090E0815028F021912223D9F39F5FF9CF56
:1048800091110E940C24E0917D02F0917E023097FC
:10489000A9F080911001882359F08091860287FF4A
:1048A00007C08091A4028093A50286E08093A402B1
:1048B0000280F381E02D84EA92E00994089520912A
:1048C0000E038095822380930E03982F977099F49E
:1048D00030E0482F082E000C550B2417350759F0EF
:1048E0009091870292FD07C08595859585950E94D8
:1048F000181510920E030895CF93C0918702C2FB42
:10490000992790F9981799F080FBC2F9C093870214
:104910006091860284E090E00E94B2296C2F82E2CE
:1049200090E00E94B22982E0CF910C945F24CF9155
:10493000089520910D039091CC022917B1F030E039
:10494000F90153E0EE0FFF1F5A95E1F7E353FD4FD6
:104950005181561306C05081581303C0528154131D
:1049600006C02F5F3F4F2770E8CF80E0089581E0B9
:10497000089580910D039091CC02891719F08F5FF3
:104980008770FBCF08951F93CF93DF938091C90267
:1049900082958F7009F05CC08091C602882309F46B
:1049A00057C080910D031091CC026091C4027091A8
:1049B000C502C091C702D091C80291E06F3F09F0D3
:1049C00090E0292F811709F443C0209721F07F3F01
:1049D00021F030E003C031E001C0322F90E030FD23
:1049E00034C0FC0133E0EE0FFF1F3A95E1F7DF0121
:1049F000A353BD4F11963C911197371326C03C919C
:104A0000361323C012963C91129731111EC0139693
:104A10004D915C9114974C1B5D0B443B5105A8F4E0
:104A20008091C9028F7080618093C902EE52FD4F60
:104A300080818F708061808384EC92E00E94D2023A
:104A4000DF91CF911F910C94B92401968770BACF52
:104A5000DF91CF911F91089581FB662760F980E077
:104A60000C94201FCF92DF92EF92FF926C01EE2404
:104A7000FF24C114D104E104F10421F0C701B601FF
:104A800020E101C020E0C72ED82EE92EFF24C1145A
:104A9000D104E104F10419F0285FC701B6016B01EC
:104AA0007C0154E0F694E794D794C7945A95D1F7D3
:104AB000C114D104E104F10419F02C5FC701B6015F
:104AC0006B017C0142E0F694E794D794C7944A9531
:104AD000D1F7C114D104E104F10419F02E5FC7012C
:104AE000B601DC01CB01B695A79597958795892BE3
:104AF0008A2B8B2B09F02F5F822FFF90EF90DF9096
:104B0000CF9008951F93CF93DF9300D000D01F92D2
:104B1000CDB7DEB7FC0186819781009771F5CF0193
:104B200025E0DE01119601900D922A95E1F7FC0136
:104B3000228189819A81222359F0662349F00E94BB
:104B40002A12182F682F89819A810E94E11403C0CC
:104B50000E94B514182FEA81F0E0E10FF11D83E007
:104B6000EE0FFF1F8A95E1F78981E80FF11DEE0F27
:104B7000FF1FEF51FB4F859194910F900F900F9075
:104B80000F900F90DF91CF911F9108952F923F9238
:104B90004F925F926F927F928F929F92AF92BF924D
:104BA000CF92DF92EF92FF920F931F93CF93DF93F9
:104BB000CDB7DEB76B970FB6F894DEBF0FBECDBF93
:104BC000498B5A8B6B8B7C8B8D8B611110921003F0
:104BD0009E01275F3F4F88E0F90111928A95E9F71E
:104BE00085E0FE017196D90101900D928A95E1F759
:104BF00089859A854C855D85452B31F09F3F31F441
:104C000091E08F3F19F403C091E001C090E090FD66
:104C1000CFC161E0C9010E9482256C01883FFCE59B
:104C20009F0739F48B858823A1F081E080933401BC
:104C3000BFC1893F2CE5920731F48B85882349F069
:104C40000E94151BB5C18A3F9C4519F48B858111C3
:104C500011C001E111E0712CA12CB12C88248394A6
:104C6000912C55245394CE0101969F8B8E8B77E027
:104C7000472E38C0809134018823B9F2E1CFFFEF8D
:104C8000EF16FF0609F442C1F8016481611145C0C5
:104C900020913401822F81706B84F8013581268147
:104CA000662009F4DBC0882309F4D8C03323C1F19E
:104CB000940102C0220F331F9A95E2F72150310967
:104CC000F801868190E02817390709F43FC076285B
:104CD000FFEFAF1ABF0A095F1F4F25E0A216B1040C
:104CE00009F416C1F801208131816FEF8FEF90E058
:104CF000E92EF12CF701EE0FFF1FE20FF31F459194
:104D00005491C416D50611F0E62EF82E452B09F461
:104D1000B6CF9F5F6E2D8F2DEBCF20E030E0BACF66
:104D2000A40101C0440FEA94EAF7242B26832091C2
:104D30000802309109022233310508F0B9CF22E38D
:104D400030E03093090220930802B2CF80917602BE
:104D500090917702009729F00E940519C39708F0F7
:104D600024C180917402B0917502982FE0E0F0E0C8
:104D70008B1709F45FC0282F30E0F901EE0FFF1FF9
:104D8000E459FD4FE080F1804E9CF0014F9CF00D06
:104D90001124EF5EFE4F40814A8F41814B8FA0E08E
:104DA00060E070E0EA8DFB8DE70FF11DE70FF11D6C
:104DB0002590349021143104D1F0F801F081F88F5E
:104DC000F801F181F98F60E0E88DF98DE60FF11DB2
:104DD000E60FF11D459154914115510531F024160E
:104DE000350609F4A1E06F5FEFCF7F5FDBCFAA2329
:104DF000D1F0671708F4D3C04E9CF0014F9CF00D22
:104E00001124EF5EFE4F309781F05482E017F107D6
:104E100019F4909374025BCF891307C0C9010196FE
:104E2000982F937002C0E0E0F0E02F5F3F4F822F99
:104E300083709ECF90937402E017F10709F447CF77
:104E400090E0FC01EE0FFF1FE459FD4FB182A082FC
:104E50000196837099278093750239CF311112C062
:104E6000A40102C0440F551F9A95E2F74150510921
:104E700030E042175307E9F56623E1F1C5010E94CE
:104E8000771A37C0822F90E09C01215031092823E6
:104E900039230E2C02C0959587950A94E2F7232BAF
:104EA00031F580FF24C0F80182819381892BD9F0EC
:104EB00088E0EE89FF8911928A95E9F78EEF898360
:104EC0008A830E9414198160582F9D838C83F80176
:104ED000828193818F83988729813A814B816D816B
:104EE0007E810E947D15F801158281E003C08170EA
:104EF00001C080E0940101C0220FEA94EAF72095F6
:104F0000F801968129232683682EE1CE612CDFCE1D
:104F10008B85882381F1772071F10E941419909379
:104F200077028093760280910B02883008F04AC0A5
:104F300091E0980F90930B0298E0FE013996DE0104
:104F4000119601900D929A95E1F74CE0849FC00173
:104F50001124845F9D4F28E0FE013196DC01019011
:104F60000D922A95E1F72FEF3FEFFC013187208763
:104F7000D386C28627C090917402809175029817DB
:104F800019F00E94231B08C00E94A51A10927702F4
:104F9000109276020E94041B772051F013C0011575
:104FA000110509F440CF90937402F80154828FCE1A
:104FB00029853A854B855C856D857E858F859889A9
:104FC0000E947D156B960FB6F894DEBF0FBECDBF65
:104FD000DF91CF911F910F91FF90EF90DF90CF90D5
:104FE000BF90AF909F908F907F906F905F904F9009
:104FF0003F902F900895CF92DF92EF92FF926B0136
:105000007C01611571058105910549F0DC01CB0139
:10501000B695A79597958795682F617001C060E058
:1050200081E00E94201FC114D104E104F10461F069
:10503000D701C60122E0B695A795979587952A9541
:10504000D1F7682F617001C060E082E00E94201FEC
:10505000C701B601FF90EF90DF90CF900895CF93F6
:105060000E94F41B0E94D31B811522E0920779F164
:10507000811522E0920734F460E072E0681B790B3E
:10508000C1E003C0BC017250CFEF072E000C880BAB
:10509000990B0E94F32A20E030E84FEF53E40E947E
:1050A000492A20E030E04EEF52E40E947F2B0E941C
:1050B000BB2A77FD0CC0603871052CF08FE7C89FC4
:1050C000802D112405C0C69F802D112401C080E0D1
:1050D000CF910895CF92DF92EF92FF92CF930E94EB
:1050E0002F28C82F082E000C990B009729F1BC011E
:1050F00097FF03C0719561957109072E000C880B0D
:10510000990B0E94F32A6B017C016C2FCC0F770B5B
:10511000880B990B0E94F32A9B01AC01C701B601D1
:105120000E947F2B20E030E04AE754E40E94492AA5
:105130000E94BB2A862F01C080E0CF91FF90EF90A4
:10514000DF90CF9008950F931F93CF93DF93CDB748
:10515000DEB76E970FB6F894DEBF0FBECDBF86E008
:10516000EDE9F1E0DE01539601900D928A95E1F7A9
:1051700086E0FE017396DE01599601900D928A95A4
:10518000E1F70D891E896091A3017091A4018091BE
:10519000A5019091A6010E943225811117C080912E
:1051A0001A0390911B030E9405190B9778F00E9437
:1051B000141990931B0380931A0386EF0E946A28A8
:1051C000082F85EF0E946A28182F11950B8F1C8FCE
:1051D00086E0FE017996DE011D9601900D928A957A
:1051E000E1F70F87188B86E0FE013D96ADE9B1E04F
:1051F00001900D928A95E1F786E0EDE9F1E0DE019C
:10520000179601900D928A95E1F786E0ECE1F3E0C4
:10521000DE01119601900D928A95E1F746E050E08B
:10522000BE016F5F7F4FCE0107960E94332C892B02
:1052300021F08DE991E00E94D21910929F01109205
:10524000A0011092A1011092A20186E0EDE9F1E027
:10525000ACE1B3E001900D928A95E1F76E960FB63E
:10526000F894DEBF0FBECDBFDF91CF911F910F919C
:1052700008958F929F92AF92BF92CF92DF92EF925A
:10528000FF92CF93DF93EC01688179818A819B81C2
:10529000611571058105910521F464E279ED8BE5D5
:1052A00097E02DE133EF41E050E00E94E62949010B
:1052B0005A019B01AC01A7EAB1E40E94052A6B01E7
:1052C0007C01ACEEB4EFA50194010E94132ADC012D
:1052D000CB018C0D9D1DAE1DBF1DB7FF03C00197F7
:1052E000A109B04888839983AA83BB839F77DF9104
:1052F000CF91FF90EF90DF90CF90BF90AF909F90B5
:105300008F9008950E943929089580E091E00E94CD
:1053100039290895A0E0B0E0809300019093010145
:10532000A0930201B09303010895FB01DC0102C0C8
:1053300005900D9241505040D8F70895F999FECF4D
:1053400092BD81BDF89A992780B50895A6E1B0E095
:1053500044E050E00C94D829A8E1B0E042E050E0ED
:105360000C94D829262FF999FECF92BD81BDF89AC9
:10537000019700B4021639F01FBA20BD0FB6F89499
:10538000FA9AF99A0FBE08950396272F0E94B3291F
:105390000E94B229252F0E94B329242F0C94B329EF
:1053A0000196272F0E94B3290C94B229DC01CB016E
:1053B000FC01F999FECF06C0F2BDE1BDF89A319625
:1053C00000B40D9241505040B8F70895052E97FB58
:1053D0001EF400940E94FD2957FD07D00E94182A50
:1053E00007FC03D04EF40C94FD2950954095309560
:1053F00021953F4F4F4F5F4F089590958095709541
:1054000061957F4F8F4F9F4F08950E943A2AA59F25
:10541000900DB49F900DA49F800D911D11240895AF
:10542000B7FF0C94052A0E94052A821B930B08954E
:10543000A1E21A2EAA1BBB1BFD010DC0AA1FBB1F98
:10544000EE1FFF1FA217B307E407F50720F0A21B0A
:10545000B30BE40BF50B661F771F881F991F1A9477
:1054600069F760957095809590959B01AC01BD01A1
:10547000CF010895A29FB001B39FC001A39F700DFB
:10548000811D1124911DB29F700D811D1124911D4C
:1054900008950E945D2A0C94452B0E943E2B58F0E3
:1054A0000E94372B40F029F45F3F29F00C942E2BFB
:1054B00051110C94792B0C94342B0E94562B68F3C9
:1054C0009923B1F3552391F3951B550BBB27AA27BD
:1054D00062177307840738F09F5F5F4F220F331FF7
:1054E000441FAA1FA9F335D00E2E3AF0E0E832D0BF
:1054F00091505040E695001CCAF72BD0FE2F29D0C2
:10550000660F771F881FBB1F261737074807AB0793
:10551000B0E809F0BB0B802DBF01FF2793585F4F08
:105520003AF09E3F510578F00C942E2B0C94792B79
:105530005F3FE4F3983ED4F3869577956795B795EA
:10554000F7959F5FC9F7880F911D9695879597F9F5
:105550000895E1E0660F771F881FBB1F621773076E
:105560008407BA0720F0621B730B840BBA0BEE1F83
:1055700088F7E09508950E94C22A6894B1110C94AE
:10558000792B08950E945E2B88F09F5798F0B92FD1
:105590009927B751B0F0E1F0660F771F881F991F68
:1055A0001AF0BA95C9F714C0B13091F00E94782B67
:1055B000B1E008950C94782B672F782F8827B85F77
:1055C00039F0B93FCCF3869577956795B395D9F7C0
:1055D0003EF490958095709561957F4F8F4F9F4FCA
:1055E0000895E89409C097FB3EF4909580957095D6
:1055F00061957F4F8F4F9F4F9923A9F0F92F96E91F
:10560000BB279395F695879577956795B795F11193
:10561000F8CFFAF4BB0F11F460FF1BC06F5F7F4F30
:105620008F4F9F4F16C0882311F096E911C0772342
:1056300021F09EE8872F762F05C0662371F096E84B
:10564000862F70E060E02AF09A95660F771F881F1A
:10565000DAF7880F9695879597F9089597F99F67D8
:1056600080E870E060E008959FEF80EC08950024EA
:105670000A941616170618060906089500240A94B7
:1056800012161306140605060895092E0394000C3D
:1056900011F4882352F0BB0F40F4BF2B11F460FFCC
:1056A00004C06F5F7F4F8F4F9F4F089557FD9058F5
:1056B000440F551F59F05F3F71F04795880F97FBD6
:1056C000991F61F09F3F79F0879508951216130690
:1056D0001406551FF2CF4695F1DF08C016161706BF
:1056E0001806991FF1CF86957105610508940895F4
:1056F000E894BB2766277727CB0197F908950E9486
:10570000922B0C94452B0E94372B38F00E943E2B95
:1057100020F0952311F00C942E2B0C94342B112493
:105720000C94792B0E94562B70F3959FC1F3950F23
:1057300050E0551F629FF001729FBB27F00DB11D15
:10574000639FAA27F00DB11DAA1F649F6627B00DA5
:10575000A11D661F829F2227B00DA11D621F739F8E
:10576000B00DA11D621F839FA00D611D221F749F9C
:105770003327A00D611D231F849F600D211D822FE3
:10578000762F6A2F11249F5750409AF0F1F088230A
:105790004AF0EE0FFF1FBB1F661F771F881F915037
:1057A0005040A9F79E3F510580F00C942E2B0C948D
:1057B000792B5F3FE4F3983ED4F386957795679510
:1057C000B795F795E7959F5FC1F7FE2B880F911D61
:1057D0009695879597F90895991B79E004C0991FCC
:1057E000961708F0961B881F7A95C9F7809508953B
:1057F000AA1BBB1B51E107C0AA1FBB1FA617B707F7
:1058000010F0A61BB70B881F991F5A95A9F7809512
:105810009095BC01CD01089597FB072E16F40094D6
:1058200007D077FD09D00E94F82B07FC05D03EF485
:10583000909581959F4F0895709561957F4F08953C
:10584000EE0FFF1F0590F491E02D0994FC014150EB
:10585000504030F001900616D1F73197CF010895EE
:10586000882799270895FB01DC0104C08D910190E0
:10587000801921F441505040C8F7881B990B0895B6
:04588000F894FFCFCA
:1058840001000000BF161517F616F216EE16BE1626
:1058940001DB02F300000000D3021250000000CB31
:1058A400021050000000C502CB5C000000BF02C71C
:1058B4005C000000010114003133F73236949091FA
:1058C400FFFFFF0000FF030000FFFFFF0000FF03D6
:1058D400000040B62AFD0147011D014F0268028104
:1058E400020001020202020202818283E200E90054
:1058F400EA00B500B600B700CD008301CC008A01F0
:105904009201940121022302240225022602270285
:0A5914002A02B300B4006F00700017
:00000001FF
