:100000000C94E3040C941B050C941B050C941B0529
:100010000C941B050C941B050C941B050C941B05E0
:100020000C941B050C941B050C9498220C94DA215B
:100030000C9459260C941B050C941B050C941B0561
:100040000C941B050C941B050C941B050C941B05B0
:100050000C941B050C9418260C941B050C941B0582
:100060000C941B050C941B050C941B050C941B0590
:100070000C941B050C941B050C941B050C941B0580
:100080000C941B050C941B050C941B050C941B0570
:100090000C941B050C941B050C941B050C941B0560
:1000A0000C941B050C941B050C941B05B208B80896
:1000B000A308A908BE08C408CA08240998092C097D
:1000C000F608FA083009FD0833093E0908098E09C7
:1000D0000C09420910094609700914094A097A09EC
:1000E0001A0950095A090109370904093A091F096F
:1000F0005509660986098809F2082809A109FA093B
:10010000500A550A5A0A5F0A640A690A6E0A730A93
:10011000780A7D0A840ACC09CC09CC09CC09CC091F
:10012000CC09CC09CC09890AE20AE20A150B150BA5
:100130007E0B9C0BB90CB90CA10B2F0C400C400C86
:10014000F71F1E20C2211E20C2216A208D20C2213D
:10015000832192217267626C696768742064697395
:1001600061626C65205B454550524F4D5D3A20728F
:1001700067626C696768745F636F6E6669672E6536
:100180006E61626C65203D2025750A007267626CA5
:100190006967687420656E61626C65205B454550D7
:1001A000524F4D5D3A207267626C696768745F6395
:1001B0006F6E6669672E656E61626C65203D2025F5
:1001C000750A007267626C6967687420746F67678C
:1001D0006C65205B454550524F4D5D3A2072676219
:1001E0006C696768745F636F6E6669672E656E61C0
:1001F000626C65203D2025750A0044454255473A0A
:100200002064697361626C65642E0A00444542553E
:10021000473A20656E61626C65642E0A00726762FF
:100220006C696768745F636F6E6669672E7370656B
:100230006564203D2025640A007267626C69676806
:10024000745F636F6E6669672E76616C203D202552
:10025000640A007267626C696768745F636F6E66D8
:1002600069672E736174203D2025640A00726762FD
:100270006C696768745F636F6E6669672E68756521
:10028000203D2025640A007267686C696768745FA6
:10029000636F6E6669672E6D6F6465203D2025640F
:1002A0000A007267626C696768745F636F6E666983
:1002B000672E656E61626C65203D2025640A0072C0
:1002C00067626C696768745F636F6E666967204513
:1002D0004550524F4D3A0A007267626C6967687404
:1002E0005F696E6974207267626C696768745F63C6
:1002F0006F6E6669672E6D6F6465203D20302E201D
:1003000057726974652064656661756C74207661E6
:100310006C75657320746F20454550524F4D2E0A01
:10032000007267626C696768745F696E69742065E2
:1003300065636F6E666967206973206E6F742065F0
:100340006E61626C65642E0A007267626C69676830
:10035000745F696E6974207374617274210A00722B
:1003600067626C696768745F696E69742063616C49
:100370006C65642E0A007267626C69676874206439
:10038000697361626C65205B4E4F454550524F4D1D
:100390005D3A207267626C696768745F636F6E664E
:1003A00069672E656E61626C65203D2025750A00C7
:1003B0007267626C6967687420656E61626C652043
:1003C0005B4E4F454550524F4D5D3A207267626C0F
:1003D000696768745F636F6E6669672E656E6162D8
:1003E0006C65203D2025750A005B735D000A0025C1
:1003F000303862003A200025303258000A722F63EC
:100400002030313233343536370A001E0F050A00EA
:1004100025303258006C65645F7461736B3A20005C
:100420004F6E6573686F743A206163746976653ADC
:100430002025640A000A002530325820006B6579B7
:10044000626F6172645F7265706F72743A2000D17E
:10045000002941D20000000000000000000000D18F
:1004600000D300D2000000000000000000000027C0
:1004700078217823780000000000000000000029A7
:100480000A002575002F002575005D2800256400F1
:100490002000256400200025640020002564007CE5
:1004A0000025303258006D6F7573656B6579205B80
:1004B00062746E7C782079207620685D2872657081
:1004C0002F61636C293A205B0000010101010101E9
:1004D00001010102020202020202020203030303FB
:1004E00003030303040404040404040505050505CB
:1004F0000606060606070707070708080808090989
:1005000009090A0A0A0B0B0B0C0C0C0D0D0D0E0E33
:100510000E0F0F0F101011111112121313141415C6
:100520001516161717181819191A1A1B1B1C1D1D3A
:100530001E1E1F2020212222232424252626272890
:1005400029292A2B2C2D2D2E2F30313232333435C0
:10055000363738393A3B3C3D3E3F404142434445C3
:10056000464748494A4C4D4E4F50515354555658A2
:10057000595A5B5D5E5F616264656668696B6C6D4C
:100580006F7072737577787A7B7D7E8082838587C2
:10059000888A8C8E8F91939596989A9C9EA0A2A300
:1005A000A5A7A9ABADAFB1B3B5B7BABCBEC0C2C405
:1005B000C6C9CBCDCFD1D4D6D8DBDDDFE2E4E7E9C5
:1005C000EBEEF0F3F5F8FAFDFF7267626C696768AD
:1005D00074206D6F6465205B4E4F454550524F4D02
:1005E0005D3A2025750A007267626C69676874203D
:1005F0006D6F6465205B454550524F4D5D3A202537
:10060000750A007267626C6967687420736574208C
:10061000687376205B4E4F454550524F4D5D3A20F2
:1006200025752C25752C25750A007267626C696723
:1006300068742073657420687376205B454550525A
:100640004F4D5D3A2025752C25752C25750A0072B5
:1006500067626C696768742074696D657220656E85
:1006600061626C65642E0A000631FF0974A10109FC
:1006700075150026FF009520750881020976150082
:1006800026FF00952075089102C005010902A1010D
:1006900085020901A1000509190129081500250194
:1006A0009508750181020501093009311581257F01
:1006B00095027508810609381581257F9501750811
:1006C0008106050C0A38021581257F950175088180
:1006D00006C0C005010904A1018507A100050109A3
:1006E0003009311581257F950275088102050919A8
:1006F00001290115002501950175018102950775F4
:10070000018101C0C005010980A101850319012AE9
:10071000B700150126B700950175108100C0050CC2
:100720000901A101850419012AA002150126A002D0
:10073000950175108100C005010906A10185060516
:100740000719E029E71500250195087501810205C3
:1007500007190029EF1500250195F07501810205A3
:1007600008190129059505750191029501750391F7
:1007700001C005010906A101050719E029E71500D7
:10078000250195087501810295017508810105070C
:10079000190029FF150026FF009506750881000540
:1007A00008190129059505750191029501750391B7
:1007B00001C05B435D005B445D005B535D005B57C4
:1007C0005D005B525D0009025B00030100A0FA09B5
:1007D0000400000103010100092111010001224070
:1007E000000705810308000109040100010300005E
:1007F0000009211101000122E80007058203200001
:100800000109040200020300000009211101000196
:1008100022220007058303200001070503032000AF
:1008200001120100020000000853480107310001D5
:10083000020001080341006E00750000000C036116
:100840000072006F0075006D0000000403090423AE
:1008500078217800002778217800002778217823F4
:10086000780000D100D20029410000D100D2000060
:10087000007267626C696768742074696D657220C4
:1008800064697361626C652E0A002223252628297B
:100890002A2C2D2F3032333536383A3B3D3E4042FC
:1008A000434547494A4C4E5051535557595A5C5E3F
:1008B0006062646668696B6D6F71737577797B7D53
:1008C0007F81838587898A8C8E90929496989A9C52
:1008D0009E9FA1A3A5A7A8AAACAEAFB1B3B4B6B86A
:1008E000B9BBBCBEBFC1C2C3C5C6C7C9CACBCCCDCC
:1008F000CED0D1D2D2D3D4D5D6D7D7D8D9D9DADAA7
:10090000DBDBDBDCDCDCDCDCDDDDDDDDDCDCDCDC26
:10091000DCDBDBDBDADAD9D9D8D7D7D6D5D4D3D25A
:10092000D2D1D0CECDCCCBCAC9C7C6C5C3C2C1BF38
:10093000BEBCBBB9B8B6B4B3B1AFAEACAAA8A7A59C
:10094000A3A19F9E9C9A98969492908E8C8A898758
:100950008583817F7D7B79777573716F6D6B696836
:10096000666462605E5C5A5957555351504E4C4A0A
:100970004947454342403E3D3B3A383635333230B5
:100980002F2D2C2A2928262523226164645F6B657C
:10099000795F6269743A2063616E277420616464D0
:1009A0003A20253032580A0064656C5F6B65795FC8
:1009B0006269743A2063616E27742064656C3A2022
:1009C000253032580A0011241FBECFEFDAE0DEBF17
:1009D000CDBF04B603FE18C080914103909142033D
:1009E000A0914303B09144038730904BA740B04B94
:1009F00059F4109241031092420310924303109253
:100A00004403E0E0F8E3099511E0A0E0B1E0E0EF95
:100A1000FFE502C005900D92AA39B107D9F723E08E
:100A2000AAE9B1E001C01D92A134B207E1F70E942A
:100A3000CA0D0C94F62F0C940000FF93EF93E091F5
:100A40009A01F0919B01309709F00995EF91FF9180
:100A50000895FC018591803011F0EFDFFBCF089500
:100A6000FF27E0E230E247FF0CC0419597FF09C045
:100A7000EDE26095709580959095611D711D811DC9
:100A8000911D27FF02C0219530E350E2AA27660F8F
:100A9000771F881F991FAA1FA41710F0A41B639526
:100AA0005A95A9F7AA3008F0A95FA05DAF93F39516
:100AB000611571058105910541F7ED3211F4EF9350
:100AC000F395F21718F43F93F395FBCF8F91B5DFB1
:100AD000FA95E1F70895E991F9918591803021F037
:100AE000853219F0AADFF9CF089520E0E8945591F6
:100AF0005532C1F3503311F4689455915A3348F488
:100B0000505390F3220F022E220F220F200D250F9B
:100B1000F4CF0EF4219589919991533619F35337F7
:100B200029F1533559F1BC0188279927E8945C369F
:100B300021F48991999168945591543639F446EF8E
:100B40007EF077FF0DC08FEF9FEF0AC055374AE068
:100B500039F0583540E121F0523642E009F008956D
:100B6000FF93EF937DDFEF91FF91B7CFFF93EF936B
:100B7000FC0181918030B9F360DFFBCFFF93EF93ED
:100B800068DFF1CFDF93CF93CDB7DEB72596A3DF34
:100B9000CF91DF910895873941F178F4863349F197
:100BA00030F4843321F1853331F584E208958439BA
:100BB000D1F0863901F581E20895843F71F030F477
:100BC000803FD9F0813FB9F481E00895863F49F034
:100BD00030F0873F81F487E0089584E0089585E050
:100BE000089586E0089580E2089582E2089583E200
:100BF000089585E208958FE1089580E0089596E8CC
:100C000090937A00982F9072906890937B008F71E8
:100C100090910401892B80937C0080917A008064FC
:100C200080937A0080917A0086FDFCCF80917800D5
:100C30002091790090917A009F7790937A0090E0CC
:100C4000922B08950E94CB050E94FF050895A5E010
:100C5000B0E0EDE2F6E00C94B42FFC0186819781C0
:100C6000009709F5CF0125E0DE01119601900D9264
:100C70002A95E1F7FC01228189819A81222359F08A
:100C8000662349F00E946E29182F682F89819A8166
:100C90000E94D02903C00E94AF29182F69817A8150
:100CA000812F0E94D3132596E3E00C94D02F0E944D
:100CB0005E2A2FEF84E39CE0215080409040E1F7D2
:100CC00000C000009CE088E10FB6F894A8958093DE
:100CD00060000FBE90936000FFCFABE1B0E0E3E7B0
:100CE000F6E00C94A52F498B5A8B6B8B7C8B8D8BEC
:100CF00061111092BC029E01275F3F4F88E0F9010D
:100D000011928A95E9F785E0FE017196D90101906B
:100D10000D928A95E1F789859A854C855D85452BED
:100D200031F09F3F31F491E08F3F19F403C091E01F
:100D300001C090E090FDD1C161E0C9010E94270689
:100D40006C018035FCE79F0739F48B858823A1F07F
:100D500081E080933201C1C181352CE7920731F4E3
:100D60008B85882349F00E948828B7C182359C472B
:100D700019F48B85811111C00FE011E0712CA12CA9
:100D8000B12C88248394912C55245394CE01019640
:100D90009F8B8E8B77E0472E38C08091320188235D
:100DA000B9F2E1CFFFEFEF16FF0609F444C1F801F5
:100DB0006481611145C020913201822F81706B8462
:100DC000F80135812681662009F4DCC0882309F406
:100DD000D9C03323C1F1940102C0220F331F9A9569
:100DE000E2F721503109F801868190E02817390790
:100DF00009F440C07628FFEFAF1ABF0A095F1F4F02
:100E000025E0A216B10409F418C1F801208131814E
:100E10006FEF8FEF90E0E92EF12CF701EE0FFF1F3F
:100E2000E20FF31F45915491C416D50611F0E62E3A
:100E3000F82E452B09F4B6CF9F5F6E2D8F2DEBCF8B
:100E400020E030E0BACFA4010E2C01C0440F0A9478
:100E5000EAF7242B26832091BA023091BB02223379
:100E6000310508F0B8CF22E330E03093BB02209385
:100E7000BA02B1CF8091290390912A03009729F0FB
:100E80000E943E26C39708F025C180912703B091A8
:100E90002803982FE0E0F0E08B1709F45FC0282FBB
:100EA00030E0F901EE0FFF1FE15EFC4FE080F180C2
:100EB0004E9CF0014F9CF00D1124E15FFE4F4081EC
:100EC0004A8F41814B8FA0E060E070E0EA8DFB8D9E
:100ED000E70FF11DE70FF11D259034902114310427
:100EE000D1F0F801F081F88FF801F181F98F60E01D
:100EF000E88DF98DE60FF11DE60FF11D4591549136
:100F00004115510531F02416350609F4A1E06F5F53
:100F1000EFCF7F5FDBCFAA23D1F0671708F4D4C0EF
:100F20004E9CF0014F9CF00D1124E15FFE4F309775
:100F300081F05482E017F10719F4909327035ACFF8
:100F4000891307C0C9010196982F937002C0E0E091
:100F5000F0E02F5F3F4F822F83709ECF9093270347
:100F6000E017F10709F446CF90E0FC01EE0FFF1FF8
:100F7000E15EFC4FB182A082019683709927809335
:100F8000280338CF311112C0A40102C0440F551FED
:100F90009A95E2F74150510930E042175307E9F5BD
:100FA0006623E1F1C5010E94E82737C0822F90E057
:100FB0009C0121503109282339230E2C02C095951C
:100FC00087950A94E2F7232B31F580FF24C0F801BE
:100FD00082819381892BD9F088E0EE89FF89119273
:100FE0008A95E9F78EEF89838A830E944D26816076
:100FF000582F9D838C83F801828193818F839887FA
:1010000029813A814B816D817E810E948D2AF80170
:10101000158281E003C0817001C080E094010E2C34
:1010200001C0220F0A94EAF72095F801968129233E
:101030002683682EDFCE612CDDCE8B85882381F15F
:10104000772071F10E944D2690932A038093290303
:101050008091BE02883008F04AC091E0980F9093CA
:10106000BE0298E0FE013996DE01119601900D92C4
:101070009A95E1F74CE0849FC001112481549D4F63
:1010800028E0FE013196DC0101900D922A95E1F7EE
:101090002FEF3FEFFC0131872087D386C28627C020
:1010A0009091270380912803981719F00E949728A0
:1010B00008C00E94162810922A03109229030E9449
:1010C0007728772051F013C00115110509F43FCF9F
:1010D00090932703F80154828DCE29853A854B855C
:1010E0005C856D857E858F8598890E948D2A6B969B
:1010F000E2E10C94C12FA0E0B0E0E1E8F8E00C944C
:10110000AF2FFC018081918123813481232B31F029
:101110009F3F31F491E08F3F19F403C091E001C08B
:1011200090E090FDDDC47F0161E0CF010E942706C1
:10113000EC01FC01E851FC47E730F10588F5EA5A7B
:10114000FF4F0C949F2F06E221EE41EE6AE17CE70F
:1011500005C007E225EE45EE6BE17CE7C7010E9482
:1011600066271AC106E221EE40EE68E17CE7F6CF81
:1011700007E225EE44EE69E17CE7F0CF06E221EEDE
:1011800042EE6CE17CE7EACF07E225EE46EE6DE148
:101190007CE7E4CF08E221E045EE6EE17CE7DECFBC
:1011A000F7018281882309F412C110922D03CE0128
:1011B0009057839708F0DBC084E090E00E942B2DCD
:1011C00090933B0380933A03FE01E150F047E232F3
:1011D000F10520F4E35AFF4F0C949F2F80913A03BE
:1011E0008160ACC080913B038860B4C080913A03B9
:1011F0008260A4C080913A0320C080913A03886045
:101200009DC080913B031EC080913B038260A2C0C1
:1012100080913A03806192C080913A0380628EC0CF
:1012200080913A0380648AC00E945E2A80913A03CA
:10123000806884C080913A03886084607FC0809118
:101240003B038260816086C080913A038E7F76C0C6
:1012500080913B03877F7EC080913A038D7F6EC073
:1012600080913A0320C080913A03877F67C08091C4
:101270003B031EC080913B038D7F6CC080913A037D
:101280008F7E5CC080913A038F7D58C080913A0375
:101290008F7B54C00E945E2A80913A038F774EC0A4
:1012A00080913A03877F8B7F49C080913B038D7F7C
:1012B0008E7F50C080913A0382FB222720F991E073
:1012C000922790FB82F990FB83F938C080913B0311
:1012D000982F909591708E7F892B90FB81F93AC061
:1012E00080913A0386FB222720F991E0922790FB18
:1012F00086F924C00E945E2A80913A0387FB222748
:1013000020F991E0922790FB87F918C061E001C0B5
:1013100060E08EE090E00E94312D1EC080913A0383
:1013200084FB222720F991E0922790FB84F906C0E4
:1013300080913A03982F909590FB80F980933A031F
:101340000BC080913B0383FB222720F991E0922779
:1013500090FB83F980933B0360913A0370913B03C8
:1013600084E090E00E944F2D0E945E2A15C0C63195
:10137000FCE7DF0729F5809133028A7A91E009F4CE
:1013800090E090939C01811119C069E288EA91E094
:101390000E94BB260E94F41580911202877009F406
:1013A0009FC3F7018281882309F49AC380913B038C
:1013B00082FF96C382E00E94831692C365E3E6CF64
:1013C000CE0194578034910508F40EC313C3C6317F
:1013D0002CE7D20709F4EFC2809133028272FE013A
:1013E000E052F847E531F10508F096C0E158FF4FAB
:1013F0000C949F2F8091340380FF10C08091940241
:10140000809581701F928F9383EC91E09F938F93CF
:101410000E94C2050F900F900F900F908091940240
:1014200080FF25C08E7F809394026091940270911A
:10143000950280919602909197020E941F1A8091C6
:10144000340380FF0FC08091940281701F928F93AC
:1014500084E591E09F938F930E94C2050F900F90B7
:101460000F900F900E945F290E94F31A95CF816020
:10147000809394028091340380FF0DC01F9281E01D
:101480008F938CE891E09F938F930E94C2050F90F9
:101490000F900F900F908091940261E0869536C076
:1014A00042E55CE16CE57CE12CC04CE55CE162E589
:1014B0007CE127C044EE5BE16EEE7BE122C04EEEA4
:1014C0005BE164EE7BE11DC04AEC5BE167ED7BE133
:1014D00018C047ED5BE16AEC7BE113C040EB5BE1D8
:1014E0006DEB7BE10EC04DEB5BE160EB7BE109C096
:1014F00042E35AE164E47AE104C044E45AE162E37D
:101500007AE10E94582948CF61E081E00E94F81BEF
:1015100043CF0E94061F40CFCE01945780349105DF
:1015200008F455C2F701868197810097B9F4F70155
:101530008281C081D181882349F0CE010E946E2929
:10154000182F682FCE010E94D02904C0CE010E941E
:10155000AF29182FBE01812F0E94D3130E94EA13D6
:10156000D82FC92FF701D280C5800C2D02950F709E
:10157000809112028770B1F0DD20A1F0892F807F69
:10158000803421F080E28D0F883060F080913B0341
:1015900082FF08C082E00E94831680911202877049
:1015A00011E009F010E0CC2EC2948FE0C8228C2DFF
:1015B00090E08C30910508F0DCC1FC01EC56FF4F47
:1015C0000C949F2F8C2F807FCF70882311F0C295B1
:1015D000C07FDD20B9F0CC2309F4B9C180E28D0FC2
:1015E000883010F0D11106C090913302C92BC093FE
:1015F000330205C09091BC02C92BC093BC020E946B
:10160000F415A5C18D2F0E94132CCC2309F4B1C170
:1016100080E28D0F883078F1DD2369F1C0959091DB
:10162000BC02C923C093BC0229C08C2F807FCF701D
:10163000803211F0C295C07FDD2321F0D13009F452
:101640003FC04BC080913B0382FD1BC0DD2069F091
:10165000CC2339F090913302C92BC09333020E94FE
:10166000F41580E00E94492C84C180E00E94132C74
:10167000CC2309F47EC18C2F0E94ED150E94F41535
:1016800078C1DD2079F080913402002349F00130E7
:1016900039F4C82BC81709F46CC1C093340269C16E
:1016A0008C2B14C0011103C00E94E71523C0013028
:1016B00009F45FC18C2F0E940A2B0E94E71559C1C3
:1016C000DD2039F0063008F054C18C2F0E94112B18
:1016D00050C1053008F04DC10DC0DD2049F0002398
:1016E000A1F3F701858180FF32C18F708583EDCF33
:1016F000011131C18C2F0E940A2B3BC18C2F869582
:101700008695837019F0813061F033C1DD2021F0BE
:101710008D2F9C2F937002C080E090E00E942627BE
:101720002EC1DD2021F08D2F9C2F937002C080E010
:1017300090E00E94012723C16D2D8D2F0E941B2B4D
:101740001EC18C2F837009F041C0D11016C12D2FFE
:10175000229526952770220F220F8D2F8F7090E0F3
:10176000022E02C0880F991F0A94E2F7D4FF0BC023
:101770004FE050E002C0440F551F2A95E2F79A014E
:101780002095309502C020E030E0C695C695C37024
:10179000C23099F068F44091350250913602C13060
:1017A00029F0822B932B8423952304C0842B952B23
:1017B000822B932B0E941B2AE0C0822B932B20911B
:1017C00035023091360282279327F4CFDD2019F0BD
:1017D0008C2F817001C08695882309F4CEC02D2FEF
:1017E000229526952770220F220F8D2F8F7090E063
:1017F000022E02C0880F991F0A94E2F7D4FF0BC093
:101800004FE050E002C0440F551F2A95E2F79A01BD
:101810002095309502C020E030E0C695C695C37093
:10182000C23079F0B8F440919E0150919F01C130CF
:1018300029F0822B932B842395230EC0842B952B88
:1018400009C0822B932B20919E0130919F0182270A
:10185000932702C0822B932B0E94F2298EC0CF7057
:10186000DD2039F08C2F0E940B2A8D2F0E94112B26
:1018700084C08D2F0E940A2B8C2F0E94F9297DC0D5
:10188000D23F61F128F4D03F41F0D13F11F15BC06C
:10189000D33F59F1D43FC9F056C0DD2091F0053057
:1018A00008F067C0CF7181E090E002C0880F991FF7
:1018B000CA95E2F720919E0130919F0182279327DC
:1018C00021C0063008F055C0EDCF80913B0382FD6A
:1018D0001CC0DD2029F08C2F8F7129C0DD20D9F3A9
:1018E0008C2F8F710E94F92944C0DD2049F0CF71FF
:1018F00081E090E002C0880F991FCA95E2F702C00C
:1019000080E090E00E94F22934C0DD2099F0CF7190
:101910008C2F0E940B2A80913B0382FF07C0E8E0D6
:10192000CE9FC00111248360809312028C2F0E94ED
:101930000B2A1FC081E00E9483160230D0F082E0A3
:101940000E94831616C0DD2021F0002321F28D2F86
:1019500089CE002329F2D93349F4FFEF27EE83E043
:10196000F15020408040E1F700C000008D2F0E9420
:10197000132C08EF0C0D043010F40E94592711238A
:10198000A9F08091120280FD11C0F70112828595A5
:10199000859585950E940B2AC7010E947B0880913E
:1019A00012028595859585950E94F92960E0C70109
:1019B0000E94270695C080919C01811106C069E2B2
:1019C00088EA91E00E948226E5CC65E3F9CFC11157
:1019D000E3CC8091B4028E7F8093B40281E0809347
:1019E000B9020E942F29D8CCC111D6CC8091B40263
:1019F0008160F2CFC330ECE7DE0741F46FEF7FEF99
:101A000080E090E00E944F2D0E945706C430FCE712
:101A1000DF0708F04BC0C1302CE7D207A9F398F0DC
:101A200080913403982F9095917090FB80F980936A
:101A30003403992319F08CE092E002C08AEF91E020
:101A40000E942905A9CCC115DC4709F06BCD0E9485
:101A50005E2AFFEF24E38CE0F15020408040E1F764
:101A600000C0000081E08093E00080E28093D80015
:101A70001092C900EFE1FEE43197F1F700C00000D9
:101A800087E090EBDC018093410390934203A093A5
:101A90004303B09344039CE088E10FB6F894A89503
:101AA000809360000FBE90936000FFCFCB35ECE7D2
:101AB000DE0721F480E00E94A01634CDCC35FCE78F
:101AC000DF0741F480913B0382FB882780F991E096
:101AD0008927F1CFCA35DC4709F024CD81E0EBCF6F
:101AE000CDB7DEB7E8E00C94CB2F8295982F937397
:101AF00044E0949F900111248C7C86958695282B38
:101B0000822F8575880F2A7A2695822B0895CF9388
:101B1000DF93D82FC92F892F90E0009711F028E08C
:101B200003C08D2F9C2F20E0AC0174E056954795A3
:101B30007A95E1F74115510511F02C5FCA01AC010E
:101B400056954795569547954115510511F02E5FCD
:101B5000CA0196958795892B09F02F5F213031F0C6
:101B6000223041F440E060E08FEF0DC02093490245
:101B700040E007C080914902882339F01092490261
:101B80004FEF6FEF80E00E94311B8D2F9C2FDF9174
:101B9000CF910895A0E1B0E0E0EDFDE00C94A52F19
:101BA00085B7806885BF85B7806885BF84B7877F24
:101BB00084BF0FB6F894A8958091600088618093E7
:101BC0006000109260000FBE90E080E80FB6F894BD
:101BD00080936100909361000FBE8AEF93E290932F
:101BE0009B0180939A010E941E220E943D228091B7
:101BF000E20084608093E200789480918A028823D6
:101C0000A1F01091E9001F709091EC00892F817074
:101C100090FD80E8182B1092E9008091E80083FD88
:101C20000E94171F1F701093E90082E084BD93E0AB
:101C300095BD9AEF97BD80936E00A3E3B1E041E0BC
:101C400050E08D918F3F29F421E0AB33B207C9F703
:101C500015C0E82FE295EF70F0E021A18F70BA0176
:101C600002C0660F771F8A95E2F7CB01962F9095F9
:101C7000922391A392A1892B82A3E6CF1092A40173
:101C800010929D0180E090E00E942B2D873E9E4F98
:101C900011F00E94881582E090E00E941D2D809333
:101CA000340384E090E00E942B2D90933B038093BB
:101CB0003A0383E090E00E941D2D90E00E941B2AD1
:101CC00080919E0190919F010E94870D8091A001BB
:101CD0008111E0C08091340380FF08C08FE593E05C
:101CE0009F938F930E94C2050F900F9080913403B1
:101CF00080FF08C089E493E09F938F930E94C20500
:101D00000F900F9080E090E00E942B2D873E9E4F19
:101D100081F08091340380FF08C081E293E09F93BB
:101D20008F930E94C2050F900F900E9488150E9409
:101D3000561A88E090E00E94252D609394027093DB
:101D4000950280939602909397026E7FD1F48091D2
:101D5000340380FF08C088ED92E09F938F930E9428
:101D6000C2050F900F900E94561A88E090E00E94E2
:101D7000252D609394027093950280939602909320
:101D800097020E94051A8091340380FF08C08FEBF0
:101D900092E09F938F930E94C2050F900F908091C5
:101DA000340380FF0FC08091940281701F928F9343
:101DB00082EA92E09F938F930E94C2050F900F904A
:101DC0000F900F908091340380FF0FC08091940298
:101DD00086951F928F9387E892E09F938F930E943E
:101DE000C2050F900F900F900F908091340380FFE9
:101DF0000EC0809195021F928F938DE692E09F9383
:101E00008F930E94C2050F900F900F900F908091BA
:101E1000340380FF0EC0809196021F928F9383E55A
:101E200092E09F938F930E94C2050F900F900F90A6
:101E30000F908091340380FF0EC0809197021F9213
:101E40008F9389E392E09F938F930E94C2050F9036
:101E50000F900F900F908091340380FF0EC08091FF
:101E600098021F928F938DE192E09F938F930E942F
:101E7000C2050F900F900F900F9010929A028091D0
:101E8000940280FF04C060E086950E94F81B81E008
:101E90008093A0010E9408198091340385608860B6
:101EA0008093340385E091E0909331038093300375
:101EB00058E1252E312C80918A02853009F0ACC082
:101EC00089EE93E00E94290540E4F42EEE24E39489
:101ED00000E112E180918A02853009F06FC08091A3
:101EE0008A02843009F448C00E945F2980915C0214
:101EF00081111FC0E0925C0280919402982F917032
:101F00009093A1018E7F809394028091340380FF8F
:101F10000CC01F921F92E6E7F3E0FF93EF930E943D
:101F2000C2050F900F900F900F900E945F290E94A2
:101F3000F31A0E94881C109235030FB6F894A895E6
:101F4000209260000FBEF092600083B7817F8460B2
:101F500083BF83B7816083BF7894889583B78E7F72
:101F600083BF0FB6F894A895809160008861809334
:101F70006000109260000FBE80918902882309F4EE
:101F8000A9CF0E9487138091A401882309F4A2CFCE
:101F900009BD19BD09B400FEFDCF8091D8008F7D29
:101FA0008093D8008091E00082608093E00080916F
:101FB000E00081FDFCCF0E945E2A8CCF0E945E2A49
:101FC0000E94592710925C028091A1018823E9F0B8
:101FD000809194028160809394028091340380FF09
:101FE0000DC01F9281E08F9380EB93E09F938F93BE
:101FF0000E94C2050F900F900F900F908091940255
:1020000060E086950E94F81B05C080919B028111BB
:102010000E94F31A0E94E3190E9487139091A50170
:102020008091A401981320C00E944D268C018091BC
:10203000A2019091A3010817190709F46EC08FEF50
:102040008F83888719860E944D268160782F9B8711
:102050008A874F81588569858B850E946D0610930C
:10206000A3010093A20159C08091340381FF25C0D0
:102070008CEF93E00E9429051F921F9287EF93E057
:102080009F938F930E94C20584EF93E00E942905DD
:102090008091A4010E94750D1F928F938FEE93E0A3
:1020A0009F938F930E94C2058DEE93E00E942905B5
:1020B0000FB6F894DEBF0FBECDBFE090A401F09044
:1020C000A501FE24F9F010E001E08F2D8023A1F09E
:1020D0001C871D8691E08E2D802309F490E09E8759
:1020E0000E944D268160782F988B8F874C855D8567
:1020F0006E8588890E946D061F5F000F183029F7D2
:10210000E092A5018FB7F8944091360350913703C0
:1021100060913803709139038FBF80913201882319
:1021200041F18091290390912A03009711F10E94B7
:102130003E262091BA023091BB0228173907C8F415
:102140009091270380912803981759F00E949728AF
:102150001092BB021092BA0210922A031092290325
:1021600008C00E94162810922A03109229030E9488
:10217000772880919A02882309F444C090919902AB
:10218000809194028695891B80935F02923079F446
:1021900063E00E946B2FE92FF0E0E55FFB4FE491D5
:1021A0000E2F10E03DECE32E34E2F32E06C000EDDE
:1021B00017E029EFE22E23E2F22E809160028823BD
:1021C00061F0109260020E944D2690935E0280930F
:1021D0005D0210926202109261020E944D26E0910F
:1021E0005D02F0915E028E1B9F0B8F3F9F4750F464
:1021F0000E0F1F1F10935E0200935D028DE592E0AB
:10220000F70109958091A601882389F01092A60113
:1022100080919A02811106C08091940260E08695B7
:102220000E94F81B8091940280FF0E94F31A86E0BE
:10223000EAE4F2E0DE01119601900D928A95E1F751
:1022400010924C0210924D0210924E0210924F02C8
:102250001B81111104C08C81882309F452C0809124
:102260003F02909140020E943E269C0190913C02C8
:10227000992309F4DFC12531310508F442C09F3F9D
:1022800019F09F5F90933C02112361F00E94E61EBB
:10229000111614F09FEF01C091E0899F802D112449
:1022A00080934C021C81112361F00E94E61E1116DE
:1022B00014F09FEF01C091E0899F802D112480933D
:1022C0004D0230914C023323E1F020914D02222344
:1022D000C1F045EB3403C0011124992319F0909308
:1022E0004C0203C081E080934C0265EB2603C001E1
:1022F0001124992319F090934D0203C081E080933B
:102300004D021D81111104C08E81882309F452C031
:1023100080913D0290913E020E943E269C01909148
:102320003A02992309F48BC12135310508F442C0E2
:102330009F3F19F09F5F90933A02112361F00E9432
:10234000C41E111614F09FEF01C091E0899F802DEB
:10235000112480934E021E81112361F00E94C41E3D
:10236000111614F09FEF01C091E0899F802D112478
:1023700080934F0230914E023323E1F020914F02BF
:102380002223C1F075EB3703C0011124992319F002
:1023900090934E0203C081E080934E0235EB2303FD
:1023A000C0011124992319F090934F0203C081E0DA
:1023B00080934F0246E050E0BE016F5F7F4F8AE49A
:1023C00092E00E94E92F892BA9F480914C0281119F
:1023D0000FC080914D0281110BC080914E0281117E
:1023E00007C081E090914F02911103C080E001C0CD
:1023F00081E080FD0E94231E86E0FE013196AAE462
:10240000B2E001900D928A95E1F70E94881C0BE3DF
:1024100011E084EBA82E82E0B82E88248394912CBE
:10242000D80111968C918F3F09F4C0C0E82FE29536
:10243000EF70F0E042A1982F9F70940101C0220F2D
:102440009A95EAF7922F9095342F392332A331A130
:10245000232B21A3B5E3BA95F1F70000D8012C9105
:102460002F3FD1F0A22FA295AF70B0E091964C9182
:1024700091972F70B40102C0660F771F2A95E2F77B
:102480009B01342F322B91963C93919792963C91DD
:102490009297232B92962C93D80112962C912F3F32
:1024A000D9F0A22FA295AF70B0E091964C91919780
:1024B0002F70B40102C0660F771F2A95E2F79B01C7
:1024C000342F322B91963C93919792963C91929710
:1024D0002095232392962C9375E37A95F1F70000CB
:1024E00021A1292321A322A1922392A395E39A95C6
:1024F000F1F700000E942206D80115964D905C90DD
:102500001697612C712C6C01990FEE08FF08C41806
:10251000D508E608F708A1E8BFEFA70196010E94D9
:10252000922DF8012381348140E050E024193509CF
:10253000460957090E94652D121613061406150642
:10254000B4F4AFE7B0E0A70196010E94842DD80152
:1025500017962D913C9118976901E12CF12CA70158
:10256000960124193509460957090E94652DDA019B
:10257000C90121383F4F4F4F5F4F24F481E89FEF4F
:10258000AFEFBFEF80389105A105B10524F08FE7CB
:1025900090E0A0E0B0E0F5012181328128173907F1
:1025A00029F092838183F1E0F093B902075F1F4F16
:1025B00022E0A20EB11C31E00D34130709F030CF38
:1025C0000E942F290E945927182F8091A7011817C0
:1025D00009F471CC1093A7018FB7F894409136039A
:1025E0005091370360913803709139038FBF809108
:1025F000340382FF60CC80FF04C085E194E00E9438
:1026000029058091340380FF0CC01F921F9380E145
:1026100094E09F938F930E94C2050F900F900F90AC
:102620000F908091340380FF46CC8EE094E00E94AE
:10263000290541CC2B30310508F023CE62CE2B305A
:10264000310508F077CEB6CE90913A0392FF0DC0D7
:10265000282F2871283019F4877F846006C0282F1E
:102660002471243011F48B7F886093FF0DC0282FD4
:102670002871283119F4877E846106C0282F2471BF
:10268000243111F48B7E886120913B0320FF0DC023
:10269000382F3871383019F4877F816006C0382FA1
:1026A0003171313011F48E7F886021FF0DC0282FE9
:1026B0002871283119F4877E816106C0282F217185
:1026C000213111F48E7E886194FD877E08952091DA
:1026D00011029091D0012917B1F030E0F90153E0D7
:1026E000EE0FFF1F5A95E1F7EF52FE4F518156133F
:1026F00006C05081581303C05281541306C02F5F87
:102700003F4F2770E8CF80E0089581E00895E3E32C
:10271000F1E06BE371E030E041E021912F3FA1F067
:10272000A22FA295AF70B0E090968C9190E02F70A0
:1027300002C0959587952A95E2F780FD02C0842F07
:1027400002C080E090E0382B440F6E177F0729F716
:1027500080919D01831759F030939D0181E0809312
:1027600039020E944D26909338028093370280915F
:102770003902811102C080E0089580913702909162
:1027800038020E943E260597B0F380919D019091FA
:10279000A401981721F08093A40181E001C080E09A
:1027A000109239020895711112C0683080F483309C
:1027B00070F4E62FF0E098E0899FE00DF11D112400
:1027C000EE0FFF1FE15BFB4F85919491089580E030
:1027D00090E00895CF93DF938238910569F1B0F4CA
:1027E0008133910509F477C048F48932910509F4E1
:1027F00069C08A32910509F473C092C0853391058E
:1028000009F45BC089339105B9F08AC0833E910514
:1028100091F138F4803E9105D1F0823E910531F17D
:102820007FC0863E9105D9F1873E9105E9F1843E4E
:10283000910509F075C028C020913A0320FD5BC0C6
:1028400021FD59C020913B0323FD61C069C08091E7
:102850003A0380FD4AC080913B0380FF4CC08091C9
:102860003A0384FD50C183EE90E04FC180913A035A
:1028700082FF3EC0F4CF80913A0382FD39C080913F
:102880003B0380FD38C0EBCF80913B0381FF39C013
:1028900080913A0384FD37C187EE90E036C1809184
:1028A0003A0383FF2BC0F4CF80913A0383FD26C007
:1028B00080913B0381FD25C0EBCF80913A0385FDDC
:1028C00026C022C080913A0385FD1EC080913B0343
:1028D00083FF1DC00AC080913A0386FD1BC01DC046
:1028E00080913A0386FD19C015C089E390E00DC1BF
:1028F00082EE90E00AC180EE90E007C186EE90E0A3
:1029000004C184EE90E001C185E390E0FEC089E25D
:1029100090E0FBC08AE290E0F8C081E390E0F5C06F
:10292000EC01811530E5930708F053C0811560E490
:10293000960720F0CE019F70906AE7C0803E910517
:1029400088F58D3C910518F0CE019065DEC0883A7F
:102950009105C0F4853A910550F08C2F855AC82F07
:10296000D0E0C35BDE4F888190E09064CEC08130C0
:10297000910509F4C5C008F4C6C0049708F4C3C0A3
:10298000CE01C3C0813C910508F0BDC08C2F885A90
:10299000C82FD0E0CC0FDD1FC05BDE4F888199814E
:1029A0009464B3C08115904258F08D2F8F710E94AE
:1029B0002413282F2F71CE0199279062922BA5C046
:1029C000C11581E0D807E0F6C83ED10508F09BC0EC
:1029D000D7CFC03692E5D90708F053C0C03422E5FE
:1029E000D207B8F08C2F8F718695869570E2879FFD
:1029F000A00111248C2F837021E030E0B90102C0C6
:102A0000660F771F8A95E2F7CB019C68842B952B84
:102A10007CC0C03232E5D30740F08C2F8F7190E03C
:102A2000982F8827816F906A70C0C11562E5D6071C
:102A3000B0F08C2F8695869520E2829FA00111240C
:102A40008C2F837021E030E0B90102C0660F771F40
:102A50008A95E2F7CB01842B952B9D6856C08C2F6D
:102A60008F710E94241395E0D695C7959A95E1F74A
:102A7000CF70D0E0DC2FCC27D0699E01282BC90174
:102A800044C0C03A72E5D70708F58C2F8F71C03863
:102A900092E5D907A8F48695869570E2879F900104
:102AA00011248C2F837041E050E0BA0102C0660F00
:102AB000771F8A95E2F7CB019A68822B932B25C06A
:102AC00090E0982F8827846F906A1FC0C03C22E551
:102AD000D20750F48C2F8F710E9424138F7190E0D5
:102AE000982F8827906211C0C03E32E5D30758F472
:102AF000CE018F719927982F8827806F906A05C023
:102B000081E090E002C080E090E0DF91CF910895F5
:102B100067EE7EEF80E090E00E944F2D60E082E063
:102B200090E00E94312D60E083E090E00E94312D22
:102B3000109236021092350260E074E184E090E079
:102B40000E944F2D60E086E090E00E94312D6FEFF3
:102B500087E090E00E94312D40E050E0BA0188E02B
:102B600090E00E94432D60E08DE090E00E94312DC6
:102B700040E050E0BA0188E190E00E94432D60E01F
:102B800087E190E00E94312D40E050E0BA018CE1F5
:102B900090E00E94432D60E070E080E290E00E94AF
:102BA0004F2D40E050E0BA0188E190E00E94432DB3
:102BB00040E050E0BA018FE090E00E94432D40E0F9
:102BC00050E0BA0183E190E00E94432D0895809186
:102BD000340281111092340208958095909133024D
:102BE0008923809333020895EF92FF920F931F93EE
:102BF000CF93909133028091BC02982B9093A801BF
:102C0000809134028823D9F0892B8093A801809188
:102C10000E01882331F080913A0387FF02C08EE1D4
:102C200001C086E0EAEAF1E090E0815028F02191CD
:102C30002223D9F39F5FF9CF91110E94E71540E25B
:102C400050E063E172E088EA91E00E94E92F892B6D
:102C500009F453C080E2E8EAF1E0A3E1B2E00190B8
:102C60000D928A95E1F7E0913003F09131033097AE
:102C700009F443C080910E01882359F080913A03F2
:102C800087FF07C08091A8018093A90186E0809307
:102C9000A8010280F381E02D88EA91E009958091F6
:102CA000340382FF2AC080FF04C08DE394E00E94B9
:102CB000290508EA11E0C8E087E3E82E84E0F82E51
:102CC0008091340380FF0CC0F80180811F928F93A4
:102CD000FF92EF920E94C2050F900F900F900F90FD
:102CE000C1500F5F1F4FC111EBCF8091340380FFA4
:102CF00004C085E394E00E942905CF911F910F91B4
:102D0000FF90EF9008952091120280958223809386
:102D10001202982F977099F430E0482F082E000C7B
:102D2000550B2417350759F090913B0392FF07C0CC
:102D30008595859585950E94F9291092120208952E
:102D4000CF9390913B0392FB222720F9281709F19A
:102D5000C82F892FC0FB82F980933B0360913A030F
:102D600070913B0384E090E00E944F2D82E00E942E
:102D700083168091340380FF0CC01F92CF9380E2B2
:102D800094E09F938F930E94C2050F900F900F9035
:102D90000F90CF910895809111029091D0018917E1
:102DA00019F08F5F8770FBCF08951F93CF93DF9348
:102DB0008091CD0182958F7009F05AC08091CA012F
:102DC000882309F455C0809111021091D0016091BF
:102DD000C8017091C901C091CB01D091CC0191E0A3
:102DE0006F3F09F090E0292F811709F441C0209727
:102DF00021F07F3F21F030E003C031E001C0322FED
:102E000090E030FD32C0FC0133E0EE0FFF1F3A9539
:102E1000E1F7DF01AF52BE4F11963C911197371386
:102E200024C03C91361321C012963C911297311167
:102E30001CC013964D915C9114974C1B5D0B443B49
:102E4000510598F48091CD018F7080618093CD0100
:102E5000EA52FE4F80818F708061808388EC91E020
:102E60000E947B080E94CB1603C001968770BCCFDE
:102E7000DF91CF911F910895A5E1B0E0E2E4F7E181
:102E80000C94AB2F8C0185E0F801DE015196019086
:102E90000D928A95E1F7D8011296EC909091C801B5
:102EA0002091C9014091CB015091CC0141155105B0
:102EB00031F02F3F31F481E09F3F19F403C081E0EE
:102EC00001C080E080FD85C1F801D080C180A38071
:102ED000B48088EC882E81E0982EF090CA01B5016C
:102EE000641B750BFF2009F426C18091CD01382F9A
:102EF000307F643B710508F0E0C0311192C02C11A5
:102F00001BC09D1119C04091CE015091CF01268167
:102F100037814217530781F4FE2CE1100DC08F70EA
:102F200080618093CD01C4010E947B088091CD0116
:102F3000D80115968C9367C1A114B10439F0BFEF85
:102F4000CB1206C081E0DB1203C003C081E001C0E8
:102F500080E080FD03C081E08E2502C080E090E02B
:102F600080FF10C04E2D6C2D8D2D0E94671388237D
:102F700049F088EC91E00E947B08E8ECF1E088E001
:102F8000DF01A3C0A114B10439F0BFEFCB1206C01A
:102F900081E0DB1203C003C081E001C080E080FD5E
:102FA00003C081E08E2502C080E090E0E82FE17050
:102FB000BE2E80FF2CC04E2D6C2D8D2D0E946713D0
:102FC000F82E811124C0D98ACA8A89899A890E94D7
:102FD000A229292F22952F70223018F0243090F446
:102FE00005C09F7059F0811109C00DC19F7031F06B
:102FF000D80115969C91907F09F405C1805E8830B8
:1030000008F401C1C8010E947B08FB2CFCC0FE2C07
:10301000EE2009F4F8C08091CD0181608093CD014C
:1030200057C02C110FC09D110DC04091CE01509181
:10303000CF01F801268137814217530719F4EE209A
:1030400009F4A6C0C8010E94202A882381F1EE203D
:1030500071F12091CD01822F82958F7090E00297BF
:10306000A4F08091C8019091C9019A8789871B8635
:10307000BD86AC862E878091CE019091CF01988B32
:103080008F87CE0109960E947B0888E0F801A8ECA2
:10309000B1E001900D928A95E1F70E94D5160AC021
:1030A0002C15C1F0C8010E94202A811126C0C80138
:1030B0000E947B08FF24F394A6C03111F1CF88EC65
:1030C00091E00E947B0888E0D4011D928A95E9F77F
:1030D000F12C99C09D11E6CF4091CE015091CF01C6
:1030E000F8012681378142175307E1F6E110DACF64
:1030F0008583C8010E947B0866C0EE20C1F2209142
:10310000CD01822F82958F7090E002970CF4BDCF95
:103110008091C8019091C9019A8389831B82BD82E5
:10312000AC822E838091CE019091CF0198878F83BE
:10313000CE010196A8CF643B710508F044C0FE2C77
:10314000EE2009F4B4CF2C1130C09D112EC0209177
:10315000CE013091CF01F801868197812817390778
:1031600021F59091CD0190FD17C0892F82958F7028
:10317000282F30E02115310579F095832F30310566
:1031800041F08F5F982F9295907F85818F70892B6A
:103190008583C8010E947B0888E0F801A8ECB1E0B3
:1031A00001900D928A95E1F72EC0C8010E94202A55
:1031B00081116BCF8091CD0181608093CD01C801D9
:1031C0000E947B0820C088E0D4011D928A95E9F70F
:1031D0001AC0EE2009F46BCFC8010E94202AF82EF5
:1031E000882309F464CF88E0F801A8ECB1E00190ED
:1031F0000D928A95E1F78091C8019091C9010E94D2
:10320000A2290E94D5168F2D6596ECE00C94C72F4D
:1032100086EF0E94220690935B0280935A0285EF0C
:103220000E94220690935902809358020895A0E0CC
:10323000B0E0EDE1F9E10C94AF2F8B010E94220682
:103240000817190709F474C08017910728F4B8010A
:10325000681B790BCFEF0AC0BC01601B710B8FEFAD
:1032600093E09C01201B310B8901C1E0072E000C6B
:10327000880B990B0E94722E6B017C01B801012E04
:10328000000C880B990B0E94722E9B01AC01C701A8
:10329000B6010E94C82D20E030E048EC52E40E94C4
:1032A000FE2E0E943A2E77FD43C0653671052CF044
:1032B00034E6C302E00111240AC02C2FCC0F330BDB
:1032C000269FE001279FD00D369FD00D1124209717
:1032D00079F1BE010D2E000C880B990B0E94722E05
:1032E00020E030E048EC52E40E94C82D20E030E0BD
:1032F00040EA50E40E94FE2E6B017C01CE01D7FF14
:1033000003C09195819591096EE170E00E948B2F29
:10331000072E000C880B990B0E94722E9B01AC01AA
:10332000C701B6010E94FE2E0E943A2E862F01C0D0
:1033300080E0CDB7DEB7E8E00C94CB2FACE0B0E096
:10334000E4EAF9E10C94B32F4F838B879C87152F08
:1033500080915602909157020E943E260B97C0F032
:103360000E944D26909357028093560260915A0214
:1033700070915B0245E086EF0E941719082F60915B
:1033800058027091590245E085EF0E94171902C05A
:1033900080E000E01E7F188709878A8786E0FE01AB
:1033A0003796DE01119601900D928A95E1F72981F9
:1033B0003A814B815C816D817E8180E090E02C962A
:1033C000E4E00C94CF2F60919402669570E041E0A8
:1033D00050E08DE091E00E94DC2F892B19F481E010
:1033E00080939A020E944D2690935E0280935D0224
:1033F0008091340380FF08C08FE496E09F938F9301
:103400000E94C2050F900F90089580919402282F7A
:10341000269530E02115310519F48170826005C0D0
:103420002830310524F081708E6080939402809161
:103430009702853B18F084EB809397020895CF9212
:10344000DF92EF92FF926B017C010E94051AB70197
:10345000A60188E090E00E94432DFF90EF90DF905E
:10346000CF90089580919802882319F0815080931D
:1034700098026091940270919502809196029091C9
:1034800097020E941F1A089580919802833018F4C1
:103490008F5F809398026091940270919502809161
:1034A0009602909197020E941F1A0895E4E9F2E0B3
:1034B00083E0808311828FEF828384EB8383148285
:1034C00060817181828193810E941F1A0895A0E01A
:1034D000B0E0EDE6FAE10C94AD2FE82EF62EE9010E
:1034E000E42FF0E0611106C0E753FB4FE4914E2F4B
:1034F0002E2F71C0062F10E0E753FB4F4491F42F9D
:10350000C42ED12C26E0829FC00111242FEF30E081
:10351000B9010E94772F5BEA5603C001579F900DB7
:1035200011248E0D911D8E0D911D582F550F580F82
:10353000D901A01BB10BAC9DC001AD9D900DBC9DF0
:10354000900D1124E92FF59ED0011124AB2FBB273C
:103550007901EA1AFB0AEC9CD001ED9CB00DFC9CB1
:10356000B00D11245901A51AB108A09E7001A19EA9
:10357000F00CB09EF00C1124EF2CFF242E193F0903
:103580002C9D80012D9D100D3C9D100D1124212F8F
:103590006230710591F048F461157105E1F0613018
:1035A0007105B9F4242F4B2F16C06430710569F0F2
:1035B00040F06630710579F00CC0242F492FE12FBF
:1035C0000AC0492FEF2F2B2F06C0292FE42F412FA0
:1035D00002C0292FEB2F49832883EA83CDB7DEB7BA
:1035E000EAE00C94C92F8091940280FF0AC0539A9C
:1035F0008BB1877F9BB198602FB7F894ECE9F2E02C
:1036000013C010929D0210929C0210929E02109282
:10361000A00210929F021092A1021092A302109297
:10362000A2021092A402E3CF32E0E53AF30789F058
:10363000319148E09BB9000000C037FF8BB9330FD0
:10364000000000C000C000C08BB900C04A9591F7CF
:10365000EBCF2FBF8FE594E00197F1F700C000009A
:1036600008959091940290FF14C080939D026093FE
:103670009C0240939E028093A00260939F0240931D
:10368000A1028093A3026093A2024093A4020E942D
:10369000F31A0895A3E0B0E0E0E5FBE10C94B12F4C
:1036A0009091940290FF58C0E22E142FF62E082F0E
:1036B000E92FE695F0E0EE57FE4F80818093990266
:1036C0009E7F923079F4453B08F044EB9E012F5FDA
:1036D0003F4F6F2D802F0E94671A4B8169818A812D
:1036E0000E94311B00939502F0929602109397026C
:1036F000EE20E9F06091940270919502809196021B
:10370000909197020E941F1A8091340380FF24C079
:10371000809197021F928F93809196021F928F93B0
:10372000809195021F928F938AE296E00CC080915F
:10373000340380FF11C01F921F931F92FF921F92AC
:103740000F9383E096E09F938F930E94C2050FB67C
:10375000F894DEBF0FBECDBF2396E6E00C94CD2FCC
:10376000E4E9F2E043812CE3421B08F440E021E06D
:10377000628181810E944A1B0895E4E9F2E043815D
:103780002CE3420F08F44FEF21E0628181810E9417
:103790004A1B0895E4E9F2E062812AE0621B08F422
:1037A00060E021E0438181810E944A1B0895E4E9A1
:1037B000F2E062812AE0620F08F46FEF21E04381BA
:1037C00081810E944A1B0895E4E9F2E0818121E0B1
:1037D0004381628185500E944A1B0895E4E9F2E02A
:1037E000818121E0438162818B5F0E944A1B0895A1
:1037F0009091940290FF55C09170811102C0926027
:1038000006C0883010F09E6002C0880F982B9093FD
:1038100094026623B1F060919402709195028091B8
:103820009602909197020E941F1A8091340380FFA4
:103830001BC08091940286951F928F9387EE95E02E
:103840000BC08091340380FF0FC080919402869555
:103850001F928F9389EC95E09F938F930E94C205EE
:103860000F900F900F900F9060919402669570E00A
:1038700041E050E08DE091E00E94DC2F892B19F0AF
:103880000E945F2902C00E94E31981E080936002D8
:1038900020E04091970260919602809195020E94EB
:1038A0004A1B0895809194028695815009F487E01F
:1038B00061E00E94F81B08958091940286958F5FC5
:1038C000883008F081E061E00E94F81B089546E02E
:1038D00050E061E472E080E592E00E94E92F892BDC
:1038E00021F080E592E00E944B279091510286E002
:1038F000E0E5F2E0DF01282F1D922A95E9F7909389
:103900005102A1E4B2E001900D928A95E1F7089589
:10391000A6E3B0E0EEE8FCE10C94B32F4091500236
:103920005091510260915202709153028091540261
:10393000909155020E949E1920935002309351029B
:103940004093520250935302609354027093550275
:1039500086E0E0E5F2E0DE01599601900D928A954D
:10396000E1F78091520281958B8F96E0FE01799666
:10397000DE011D9601900D929A95E1F78F8796E0F2
:10398000FE013D96DE01539601900D929A95E1F766
:103990008D8B96E0FE017396A0E5B2E001900D924A
:1039A0009A95E1F796E0E0E5F2E0DE019B96019062
:1039B0000D929A95E1F796E0FE01BB96DE0117960F
:1039C00001900D929A95E1F79EA50FA518A9209157
:1039D0004902222309F4EEC09D3094F08091470201
:1039E000909148020E943E26893C910508F4E0C06F
:1039F0000E944D2690934802809347020AEFD8C058
:103A0000983094F080914702909148020E943E269F
:103A1000893C910508F4CCC00E944D269093480241
:103A2000809347020CEFC4C0953094F08091470218
:103A3000909148020E943E26893C910508F4B8C046
:103A40000E944D2690934802809347020EEFB0C02B
:103A5000943F94F480914702909148020E943E2640
:103A6000893C910508F4A4C00E944D269093480219
:103A70008093470206E09CC0993F94F480914702EE
:103A8000909148020E943E26893C910508F490C01E
:103A90000E944D26909348028093470204E088C01C
:103AA0009C3F94F480914702909148020E943E26E8
:103AB000893C910508F47CC00E944D2690934802F1
:103AC0008093470202E074C08D3094F080914702E9
:103AD000909148020E943E26893C910508F468C0F6
:103AE0000E944D26909348028093470216E060C0E2
:103AF000883094F080914702909148020E943E26BF
:103B0000893C910508F454C00E944D2690934802C8
:103B10008093470214E04CC0853094F080914702B6
:103B2000909148020E943E26893C910508F440C0CD
:103B30000E944D26909348028093470212E038C0BD
:103B4000843F8CF480914702909148020E943E2667
:103B5000893C910568F10E944D269093480280931C
:103B600047021AEF25C0893F8CF48091470290915B
:103B700048020E943E26893C9105D0F00E944D26C5
:103B800090934802809347021CEF12C08C3F84F44C
:103B900080914702909148020E943E26893C9105FF
:103BA00038F00E944D2690934802809347021EEF02
:103BB00090E080E089879A870B871C8726E0FE01CA
:103BC0003796DE01119601900D922A95E1F78B83CD
:103BD0009C830D831E8326E0FE013196DE015F96F5
:103BE00001900D922A95E1F789A39AA30BA31CA338
:103BF00026E0FE017F96DE01959601900D922A95B2
:103C0000E1F78FA398A709A71AA786E0FE01B5964A
:103C1000A0E5B2E001900D928A95E1F786E0EAE432
:103C2000F2E0DE01D19601900D928A95E1F7909134
:103C300051028AA9892B809351020E94671CE69643
:103C4000E4E00C94CF2F8091340383FF7EC086EA9A
:103C500094E00E94290580914B021F928F9381EA84
:103C600094E09F938F930E94C2058FE994E00E9495
:103C7000290580914C02282F082E000C330B3F930E
:103C80008F938CE994E09F938F930E94C2058AE9F9
:103C900094E00E94290580914D02282F082E000CE7
:103CA000330B3F938F9387E994E09F938F930E9408
:103CB000C20585E994E00E94290580914E02282FD3
:103CC000082E000C330B3F938F9382E994E09F936F
:103CD0008F930E94C20580E994E00E94290580919B
:103CE0004F02282F082E000C330B3F938F938DE843
:103CF00094E09F938F930E94C2058AE894E00E940B
:103D0000290580913C021F928F9387E894E09F934E
:103D10008F930E94C20585E894E00E942905809156
:103D20003B021F928F9382E894E09F938F930E94AF
:103D3000C2058FE794E00E9429058DB79EB74C9687
:103D40000FB6F8949EBF0FBE8DBF0E944D262091E6
:103D50004C02211104C020914D02222321F09093A6
:103D6000400280933F0220914E02211104C0209115
:103D70004F02222321F090933E0280933D028AE479
:103D800092E00E944B27089580913B0280FD16C06F
:103D900081FD16C082FD18C080913A02882391F0FF
:103DA000883290F428E0829FC001112468E270E01C
:103DB0000E948B2F862F672B29F007C082E0089581
:103DC00084E0089581E0089588E0089580913B02A1
:103DD00080FD14C081FD14C082FD16C080913C029C
:103DE000882381F08E3180F420E5829FC001112468
:103DF0006EE170E00E948B2F862F089584E1089574
:103E000088E2089588E0089580E5089580919402FD
:103E100080FF08C0869582588F77853018F40E94FD
:103E20005C1C089561E082E00E94F81B0895AAE2FC
:103E3000B0E0EDE1FFE10C94B42FECE8F2E080910A
:103E4000F100819342E0E439F407C9F780918D02D3
:103E5000833009F461C030F4813071F0823009F4AC
:103E60009BC0B2C08A3009F487C08B3009F46CC0A3
:103E7000893009F0A9C020C080918C02813A09F0F4
:103E8000A3C08091E800877F8093E8008091900232
:103E900090919102892B21F460E288E692E003C0C0
:103EA00060E080E090E070E00E94BA258091E80038
:103EB0008B778093E80088C080918C02813209F072
:103EC00083C08091900290919102029708F07CC08B
:103ED0008091E800877F8093E8008091E80082FD70
:103EE00005C080918A028111F8CF6EC02091F30045
:103EF0008091F20090E0922B029731F48091F100D2
:103F0000813011F0863021F48091F10080936702B6
:103F10008091E8008B7754C080918C02813A09F03F
:103F200053C08091900290919102892B09F04CC06E
:103F30008091E800877F8093E8008091E80080FF0F
:103F4000FCCF80910E0137C080918C028132E1F567
:103F50008091900290919102892BB1F58091E800B7
:103F6000877F8093E8000E94662580918E0280936F
:103F70000E010E945E2A28C080918C02813221F5B8
:103F80008091E800877F8093E8000E9466258091F9
:103F90008F028093660218C080918C02813AA1F44E
:103FA0008091E800877F8093E8008091E80080FF9F
:103FB000FCCF809166028093F1008091E8008E77BB
:103FC0008093E8000E9466258091E80083FFDAC1B3
:103FD00080918C0290918D02492F50E04A3051051A
:103FE00008F0D0C1FA01E056FF4F0C949F2F8038A3
:103FF00021F0823809F0C6C108C0809188029091F2
:104000008902992389F082600FC0809190028F709D
:10401000873008F0B7C18093E9008091EB0085FB01
:10402000882780F91092E9009091E800977F90939B
:10403000E8008093F1001092F10070C1282F2D7FCD
:1040400009F0A0C1882319F0823061F09BC18091F2
:104050008E02813009F096C1933009F080E08093A0
:1040600089022EC080918E0281112AC08091900217
:104070008F702FEF280F263008F084C18093E9005D
:104080002091EB0020FF1CC0933021F48091EB00C5
:10409000806214C09091EB0090619093EB0021E05E
:1040A00030E0A90102C0440F551F8A95E2F7409302
:1040B000EA001092EA008091EB0088608093EB00A8
:1040C0001092E9008091E800877F8093E8000E94C9
:1040D000662558C1811156C110918E021F778091BB
:1040E000E3008078812B8093E3008091E800877F54
:1040F0008093E8000E9466258091E80080FFFCCF55
:104100008091E30080688093E300111102C082E097
:1041100001C083E080938A0235C18058823008F064
:1041200031C120918E0230918F022C3D53E0350732
:1041300079F583E08A838AE289834FB7F894DE01B8
:10414000139620E03EE051E2E32FF0E05093570059
:10415000E49120FF03C0E295EF703F5FEF708E2F78
:1041600090E0EA3010F0C79601C0C0968D939D9301
:104170002F5F243149F74FBF8091E800877F8093FC
:10418000E8006AE270E0CE0101960E94BA25B5C04F
:104190008091900290919102432F55274330510511
:1041A000A9F068F44130510509F4FBC042305105D3
:1041B00009F0E8C08BE590E0E6ECF7E04BC0413257
:1041C000510529F14232510589F1DCC0C901992715
:1041D00081309105A1F058F0029709F0D3C0E3E3D4
:1041E000F8E0E4918E2F90E0E3E3F8E030C0EBE4F8
:1041F000F8E0E4918E2F90E0EBE4F8E028C0EDE3E6
:10420000F8E0E4918E2F90E0EDE3F8E020C08330F9
:10421000910508F0B7C0880F991FFC01ED56FE4FBD
:104220000190F081E02D89E090E014C08330910589
:1042300008F0A8C0FC01EE0FFF1FE357FE4F0190EE
:10424000F081E02DDC01A657BE4F8C9190E00097E5
:1042500009F498C02091E800277F2093E80020917E
:104260009202309193028217930708F49C0140E078
:104270002115310589F180918A02882309F43DC016
:104280008530D9F18091E80083FD37C08091E80046
:1042900082FD2FC08091E80080FFEACF4091F300BB
:1042A0008091F20090E0942B2115310559F088306F
:1042B000910540F444914093F10031962150310929
:1042C0000196F2CF41E0089709F040E08091E800C4
:1042D0008E778093E800CCCF4111CDCF0AC080917A
:1042E0008A02882351F0853041F08091E80083FDF7
:1042F00004C08091E80082FFF2CF8091E8008B77C4
:104300008093E8003FC08038E9F58091E800877F1E
:104310008093E80080918B028093F1008091E80007
:104320008E77D3CE81112EC080918E0290918F0214
:10433000992702973CF58091E800877F8093E800F9
:1043400010918E0210938B020E946625111106C0F7
:104350008091E30087FD02C081E001C084E080938A
:104360008A0242E061EC81E00E94852542E261EC34
:1043700082E00E94852542E261EC83E00E9485256F
:1043800080918A028091E80083FF10C08091E8004C
:10439000877F8093E8008091EB0080628093EB0040
:1043A00005C082E190E0E1E2F8E054CFAA96E3E0B4
:1043B0000C94D02F1F920F920FB60F9211242F93AF
:1043C0003F934F935F936F937F938F939F93AF939D
:1043D000BF93CF93DF93EF93FF93C091E900CF702A
:1043E0008091EC00D82FD17080FDD0E81092E900C8
:1043F0008091F000877F8093F00078940E94171FCF
:104400001092E9008091F00088608093F000CD2B3D
:10441000CF70C093E900FF91EF91DF91CF91BF91F1
:10442000AF919F918F917F916F915F914F913F914C
:104430002F910F900FBE0F901F901895E8EDF0E0B0
:1044400080818E7F80831092E2001092DA001092B9
:10445000E100A0EEB0E08C9181608C9380818F7739
:10446000808319BCA7EDB0E08C918E7F8C93808106
:104470008F7E8083109265020895A0E0B0E0E3E4AF
:10448000F2E20C94AF2FC8EDD0E088818F7E888354
:10449000E7EDF0E080818160808384E082BF81E08D
:1044A0008093650288818E7F888302EE10E0F80198
:1044B00010821092DA0081EEC82ED12CF601108203
:1044C00088818F77888388818068888388818F7DC1
:1044D000888319BC10928A0210928B021092890272
:1044E0001092880290EEE92EF12CF70180818B7FEB
:1044F000808388818160888342E060E080E00E9460
:104500008525F60180818E7F8083F801808181601E
:104510008083808188608083F70180818E7F8083A3
:10452000888180618883CDB7DEB7E8E00C94CB2F1B
:104530001F920F920FB60F9211242F933F934F9318
:104540005F936F937F938F939F93AF93BF93EF93FB
:10455000FF938091E10082FF49C08091E20082FFD9
:1045600045C08091E1008B7F8093E100209164023F
:104570002F5F822F62E30E946B2F992319F0209303
:10458000640234C01092640280916302882371F146
:1045900080918A02843041F58091E9008F702091EA
:1045A000EC00922F917020FD90E8892B93E090937E
:1045B000E9009091EB0090FF14C09091EE0097FFFE
:1045C00010C09091E80095FF03C01092F100F9CF60
:1045D0009091E80090FF05C09091E8009E7790933D
:1045E000E8008F708093E900109263028091DA00F6
:1045F00080FF32C08091D80080FF2EC08091DA0009
:104600008E7F8093DA008091D90080FF1CC080E10A
:1046100089BD82E189BD09B400FEFDCF81E08093B0
:104620008A0282EB97E00E94290580916502811140
:1046300013C00E941E220E943D228091E2008460ED
:104640008093E20009C019BC10928A0286EB97E0C1
:104650000E942905109265028091E10080FF1BC035
:104660008091E20080FF17C08091E2008E7F8093EE
:10467000E2008091E20080618093E2008091D800A6
:1046800080628093D80019BC85E080938A028AEB0F
:1046900097E00E9429058091E10084FF34C0809159
:1046A000E20084FF30C080E189BD82E189BD09B4A8
:1046B00000FEFDCF8091D8008F7D8093D80080913F
:1046C000E1008F7E8093E1008091E2008F7E8093F5
:1046D000E2008091E20081608093E20080918B0291
:1046E000882311F084E007C08091E30087FD02C0B9
:1046F00081E001C083E080938A028EEB97E00E9404
:10470000290580918A028091E10083FF2BC080916E
:10471000E20083FF27C08091E100877F8093E10062
:1047200082E080938A0210928B028091E1008E7F5A
:104730008093E1008091E2008E7F8093E20080917F
:10474000E20080618093E20042E060E080E00E944D
:1047500085258091F00088608093F00082EC97E0DE
:104760000E942905FF91EF91BF91AF919F918F9189
:104770007F916F915F914F913F912F910F900FBE5D
:104780000F901F9018952091E4003091E50095E678
:104790004091EC00842F817040FF23C08091E8009D
:1047A00080FD1DC080918A02882399F0853099F0A0
:1047B0008091EB0085FD11C04091E4005091E5002F
:1047C0002417350729F3915011F09A01E1CF84E0C5
:1047D000089582E0089583E0089581E0089580E0DF
:1047E00008954091E80042FFDDCF0895809167026F
:1047F000089508959FB7F894109263029FBF909117
:104800008A02943009F057C09091E9009F7030916E
:10481000EC00232F217030FD20E8922B23E0209321
:10482000E9002091EB0020FF43C02091EE0027FF1C
:104830003FC020913C03222321F02091E80025FF76
:1048400037C010923C0326E03091E80035FD15C0DA
:1048500030918A02343061F53091EB0035FD28C08B
:10486000215021F481E080933C0322C0EFE9FFE076
:104870003197F1F700C00000E7CF8093F1008091FD
:10488000E80085FD0AC08091E80080FFFCCF8091A0
:10489000E8008E778093E80006C08FB7F89421E097
:1048A000209363028FBF9F709093E90080E008958A
:1048B0009F709093E9008FEF08950F931F93CF930C
:1048C000DF938B01EA0190918A02943079F58F7021
:1048D0008093E9008FEF9091E800815095FD06C02C
:1048E00095ED9A95F1F700008111F5CF8091E800E0
:1048F00085FF1CC00E94C323882361F08091E800DB
:104900008E778093E80012C0F80181918F01809327
:10491000F1002197209791F38091E80085FDF4CF75
:104920008091E8008E778093E800E4CFDF91CF910B
:104930001F910F91089543E050E0BC0182E00E9476
:104940005D24089546E050E0BC0182E00E945D24B1
:104950000895CF93DF93EC0180910E01811105C082
:1049600048E050E0BE0181E00BC080913A0387FF30
:1049700003C040E282E002C048E081E050E0BE01B6
:104980000E945D2480E2FE01A8E6B2E001900D9253
:104990008A95E1F7DF91CF910895A0E0B0E0E3EDD3
:1049A000F4E20C94AC2FFC01A280948081E084831B
:1049B000EAE8F8E0B490E9E0F9E0E491C5EAD2E091
:1049C000FCE9EF2EF2E0FF2ECC24CA94D12CEB1997
:1049D0000E2F10E022E02A1530F080919502888396
:1049E000809196028983911003C01B821A8255C060
:1049F0008B818823F9F081508B832FEF829FC00138
:104A000011246C8170E00E94772FFB01FF27E6578D
:104A1000F74F8491E82FEB192FEFE29FC00111248B
:104A2000B8010E94772F80919702689FB0011124EE
:104A30007A8333C00E940D2D20919702269521582C
:104A400030E0A901440F551F322F2227240F351FB4
:104A5000232F33278217930704F582E08A1588F401
:104A60000E940D2DB6010E948B2F88830E940D2D70
:104A7000209196022695622F70E00E948B2F280FBE
:104A800029831A8280919702843120F0893C18F0A2
:104A900088EC01C084E18C838B834A81453B08F01C
:104AA00044EB9701698188810E94671A259623E06B
:104AB000E20EF11C82E0C43BD80709F08BCF0E94C4
:104AC000F31ACDB7DEB7EBE00C94C82F80918C02BF
:104AD00087FF11C08091E80082FD05C080918A02A5
:104AE0008111F8CF11C08091E8008B770BC08091C5
:104AF0008A02882349F08091E80080FFF8CF8091F6
:104B0000E8008E778093E8000895982F973068F535
:104B10009093E900981739F07091EC002091ED0026
:104B20005091F00003C0242F762F50E021FD02C0E9
:104B30009F5FECCF3091EB003E7F3093EB003091E4
:104B4000ED003D7F3093ED003091EB00316030930C
:104B5000EB007093EC002093ED005093F000209157
:104B6000EE0027FDE5CF80E008958F708093E90087
:104B700081E0089520919202309193022617370721
:104B800048F06115710539F42091E8002E772093E3
:104B9000E80001C0B901FC0120E06115710579F15F
:104BA00080918A028823F1F18530F1F18091E8004B
:104BB00083FD3CC08091E80082FD2EC08091E8001A
:104BC00080FFEBCF2091F3008091F20090E0922BD8
:104BD0006115710551F08830910538F421912093C9
:104BE000F100615071090196F3CF21E0089709F0B7
:104BF00020E08091E8008E778093E800CECF2111ED
:104C0000CFCF0AC080918A02882361F0853061F09D
:104C10008091E80083FD0AC08091E80082FFF2CF16
:104C200080E0089582E0089583E0089581E008958A
:104C300078941F920F920FB60F9211248F939F9327
:104C4000AF93BF938091360390913703A0913803BF
:104C5000B09139030196A11DB11D80933603909345
:104C60003703A0933803B0933903BF91AF919F915D
:104C70008F910F900FBE0F901F9018959C014FB70A
:104C8000F8948091360390913703A0913803B09146
:104C900039034FBF821B930B08952FB7F89480916F
:104CA000360390913703A0913803B09139032FBF99
:104CB00008951F920F920FB60F9211248F939F9316
:104CC000AF93BF9380913503811113C08091360358
:104CD00090913703A0913803B09139034196A11DFB
:104CE000B11D8093360390933703A0933803B0939C
:104CF0003903BF91AF919F918F910F900FBE0F908D
:104D00001F90189520910E01222351F120913A0312
:104D100027FF26C0262F2695269526952E3178F436
:104D2000FC01E20FF11D677081E090E001C0880F87
:104D30006A95EAF78095928189238283089580910C
:104D4000340380FF17C01F926F9388EA99E09F9306
:104D50008F930E94C2050F900F900F900F900895AF
:104D6000FC0106962281621301C012823196E81777
:104D7000F907C1F7089520910E01222349F12091EE
:104D80003A0327FF25C0262F2695269526952E31F6
:104D900070F4FC01E20FF11D677081E090E001C04A
:104DA000880F6A95EAF79281892B82830895809112
:104DB000340380FF25C01F926F938AE899E09F9388
:104DC0008F930E94C2050F900F900F900F9008953F
:104DD000FC0132962FEF30E04191641789F02F3FAC
:104DE00019F4411101C0232F3F5F3630A9F72F3F3F
:104DF00039F0FC01E20FF11D27FDFA956283089559
:104E00000895A3E0B0E0E7E0F7E20C94B52F20911D
:104E100032033091330328173907A1F090933303FD
:104E200080933203E0913003F0913103309751F0D9
:104E300024E029839B838A830680F781E02DCE01BD
:104E4000019609952396E2E00C94D12FA3E0B0E0FF
:104E5000ECE2F7E20C94B52F20912E0330912F0352
:104E600028173907A1F090932F0380932E03E09128
:104E70003003F0913103309751F023E029839B8375
:104E80008A830680F781E02DCE010196099523964D
:104E9000E2E00C94D12FE0913003F0913103309790
:104EA00039F022E0DC012C930480F581E02D099596
:104EB0000895E0913003F0913103309729F001908B
:104EC000F081E02D0995089580E00895EF92FF921A
:104ED0000F93CF93DF93C42FD22FFC0182818823BD
:104EE000B1F040932D030E944D2690932C038093A4
:104EF0002B0380E28C0F883008F064C0C77081E01B
:104F000001C0880FCA95EAF70E94112B5BC08091FF
:104F10002D0348134BC080912B0390912C030E94CA
:104F20003E26843B910508F041C0CD17C9F080E2D0
:104F30008C0F883040F4C77081E001C0880FCA959B
:104F4000EAF70E940A2B80E28D0F883048F481E056
:104F50009D2F977001C0880F9A95EAF70E94112B38
:104F6000093319F0E12CF12C03C080E5E82EF12C77
:104F7000802F0E94492CE114F10451F08FE99FE049
:104F80000197F1F700C0000091E0E91AF108F3CFB2
:104F9000802F0E94132C80E28D0F883098F4D770F8
:104FA00081E001C0880FDA95EAF70AC080E28C0F31
:104FB000883040F4C77081E001C0880FCA95EAF7D5
:104FC0000E940A2BDF91CF910F91FF90EF900895EF
:104FD000BC014091270380912803942F981729F151
:104FE000292F30E0F901EE0FFF1FE15EFC4F019029
:104FF000F081E02DE617F70799F487E0869FF0012E
:10500000879FF00D1124E15FFE4F81E084839413AC
:105010000CC02F5F3F4F2370332720932703089541
:105020002F5F3F4F922F9370D9CF08950F931F9307
:10503000CF93DF938091BE02882309F453C0C091BF
:10504000BD021CE08091BE02C81708F047C001E015
:105050000C0F0093BD02D0E01C9FF0011D9FF00DCE
:105060001124E154FD4F9081818123813481232BD0
:1050700031F08F3F31F481E09F3F19F403C081E0AC
:1050800001C080E080FD28C01C9FD0011D9FB00D95
:105090001124A154BD4F16968D919C911797892B81
:1050A00031F418968D919C911997019651F42081B5
:1050B00031814281538164817581868197810E940B
:1050C0008D2A1C9FF0011D9FF00D1124E154FD4F0E
:1050D000148213821092BC02C02FB4CF1092BE0271
:1050E0001092BD02DF91CF911F910F910895109200
:1050F000BB021092BA02EFE0F1E08581811102C09B
:1051000014821682379681E0E233F807B1F70895EA
:1051100010922A03109229031092320180912803E1
:10512000809327030E9477280E9416280895A0E004
:10513000B0E0EDE9F8E20C94A52FC0912703E7E079
:10514000FE2E01E010E0FCE02F2EAEEFEA2E809163
:105150002803C81709F47AC0D0E0FE01EE0FFF1F44
:10516000E15EFC4F80819181F89EF001F99EF00D87
:105170001124E15FFE4F2481211165C06090BE02C1
:10518000AFEBB2E020E030E0712C5F01261508F0B3
:1051900058C01A964D905C901B97F50180809180C5
:1051A0004FEF5FEF312CC32CD12CF601EE0FFF1F18
:1051B000E80DF91D659174914616570609F4A6018C
:1051C000672B11F03394EFCF4F3FFFEF5F07A9F14B
:1051D000B80102C0660F771F4A95E2F7762AA80148
:1051E000032C02C0440F551F0A94E2F741505109A5
:1051F000672D70E046175707E1F4229EF001239EC9
:10520000F00D1124E154FD4FF89ED001F99EB00D30
:105210001124A15FBE4F12962D913C9113973783B5
:105220002683E082E1829187808771E015967C93E6
:1052300008C014961C921E9213972F5F3F4F1C9626
:10524000A5CF0E94E8272196C37081CF0E9416281F
:105250000E947728CDB7DEB7E2E10C94C12FA4E01D
:10526000B0E0E5E3F9E20C94B52F8091B902882310
:10527000D9F08091300390913103892B99F087E028
:1052800089838091B5028A838091B7028B83809154
:10529000B4028C8344E050E0BE016F5F7F4F82E038
:1052A0000E945D241092B9022496E2E00C94D12F62
:1052B000882311F0FA0101C0FB01099508951092AD
:1052C0009A028091340380FF08C081E798E09F93A1
:1052D0008F930E94C2050F900F900895A0E0B0E058
:1052E000E4E7F9E20C94AE2F7C0100919E0110914D
:1052F0009F018091350290913602082B192BCFE047
:10530000D0E0CC24C394D12CC6010C2E02C0880F4F
:10531000991F0A94E2F780239123892B21F4219786
:1053200098F7B12C09C0BC2EB7018C2F0E94D31363
:105330000E94EA13019799F38B2DCDB7DEB7E9E010
:105340000C94CA2FCF93DF93EC010E946E29BE010B
:105350000E94D3130E94EA13DF91CF910895911117
:105360001DC08830D8F4EDE3F3E040E050E0219137
:1053700030E0082E02C0369527950A94E2F7217096
:105380003327042E01C0220F0A94EAF7922B4F5FB5
:105390005F4F4430510559F7892F089580E00895F3
:1053A00091111FC08830E8F421E001C0220F8A95D6
:1053B000EAF7EDE3F3E040E050E070E03081CB014C
:1053C000042E02C0969587950A94E2F78170819524
:1053D00083278223832781934F5F5F4F443051059A
:1053E00069F708950E94870D90939F0180939E0115
:1053F000089521E030E002C0220F331F8A95E2F7C2
:105400002095309580919E0190919F018223932356
:105410000E94F229089521E030E002C0220F331FDC
:105420008A95E2F780919E0190919F01822B932BA8
:105430000E94F229089590933602809335020895D0
:10544000CF93FC019081818123813481232B31F022
:105450008F3F31F481E09F3F19F403C081E001C028
:1054600080E0C82FC17080FD23C08681978100979E
:1054700019F00E94EA1304C0808191810E94A22940
:1054800092959F70963079F010F4925001C09A5026
:10549000923088F4803F71F018F4883E60F40AC0BE
:1054A000843F49F407C0883E28F0813F21F402C0C0
:1054B000C0E001C0C1E08C2FCF910895109233025B
:1054C00080910E01882331F080913A0387FF02C05A
:1054D0008EE101C086E0EAEAF1E0DF011D928A95E3
:1054E000E9F780E090E00E94262780E090E00E94AB
:1054F00001271092BC020E94F415EAE4F2E086E073
:10550000DF011D928A95E9F710923C0210923A024F
:1055100010923B020E94231E0895A0E1B0E0E3E94F
:10552000FAE20C94B52F29873A874B875C876D8701
:105530007E878F87988BCE0109960E943C17811138
:1055400051C088E0FE013996DE01119601900D925E
:105550008A95E1F779856A854C855D854115510508
:1055600031F06F3F31F481E07F3F19F403C081E0F7
:1055700001C080E080FD36C0A091D001B0E0CD0137
:105580000196877099272091110230E082179307C6
:1055900081F179836A835D834C8393E0AA0FBB1FFB
:1055A0009A95E1F7AF52BE4F98E0FE013196019017
:1055B0000D929A95E1F78093D0010E94CB1612C00C
:1055C00028E0829FC00111248F529E4F0E943C17F9
:1055D0008823E1F08091110290E00196877099276D
:1055E00080931102809111029091D0018913E8CF2C
:1055F0000DC00E945E2A1092D00110921102E8ECB8
:10560000F1E088E0DF011D928A95E9F76096E2E01B
:105610000C94D12F882321F00E94ED150E94F415DF
:105620000895882339F090913302892B80933302B7
:105630000E94F4150895662309F45DC08D3C21F4A1
:105640000E94E61E819504C08E3C29F40E94E61E4D
:1056500080934D02C8C08F3C21F40E94E61E8195C4
:1056600004C0803D29F40E94E61E80934C02BBC01A
:10567000893D19F40E94C41E05C08A3D31F40E9480
:10568000C41E819580934E02AEC08B3D21F40E94D2
:10569000C41E819504C08C3D29F40E94C41E8093D1
:1056A0004F02A1C04FE2480F483080F421E030E0C3
:1056B000B901042E02C0660F771F0A94E2F7CB01EE
:1056C00090914B02892B80934B0290C08D3D21F429
:1056D00080913B0281600CC08E3D21F480913B02A1
:1056E000826006C08F3D09F081C080913B028460DA
:1056F00080933B0278C04FE2480F8D3C39F4909183
:105700004D0297FF35C010924D0258C08E3C29F4CF
:1057100090914D021916BCF32BC090914C028F3C16
:1057200029F497FF25C010924C0248C0803D19F41F
:105730001916CCF31DC090914E02893D29F419161B
:10574000BCF410924E023AC08A3D19F497FF10C083
:10575000F8CF8B3D39F490914F0297FF09C010921A
:105760004F022CC08C3D21F490914F021916BCF3CE
:10577000483088F4815D21E030E0B90102C0660F55
:10578000771F8A95E2F7CB01809590914B02892390
:1057900080934B0213C08D3D21F480913B028E7F9C
:1057A0000BC08E3D21F480913B028D7F05C08F3D63
:1057B00029F480913B028B7F80933B0280914C02C5
:1057C000811106C080914D02811102C010923C02ED
:1057D00080914E0281111AC080914F02811116C032
:1057E00010923A0213C00E94231E08954830D8F741
:1057F00081E090E001C0880F4A95EAF7909151024C
:10580000892B809351020E94671C0895483058F7F5
:1058100081E090E001C0880F4A95EAF78095909169
:1058200051028923EECF882399F19CEF980F913A8A
:1058300030F4682F88EA91E00E9482260DC090E241
:10584000980F983060F4877091E001C0990F8A95A5
:10585000EAF7892F0E94ED150E94F41508959BE543
:10586000980F933028F480E090E00E942627089556
:1058700098E5980F993128F480E090E00E94012784
:10588000089593E3980F933118F460E00E941B2B66
:105890000895CF93882309F472C0C82F8CEF8C0F22
:1058A000813AC0F580910E018823E1F080913A039E
:1058B00087FF18C0EC2FE695E695E695F0E0E855F1
:1058C000FE4F8281282F30E04C2F477081E090E01E
:1058D00002C0880F991F4A95E2F782239323892BF0
:1058E00061F412C0EAEAF1E080EB91E02191C21785
:1058F00021F08E179F07D1F707C06C2F88EA91E03F
:105900000E9482260E94F4156C2F88EA91E00E9482
:10591000BB2610C080E28C0F883078F4C77081E01D
:1059200090E001C0880FCA95EAF790913302892B65
:10593000809333020E94F41522C0EBE5EC0FE330B4
:1059400040F4F0E0E35BFE4F808190E00E94262768
:1059500016C0E8E5EC0FE93150F4F0E0EE0FFF1F60
:10596000E05BFE4F808191810E94012708C083E3A4
:105970008C0F833120F461E08C2F0E941B2BCF9180
:1059800008958F929F92AF92BF92CF92DF92EF9243
:10599000FF92CF93DF93EC01688179818A819B81AB
:1059A000611571058105910521F464E279ED8BE5BE
:1059B00097E02DE133EF41E050E00E94652D490171
:1059C0005A019B01AC01A7EAB1E40E94842D6B014E
:1059D0007C01ACEEB4EFA50194010E94922DDC0194
:1059E000CB018C0D9D1DAE1DBF1DB7FF03C00197E0
:1059F000A109B04888839983AA83BB839F77DF91ED
:105A0000CF91FF90EF90DF90CF90BF90AF909F909D
:105A10008F9008950E94C12C089580E091E00E942B
:105A2000C12C0895A0E0B0E08093000190930101A3
:105A3000A0930201B09303010895F999FECF92BD9E
:105A400081BDF89A992780B50895A6E1B0E044E0B9
:105A500050E00C94572DA8E1B0E042E050E00C94E7
:105A6000572D262FF999FECF92BD81BDF89A019747
:105A700000B4021639F01FBA20BD0FB6F894FA9A96
:105A8000F99A0FBE08950396272F0E94322D0E9487
:105A9000312D252F0E94322D242F0C94322D01966A
:105AA000272F0E94322D0C94312DDC01CB01FC01FB
:105AB000F999FECF06C0F2BDE1BDF89A319600B467
:105AC0000D9241505040B8F70895052E97FB1EF4F3
:105AD00000940E947C2D57FD07D00E94972D07FC53
